S00A000046502E7372656384
S1130000602900207D240000112500001125000036
S113001000000000000000000000000000000000DC
S11300200000000000000000000000001125000096
S11300300000000000000000112500001125000050
S113004011250000112500001125000011250000D4
S1130050112500001125000011250000050A0000EB
S1130060190A00002D0A0000410A0000550A000088
S1130070690A0000B51D0000C91D0000DD1D000057
S1130080F11D0000051E0000191E00002D1E0000B9
S1130090411E00001125000011250000112500005B
S11300A01125000010B5064C2378002B07D1054B11
S11300B0002B02D0044800E000BF0123237010BDD0
S11300C010000020000000001026000008B5084BB6
S11300D0002B03D00748084900E000BF0748036825
S11300E0002B00D108BD064B002BFBD09847F9E745
S11300F0000000001026000014000020102600005C
S11301000000000080B584B000AF021CFB1D1A7013
S11301100F23FB18FA1D1278D2091A700E23FB184C
S1130120FA1D127852091A700D4BBB600F23FB188D
S11301301B78002B0FD10F23FB181B789B00102278
S11301409446BC446344083B1A680E23FB181B788E
S1130150DB01D31800E00023181CBD4604B080BDA9
S11301600044004180B582B000AF021CFB1D1A7030
S1130170FB1D1B78181C034B9847031C181CBD4619
S113018002B080BD0501000080B582B000AF786088
S11301907B6800221A707B6801225A707B680022F7
S11301A09A70BD4602B080BD80B584B000AF021C19
S11301B0FB1D1A70FB1D1B78181C0B4B9847031C66
S11301C0FB60FB1D1B781F22134001229A40131C65
S11301D0BB60FB681B6ABA6813405A1E9341DBB2CA
S11301E0181CBD4604B080BD6501000080B584B014
S11301F000AF021CFB1D1A70BB1D0A1C1A70FB1DEC
S11302001B78181C0C4B9847031CFB60FB1D1B78C8
S11302101F22134001229A40131CBB60BB1D1B7894
S1130220002B03D0FB68BA689A6102E0FB68BA68E5
S11302305A61BD4604B080BD6501000080B582B03E
S113024000AF7860064B7A681A6002E07B68013B75
S11302507B607B68002BF9D1BD4602B080BDC046EF
S11302606400002080B582B000AF3B1D181C0E4B0B
S113027098473B1D02221A703B1D2320191C0B4B6F
S11302809847232001210A4B98473B1D01221A70ED
S11302903B1D2220191C054B984722200121044BA9
S11302A09847BD4602B080BD8901000029110000B5
S11302B0ED01000080B582B000AF021CFB1D1A7076
S11302C0FB1D1B782320191C094B98472220012170
S11302D0074B98470120074B984722200021044BE5
S11302E098470120034B9847BD4602B080BDC046E5
S11302F0ED0100003D02000080B500AF2320012184
S11303000D4B9847222001210B4B984701200B4BA2
S1130310984723200A4B9847031C1A1C094B1A7050
S113032022200021044B98470120044B9847054B99
S11303301B78181CBD4680BDED0100003D02000085
S1130340A90100006800002080B500AF232001212E
S11303500C4B9847222001210A4B984701200A4B55
S1130360984723200021074B98470120064B9847C4
S113037022200021034B98470120034B9847BD4698
S113038080BDC046ED0100003D02000080B500AF15
S1130390232000210A4B984701200A4B984722202A
S11303A00121074B98470120064B98472320012140
S11303B0034B98470120034B9847BD4680BDC04678
S11303C0ED0100003D02000080B584B000AF021CC6
S11303D0FB1D1A700F23FB1800221A7017E0FB1D77
S11303E01B785BB2002B03DA01200F4B984702E025
S11303F000200D4B9847FA1DFB1D1B78DB1813706A
S11304000F23FB181A780F23FB1801321A700F23DD
S1130410FB181B78072BE2D9044B9847031C181CC4
S1130420BD4604B080BDC046B5020000F90200001C
S113043080B584B000AF021CFB1D1A700F23FB189B
S113044000221A700E23FB1800221A7018E00F23E2
S1130450FA180F23FB181B78DB181370154B9847F9
S1130460031C191C0F23FB180F22BA1812780A4315
S11304701A700E23FB181A780E23FB1801321A7017
S11304800E23FB181B78072BE1D9FB1D1B78002BCF
S113049003D00020084B984702E00120064B984700
S11304A00120064B98470F23FB181B78181CBD46E8
S11304B004B080BDF9020000B50200003D02000056
S11304C090B583B000AF5E4B98475E4B98470320CE
S11304D05D4B9847FB1D00221A700DE0FB1D1C7834
S11304E001205A4B9847031C1A1C594B1A55FB1DE3
S11304F01A78FB1D01321A70FB1D1B783D2BEDD9B8
S1130500FB1D1C780020514B9847031C1A1C504BB0
S11305101A55504B9847FB1D22221A7009E0FB1D07
S11305201B784B4AFF21D154FB1D1A78FB1D013265
S11305301A70FB1D1B78392BF1D9424B98470220C6
S1130540414B98478020404B9847FB1D00221A706E
S11305500BE0FB1D1B783E4AD35C181C3A4B9847B2
S1130560FB1D1A78FB1D01321A70FB1D1B783E2BF4
S1130570EFD9384B9847334B98470A20324B98476A
S11305808020314B9847FB1D00221A700BE0FB1DA5
S11305901B782F4AD35C181C2B4B9847FB1D1A78E9
S11305A0FB1D01321A70FB1D1B783E2BEFD9294B22
S11305B09847244B98472A20234B98478020224B66
S11305C09847FB1D00221A700BE0FB1D1B78204A84
S11305D0D35C181C1C4B9847FB1D1A78FB1D013279
S11305E01A70FB1D1B783E2BEFD91A4B9847154BFD
S11305F098470320144B9847FB1D00221A700DE006
S1130600FB1D1C780120114B9847031C1A1C104B2E
S11306101A55FB1D1A78FB1D01321A70FB1D1B783D
S11306203D2BEDD9FB1D1C780020084B9847031C7B
S11306301A1C074B1A55074B9847BD4603B090BD8B
S11306406502000049030000C903000031040000F2
S1130650B80000208D03000080B582B000AF534B7A
S11306609B78002B4CD0BB1D181C514B9847BB1DCD
S11306701B781A1C7F231340402B02DDBB1D002274
S11306801A70BB1D1B78F72B37D0FA2B02D0002B26
S113069035D012E0FB1D00221A7009E0FB1D1B7807
S11306A0444A0021D154FB1D1A78FB1D01321A70F3
S11306B0FB1D1B783F2BF1D922E0BB1D1B78DBB25D
S11306C05BB2002B0EDABB1D1B78802252425340D2
S11306D0DAB2BB1D1A70BB1D1B78013B354A0021E1
S11306E0D1540DE0BB1D1B783F2B09D8BB1D1B78D3
S11306F0013B304A6321D15402E0C04600E0C046C9
S11307002D4B1B780133DAB22B4B1A702B4B1B7811
S1130710002B17D12A4B98472A4B1B78181C2A4BBD
S113072098478A20284B9847264B1B78022B02D1E6
S1130730264B204A1A60214B01221A70244B0022B6
S11307401A7030E0214B1B681B78181C1E4B98470D
S11307501F4B1B780133DAB21D4B1A701B4B1B68FD
S11307605A1C1A4B1A601A4B1B78182B1BD1194BA5
S11307709847124B00221A70124B1B780A2B07D091
S11307802A2B09D0022B0BD10E4B0A221A700AE035
S11307900C4B2A221A7006E00A4B02221A7002E05D
S11307A0084B02221A70BD4602B080BD1C01002015
S11307B0A10900006C000020690000202C0000202A
S11307C04903000000000020C9030000B400002019
S11307D02D0000208D03000080B584B000AF021C02
S11307E0FB1D1A700F23FB18FA1D1278D2091A7018
S11307F00E23FB18FA1D127852091A700D4BBB60B8
S11308000F23FB181B78002B0FD10F23FB181B7829
S11308109B0010229446BC446344083B1A680E2390
S1130820FB181B78DB01D31800E00023181CBD461D
S113083004B080BD0044004180B582B000AF021C0A
S1130840FB1D1A70FB1D1B78181C034B9847031CD7
S1130850181CBD4602B080BDD907000080B584B025
S113086000AF021CFB1D1A70BB1D0A1C1A70FB1D75
S11308701B78181C0C4B9847031CFB60FB1D1B7852
S11308801F22134001229A40131CBB60BB1D1B781E
S1130890002B03D0FB68BA689A6102E0FB68BA686F
S11308A05A61BD4604B080BD3908000080B500AF70
S11308B0034A3823D35CDBB2181CBD4680BDC04656
S11308C00004004080B500AF034B01221A70BFF34F
S11308D05F8F62B6BD4680BD0C00002090B583B02A
S11308E000AF234B9847234B9847BC1D224B984796
S11308F0031C2370214B9847214B9847214B984761
S113090014200121204B9847204B00221A70C04626
S11309101F4B9847031EFBD1142000211A4B984704
S11309201C4B98471C4B9847184B1B78C02B00D086
S11309301CE0FB1D1B78194A0021D154FB1D1A78B9
S1130940FB1D01321A70FB1D1B783E2B02D9FB1DC7
S113095000221A70FB1D1B78104A6321D1540B4BE3
S11309601B780133DAB2094B1A70C046DAE7C04685
S1130970E5150000710B0000AD080000191000001F
S1130980850F0000C50800005D0800003C09002038
S1130990710F0000C1040000590600006C00002023
S11309A080B582B000AF7860154B9B78002B23D0C4
S11309B0134B5B781A1C124B9B18DA787B681A70FD
S11309C00F4B5B780133DAB20D4B5A700C4B5B78EA
S11309D00F221340DAB20A4B5A70094B1A78084BAB
S11309E05B78D31ADAB2064B9A70054B9B780F22C8
S11309F01340DAB2024B9A70BD4602B080BDC046C5
S1130A001C01002080B500AF024B1B6800209847F2
S1130A10BD4680BD3000002080B500AF024B5B684E
S1130A2001209847BD4680BD3000002080B500AF4E
S1130A30024B9B6802209847BD4680BD30000020D1
S1130A4080B500AF024BDB6803209847BD4680BDEC
S1130A503000002080B500AF024B1B69042098478A
S1130A60BD4680BD3000002080B500AF024B5B69FD
S1130A7005209847BD4680BD3000002080B584B075
S1130A8000AF021CFB1D1A700F23FB18FA1D12780D
S1130A90D2091A700E23FB18FA1D127852091A7023
S1130AA00D4BBB600F23FB181B78002B0FD10F23BA
S1130AB0FB181B789B0010229446BC446344083BFB
S1130AC01A680E23FB181B78DB01D31800E00023FF
S1130AD0181CBD4604B080BD0044004180B582B0FE
S1130AE000AF021CFB1D1A70FB1D1B78181C034B66
S1130AF09847031C181CBD4602B080BD7D0A000047
S1130B0080B582B000AF78607B6800221A707B6881
S1130B1001225A707B6800229A70BD4602B080BDE3
S1130B2080B584B000AF021CFB1D1A70BB1D0A1CEB
S1130B301A70FB1D1B78181C0C4B9847031CFB6098
S1130B40FB1D1B781F22134001229A40131CBB601B
S1130B50BB1D1B78002B03D0FB68BA689A6102E0C6
S1130B60FB68BA685A61BD4604B080BDDD0A000066
S1130B7080B582B000AF3B1D181C4D4B98473B1D00
S1130B8001221A703B1D1320191C4A4B984713204D
S1130B900121494B98473B1D1420191C454B98478C
S1130BA03B1D0020191C434B98473B1D0120191C79
S1130BB0404B98473B1D0220191C3E4B98473B1D58
S1130BC00320191C3B4B98473B1D0420191C394B2F
S1130BD098473B1D0520191C364B98473B1D0620A2
S1130BE0191C344B98473B1D0720191C314B98475F
S1130BF03B1D0820191C2F4B9847002000212E4B29
S1130C009847012000212C4B9847022000212A4BB1
S1130C10984703200021284B984704200021264BA5
S1130C20984705200021244B984706200021224B99
S1130C30984707200021204B9847082000211E4B8D
S1130C4098473B1D00221A703B1D01225A703B1D20
S1130C500920191C174B98473B1D0A20191C154BDA
S1130C6098473B1D0B20191C124B98473B1D0C2029
S1130C70191C104B98473B1D0D20191C0D4B984710
S1130C803B1D0E20191C0B4B98473B1D0F20191CB4
S1130C90084B98473B1D1020191C064B98473B1DD9
S1130CA01120191C034B9847BD4602B080BDC046B5
S1130CB0010B000029110000210B000080B584B055
S1130CC000AF021CFB1D1A700F23FB18FA1D1278CB
S1130CD0D2091A700E23FB18FA1D127852091A70E1
S1130CE00D4BBB600F23FB181B78002B0FD10F2378
S1130CF0FB181B789B0010229446BC446344083BB9
S1130D001A680E23FB181B78DB01D31800E00023BC
S1130D10181CBD4604B080BD0044004180B582B0BB
S1130D2000AF021CFB1D1A70FB1D1B78181C034B23
S1130D309847031C181CBD4602B080BDBD0C0000C2
S1130D4080B584B000AF021CFB1D1A70BB1D0A1CC9
S1130D501A70FB1D1B78181C0C4B9847031CFB6076
S1130D60FB1D1B781F22134001229A40131CBB60F9
S1130D70BB1D1B78002B03D0FB68BA689A6102E0A4
S1130D80FB68BA685A61BD4604B080BD1D0D000001
S1130D9080B582B000AF021CFB1D1A70064BFA1D11
S1130DA01278111C1F220A40012191400A1C1A606A
S1130DB0BD4602B080BDC04600E100E080B584B00D
S1130DC000AF78607B681B68FB60FB68DB7BDBB291
S1130DD01A1C802313405A1E9341DBB2181CBD46D3
S1130DE004B080BD80B582B000AF78607B6800221B
S1130DF01A707B6800229A707B6800229A807B6854
S1130E0000229A717B6800221A817B6800225A7042
S1130E107B6800229A727B680022DA727B68002267
S1130E201A737B6800229A737B6800225A737B686A
S1130E3000221A747B6800225A617B6800229A613E
S1130E407B6800221A777B6800221A627B68002282
S1130E505A627B6800221A857B6800225A857B6867
S1130E6000229A85BD4602B080BDC04680B584B0DC
S1130E7000AF78607B681B68FB60C0467B68181C09
S1130E80074B9847031EF9D1FB681B889BB20222CB
S1130E9013439AB2FB681A80BD4604B080BDC046B5
S1130EA0BD0D000080B582B000AF7860044A7B6855
S1130EB0D3181B78DBB25BB2181CBD4602B080BDF0
S1130EC00400002080B582B000AF78600A1CFB1CCF
S1130ED01A707B681B68181C224B9847031C181C4B
S1130EE0214B9847031C181C204B9847FB1C1B786C
S1130EF0022B0BD17B685B7E10221343DAB27B6832
S1130F005A767B681B6810225A7327E0FB1C1B78F7
S1130F10032B0BD17B685B7E20221343DAB27B6800
S1130F205A767B681B6820225A7317E07B685B7EC5
S1130F30D9B2FB1C1B7801229A40131CDBB20A1C99
S1130F401343DBB2DAB27B685A767B681B68FA1CFF
S1130F501278012191400A1CD2B25A73BD4602B0E4
S1130F6080BDC046CD1F0000A50E0000910D0000FD
S1130F7080B500AF024B1B78181CBD4680BDC0462F
S1130F803C09002080B500AF064A074B101C191C11
S1130F900022064B9847034B181C0021044B98472A
S1130FA0BD4680BD20090020B50F0000411D000092
S1130FB0C50E000080B582B000AF7860134B1B787B
S1130FC00133DAB2114B1A70104B1B78002B03D18A
S1130FD0132000210E4B98470C4B1B78282B03D170
S1130FE0132001210A4B9847084B1B78642B09D125
S1130FF0084B1B78002B05D0064B1B78013BDAB25B
S1131000044B1A70BD4602B080BDC0463C090020A6
S1131010410D00001C09002080B58EB000AF3B1DBF
S1131020181C0F4B98473B1D04229A703B1D01224C
S11310301A703B1DA022D2009A803B1D29227C21DC
S11310409954084A08493B1D101C1A1C074B984721
S1131050044B181C064B9847BD460EB080BDC046D5
S1131060E50D000020090020003C00421D20000086
S11310706D0E000080B582B000AF0F4B1B68002BD3
S113108012D1EFF310837B607B68002B09D172B619
S1131090BFF35F8F094B00221A70094B01221A70AB
S11310A002E0074B00221A70034B1B685A1C024BC8
S11310B01A60BD4602B080BD480000200C0000202C
S11310C04C00002080B500AF0A4B1B685A1E094B28
S11310D01A60084B1B68002B0AD1074B1B78DBB244
S11310E0002B05D0054B01221A70BFF35F8F62B647
S11310F0BD4680BD480000204C0000200C000020AC
S113110080B582B000AF78607B6880221A707B68FB
S113111000225A707B6801229A707B680022DA7080
S1131120BD4602B080BDC04680B584B000AF021C8D
S11311303960FB1D1A700C23FB18181C0F4B9847C1
S11311400C23FB1880221A703B681A780C23FB18B6
S11311505A703B685A780C23FB189A703B689A784B
S11311600C23FB18DA70FB1D1A780C23FB18101CD7
S1131170191C034B9847BD4604B080BD0111000003
S1131180F51C000080B582B000AF78607B68012256
S11311905A607B6800225A707B6806221A707B684A
S11311A000221A727B6800225A72BD4602B080BDCA
S11311B080B582B000AF78607B6803221A707B68C8
S11311C000225A707B6801229A70BD4602B080BD2D
S11311D080B582B000AF78607B6800221A707B68AB
S11311E000225A807B6800229A807B6800229A71D0
S11311F07B680022DA717B6801225A707B680722BF
S11312001A727B683F225A817B6801221A737B68B9
S11312100122DA817B6806221A82BD4602B080BDB3
S113122080B582B000AF021CFB1D1A70034AFB1D7F
S11312301B781372BD4602B080BDC0460004004056
S113124080B582B000AF021CFB1D1A70BB1D0A1CC6
S11312501A70FB1D1B78012B08D0022B0BD0002B1E
S11312600ED10B4ABB1D1B7853720BE0084ABB1D01
S11312701B78937206E0064ABB1D1B78D37201E00B
S1131280172300E00023181CBD4602B080BDC046F1
S11312900004004080B582B000AF021CFB1D1A7030
S11312A0084BFA1D12780F210A40D2B20F210A40CE
S11312B0520059681E2081430A435A60BD4602B059
S11312C080BDC0460040004180B500AF024B9B6921
S11312D0181CBD4680BDC0460020004180B500AF4B
S11312E0C046034BDB6810221340FAD0BD4680BDD4
S11312F00008004080B500AF0C4A0D4B1B689BB240
S113130080218B439BB293840A4B9847074A084B2E
S11313109B68D362054A064B5B689362034A044B9D
S11313201B689BB29384BD4680BDC0460008004044
S113133050000020DD12000080B584B000AF78605A
S11313401A4B1B6AFB607B681B781A1C032313402F
S1131350DAB20D23FB1803210A40101C1A7803216A
S11313608A43111C021C0A431A707B689A780C2366
S1131370FB18D0011A787F210A40111C021C0A4371
S11313801A707B685A780C23FB1801210A409001DB
S11313901A7840218A43111C021C0A431A70034B19
S11313A0FA681A62BD4604B080BDC0460008004019
S11313B080B584B000AF7860394B9847031CFB605C
S11313C0FA68F0231B011340FB60FB681B0AFB60F7
S11313D0FB68022B0FD87B681B7A1B021A1CF823AC
S11313E05B011A407B685B89191CFF230B401A437D
S11313F02C4B5A600BE07B681B7A9B021B041A0C73
S11314007B685B899B059B0D1A43264B5A607B685E
S11314109A797B68DB791343DBB21A1C7B685B889F
S113142013437A6892881A437B685B78DB011A431A
S11314301C4B1A607B681B78042B2ED1FB68022B93
S113144014D87B681B7B1B061A1CF8235B051A4007
S11314507B68DB891B04191CFF231B040B4013430B
S11314607A68128A1A430F4B9A600FE07B681B7BE1
S11314709B061A1C7B68DB891B04191C0A4B0B4056
S113148013437A68128A1A43064B9A60054B1B6809
S11314907A6812781A43034B1A60BD4604B080BDC3
S11314A0C9120000500000200000FF0380B582B084
S11314B000AF021CFB1D1A70FB1D1B78072B30D8D4
S11314C09A001B4BD3181B689F461A4B194A126A81
S11314D002210A431A62002326E0164B154A926938
S11314E002210A439A611EE0124A124B1B8A9BB2E4
S11314F002210B439BB2138215E00E4A0D4B9B8ACB
S11315009BB202210B439BB293820CE00A4B1B68F3
S113151002221A43084B1A60084B984703E0002341
S113152002E0172300E00023181CBD4602B080BD72
S1131530782500000008004050000020F51200004B
S113154080B584B000AF021CFB1D1A700023FB6041
S1131550FB1D1B78072B15D89A00124BD3181B6858
S11315609F460823FB600FE00423FB600CE001238B
S1131570FB6009E00223FB6006E01023FB6003E04C
S113158001230AE0002308E0074BDB68FA681A40ED
S1131590FB68D31A5A425341DBB2181CBD4604B04F
S11315A080BDC046982500000008004080B582B088
S11315B000AF3B1C02221A7000237B6009E07B68A9
S11315C0DAB23B1C101C191C054B98477B6801338D
S11315D07B607B681B2BF2D9BD4602B080BDC04640
S11315E0651A000080B5A4B000AF7B4BC222D200C4
S11315F09A600020794B9847794B98477423FB18DD
S1131600181C784B98477423FB1800221A70742313
S1131610FB1800225A70744B9847031C8822BA188E
S113162013608823FB181A68F0231B0113408822D7
S1131630BA1813608823FB181B681B0A8822BA187F
S113164013608823FB181B68022B15D9674B1B6892
S11316509B0E8C22BA1813608C23FB181B683F2B3B
S113166003D11F238C22BA1813608C23FB181B6828
S1131670DAB27423FB181A727423FB183F225A81BE
S11316807423FB1800225A807423FB180022DA7199
S11316907423FB1800229A717423FB1800229A8089
S11316A07423FB1807221A737423FB183F22DA8170
S11316B07423FB18181C4E4B98477023FB18181CF6
S11316C04C4B98477023FB1800221A707023FB18A8
S11316D001229A707023FB1800225A707023FB18A1
S11316E0181C454B98470620444B9847444B984751
S11316F05823FB18181C434B98475823FB18062201
S11317001A705823FB1801225A605823FB18002230
S11317101A725823FB1800225A725823FB1801200E
S1131720191C394B98470120384B98473423FB1830
S1131730181C344B98473423FB1806221A703423A0
S1131740FB18FF225A603423FB1800221A72342338
S1131750FB1800225A723423FB180420191C2A4B4C
S113176098470420294B98470720244B9847C046A4
S11317700720274B9847031C1A1C01235340DBB254
S1131780002BF5D10020234B984700200021224B49
S1131790984701200021204B9847022000211E4B2E
S11317A098473B1C181C174B98473B1C06221A7081
S11317B03B1C01225A603B1C00221A723B1C002273
S11317C05A723B1C0020191C0F4B984700200F4BEA
S11317D09847BD4624B080BD000800409512000023
S11317E0AD150000D1110000C91200002460800072
S11317F0B1130000B111000039130000AD14000052
S1131800BD18000085110000ED1800000D1A00003D
S113181041150000211200004112000080B582B081
S113182000AF021C3960FB1D1A70FB1D1B78012BD5
S11318300AD0022B0FD0002B14D10E4B0D4A916904
S11318403A680A439A610FE00A4B0A4AD1693A6836
S11318500A43DA6108E0074B064A116A3A680A4308
S11318601A6201E0172300E00023181CBD4602B0F1
S113187080BDC0460004004080B500AF014B9847CE
S1131880BD4680BD7510000080B500AF014B984780
S1131890BD4680BDC510000080B500AF064B5B7827
S11318A0DBB2DBB25BB2002B01DA012300E00023E0
S11318B0181CBD4680BDC046000C004080B500AF7A
S11318C000200821074B9847074B01221A70C04695
S11318D0054B1B78DBB21A1C01231340F8D1BD461B
S11318E080BDC0461D180000000C004080B586B0C5
S11318F000AF021C3960FB1D1A70FB1D1B787B6155
S1131900FB1D1B783B613B681B781B021A1C7B691F
S113191013437B613B685B78002B04D07B69802296
S1131920D20213437B613B685B7A002B04D07B6952
S11319308022120313437B613B685B68012B2CD923
S11319403B685A683B685B68013B13401AD100232B
S1131950FB600223BB6005E0FB680133FB60BB68EE
S11319605B00BB603B685A68BB689A42F4D8FB686A
S11319701B023A6913433B617B6980225203134380
S11319807B610AE03B685B681B023A6913433B6175
S11319907B698022920213437B613B681B7A002B94
S11319A004D07B698022920313437B61C046124BAF
S11319B09847031EFBD1114B9847114AFB1D1B7816
S11319C01370C0460C4B9847031EFBD10D4B3A696C
S11319D09A60C046084B9847031EFBD1094B094A3D
S11319E051688022520211407A690A435A60064BB8
S11319F09847BD4606B080BD9918000079180000CC
S1131A00080C0040000C00408918000080B582B02A
S1131A1000AF021CFB1D1A70C0460D4B9847031EF5
S1131A20FBD10C4B98470C4AFB1D1B781370C04626
S1131A30074B9847031EFBD1084B084A5268802184
S1131A4049020A435A60064B9847BD4602B080BD1E
S1131A509918000079180000040C0040000C0040A4
S1131A608918000080B584B000AF021C3960FB1DEA
S1131A701A70FB1D1B78FB603B681B781B021A1C49
S1131A80FB681343FB60FB1D1B78181C044B984731
S1131A90044BFA6892B25A80BD4604B080BDC04679
S1131AA0ED1A0000000C004080B582B000AF021CAB
S1131AB0FB1D1A70094B9847094AFB1D1B781370CC
S1131AC00849084B5B889BB28022D20113439BB226
S1131AD04B80054B9847BD4602B080BD7918000085
S1131AE0020C0040000C00408918000080B584B04E
S1131AF000AF021CFB1D1A701D4B98471D4AFB1DAD
S1131B001B7813701C4B5B889BB21B0A1A1C0F2397
S1131B101340DBB2FB60184B5A8818490A405A80BC
S1131B20154A154B5B889BB215490B409BB25380F9
S1131B30C046114B5B889BB21A1C8023DB01134007
S1131B40F7D10D4BFA68D2B2111C0F220A40D2B25F
S1131B50111C0F220A4010025A8808490A40111C1D
S1131B60021C0A435A80074B9847BD4604B080BD07
S1131B7079180000020C0040000C0040FFF0FFFF49
S1131B80FFBFFFFF8918000080B584B000AF021CBE
S1131B90FB1D1A700F23FB18FA1D1278D2091A7054
S1131BA00E23FB18FA1D127852091A700D4BBB60F4
S1131BB00F23FB181B78002B0FD10F23FB181B7866
S1131BC09B0010229446BC446344083B1A680E23CD
S1131BD0FB181B78DB01D31800E00023181CBD465A
S1131BE004B080BD0044004180B588B000AFF86007
S1131BF0B9607A600023FB617B68DB780122534083
S1131C00DBB2002B35D07B681B78802B0BD0FB69B3
S1131C10802252021343FB617B681B781B061A1C4B
S1131C20FB691343FB617B685B78002B03D07B6803
S1131C305B78022B10D1FB69802292021343FB6173
S1131C407B689B78002B04D0FB698022D20213436B
S1131C50FB61FB68BA685A607B685B78012B03D030
S1131C607B685B78022B07D1FB69214A1340FB6137
S1131C7002E0FB68BA685A60BB681B041B0CBB61BA
S1131C80BB681B0C7B61BA69FB691343A022D205B4
S1131C901A43FB689A627A69FB691343D0221206DD
S1131CA01A43FB689A627B68DB7801225340DBB2FB
S1131CB0002B1AD0FA698023DB0213400AD07B6818
S1131CC09B78012B03D1FB68BA689A6102E0FB6838
S1131CD0BA685A617B685B78012B03D07B685B78B8
S1131CE0022B02D1FB68BA689A60BD4608B080BD79
S1131CF0FFFFFBFF80B584B000AF021C3960FB1D01
S1131D001A70FB1D1B78181C0B4B9847031CFB60B7
S1131D10FB1D1B781F22134001229A40131CBB6039
S1131D20F968BA683B68081C111C1A1C034B9847D5
S1131D30BD4604B080BDC046891B0000E91B0000FD
S1131D4080B584B000AFF860B960FB1D1A70FB1D4C
S1131D501A78FB6802329200B968D150FB1D1B78D7
S1131D60022B07D1FB681B7E10221343DAB2FB68F7
S1131D701A761AE0FB1D1B78032B07D1FB681B7E28
S1131D8020221343DAB2FB681A760EE0FB681B7E4E
S1131D90D9B2FB1D1B7801229A40131CDBB20A1C2A
S1131DA01343DBB2DAB2FB681A760023181CBD4673
S1131DB004B080BD80B500AF0020024B9847BD46FB
S1131DC080BDC046551E000080B500AF0120024B07
S1131DD09847BD4680BDC046551E000080B500AF83
S1131DE00220024B9847BD4680BDC046551E0000E8
S1131DF080B500AF0320024B9847BD4680BDC04666
S1131E00551E000080B500AF0420024B9847BD4624
S1131E1080BDC046551E000080B500AF0520024BB2
S1131E209847BD4680BDC046551E000080B500AF32
S1131E300620024B9847BD4680BDC046551E000093
S1131E4080B500AF0720024B9847BD4680BDC04611
S1131E50551E000080B584B000AF021CFB1D1A7033
S1131E60FB1D1A78284B9200D358FB60FB681B6853
S1131E709B7BDBB2FA68127E1340DAB2FB68597EB0
S1131E800B23FB180A401A700B23FB181B78012242
S1131E90134008D0FB689B68FA68101C9847FB68DD
S1131EA01B6801229A730B23FB181B780222134030
S1131EB008D0FB68DB68FA68101C9847FB681B684D
S1131EC002229A730B23FB181B781022134008D0AC
S1131ED0FB681B69FA68101C9847FB681B68102292
S1131EE09A730B23FB181B782022134008D0FB683D
S1131EF05B69FA68101C9847FB681B6820229A7378
S1131F00BD4604B080BDC0464009002080B582B003
S1131F1000AF78607B6800221A70BD4602B080BDB5
S1131F2080B582B000AF021C3960FB1D1A70FB1D26
S1131F301B78012B0AD0022B0FD0002B14D10E4B8F
S1131F400D4A91693A680A439A610FE00A4B0A4ABA
S1131F50D1693A680A43DA6108E0074B064A116A14
S1131F603A680A431A6201E0172300E00023181CB0
S1131F70BD4602B080BDC0460004004080B582B0BA
S1131F8000AF78607B6880221A707B6800225A70E8
S1131F907B6801229A707B680022DA70BD4602B029
S1131FA080BDC04680B584B000AF78607B681B6894
S1131FB0FB60FB68DB7BDBB21A1C802313405A1ED8
S1131FC09341DBB2181CBD4604B080BD90B58DB002
S1131FD000AF78600C23FB180F4A13CA13C313CA4B
S1131FE013C303CA03C30023FB620DE00C23FB18D5
S1131FF0FA6A9200D2587B689A4202D1FB6ADBB239
S113200006E0FB6A0133FB62FB6A072BEED900236F
S1132010181CBD460DB090BDB825000090B58FB01A
S113202000AFF860B9607A603623FB1800221A808A
S11320303523FB1800221A703423FB1800221A706F
S11320403123FC18BB68181CC04B9847031C237031
S11320502823FA18BE4B111C1A1C0823081C111C37
S11320601A1CBC4B98471823FA18BB4B111C1A1C9A
S11320701023081C111C1A1CB64B98473323FB1859
S113208000221A700EE03323FB181A78FB68023220
S113209092000021D1503323FB181A783323FB1804
S11320A001321A703323FB181B78032BEBD9FB681E
S11320B000221A76FB6800225A763123FB181A781C
S11320C0A64B9200F968D150FB68BA681A607B6825
S11320D09B78082B07D13123FB181B78012213406E
S11320E001D01723C3E17B689A78FB681A71BB6837
S11320F01B889BB21A1C0123134001D00523B6E1AF
S1132100BB68DB7BDBB21A1C1023134001D01C23F9
S1132110ADE1BB681B889BB21A1C0223134001D09B
S11321201C23A4E17B681B7C002B17D01423FB1811
S1132130181C8B4B98477B689B69DAB21423FB18F5
S11321401A701423FB1801225A707B685B69DAB297
S11321501423FB18101C191C824B98477B681B7FA7
S1132160002B17D01423FB18181C7D4B98477B6851
S11321705B6ADAB21423FB181A701423FB180122C9
S11321805A707B681B6ADAB21423FB18101C191CE2
S1132190744B98473123FB181A781823FB18520004
S11321A0D35A0220191C704B98477B689B78082BE4
S11321B00BD13123FB181B785A1C1823FB1852002F
S11321C0D35A0220191C684B98471023FB18181C7B
S11321D0664B98477B681A781023FB181A703123D2
S11321E0FB181B782822BA18D25C1023FB18101C89
S11321F0191C5F4B98473123FB181B782822BA1807
S1132200D35C181C5B4B98477B689A787B689B79F6
S11322101343DBB29AB27B681B89134399B27B6880
S11322209A883623FB180A431A807B685B78002B54
S113223008D03623FB183622BA18128880210901E7
S11322400A431A80C046FB68181C4B4B9847031E70
S1132250F9D1BB683622BA1812881A807B685B7B76
S1132260002B03D03523FB1804221A707B689B7B58
S1132270002B07D03523FB183522BA181278012118
S11322800A431A70C046FB68181C3B4B9847031E50
S1132290F9D1BB68FF221A713523FB181B78002B78
S11322A00BD0C046FB68181C334B9847031EF9D16A
S11322B0BB683522BA1812785A713423FB187A682D
S11322C0927A1A703223FB1800221A701CE032230F
S11322D0FB181B787A68D318DB7A002B0DD03223D5
S11322E0FB181B7810229A40131CD9B23423FB1814
S11322F03422BA1812780A431A703223FB181A7857
S11323003223FB1801321A703223FB181B78012B7D
S1132310DDD9C046FB68181C174B9847031EF9D13A
S1132320BB683422BA1812789A71C046FB68181C2C
S1132330114B9847031EF9D1FB681B79042B1DD060
S1132340082B00D16FE0002B4AD08FE0CD1F000096
S1132350D825000065250000E02500004009002084
S11323607D1F0000F51C0000211F00000D1F000050
S1132370651A0000A91A0000A51F0000C046FB68EA
S1132380181C3D4B9847031EF9D17B6828229A5CA0
S1132390BB681A74C046FB68181C374B9847031E69
S11323A0F9D17B6829229A5CBB681A75C046FB6820
S11323B0181C314B9847031EF9D17B682A229A5C7A
S11323C0BB681A76C046FB68181C2B4B9847031E43
S11323D0F9D17B682B229A5CBB685A76002346E0CD
S11323E0C046FB68181C244B9847031EF9D17B6830
S11323F01A8DBB681A82C046FB68181C1E4B98478E
S1132400031EF9D17B685A8DBB681A83C046FB68EA
S1132410181C194B9847031EF9D17B689A8DBB6829
S11324205A83002323E0C046FB68181C124B9847CC
S1132430031EF9D17B689A6ABB681A61C046FB68BF
S1132440181C0D4B9847031EF9D17B68DA6ABB68E8
S11324509A61C046FB68181C074B9847031EF9D1C4
S11324607B681A6BBB68DA61002300E01723181C31
S1132470BD460FB090BDC046A51F000080B582B018
S113248000AF194B7B60194B3B607A683B689A42FA
S11324900CD007E03B681A1D3A607A68111D796018
S11324A012681A603A68124B9A42F3D3114B3B609C
S11324B004E03B681A1D3A6000221A603A680E4B29
S11324C09A42F6D30D4B7B600D4B7A68FF218A4309
S11324D09A600C4B5A6880210A435A600A4B984709
S11324E00A4B9847FEE7C046102600000000002073
S11324F010000020100000206009002000000000EF
S113250000ED00E00040004119250000DD08000056
S113251080B500AFFEE7C0460E4B70B500251E1C0B
S11325200D4CE41AA410A54204D0AB00F35898470C
S11325300135F8E700F05CF8084B00251E1C084C38
S1132540E41AA410A54204D0AB00F358984701350F
S1132550F8E770BDFC250000FC250000FC25000008
S113256000260000002310B5934203D0CC5CC45471
S11325700133F9E710BD0000E81400002215000043
S1132580221500001E150000DA140000FA140000E1
S1132590CA1400000C1500006E150000841500001C
S11325A084150000801500006815000074150000F3
S11325B0621500007A150000002000420024004249
S11325C000280042002C0042003000420034004247
S11325D000380042003C004213131414151516165B
S11325E000010002000400080010002000400080E8
S11325F0F8B5C046F8BC08BC9E467047CD00000044
S1132600F8B5C046F8BC08BC9E467047A50000005B
S1132610020000000D0E0F1011121314010000002F
S903247D5B
