S00A000046502E7372656384
S1130000082A0020391B0000351B0000351B0000A6
S113001000000000000000000000000000000000DC
S1130020000000000000000000000000351B00007C
S11300300000000000000000351B0000351B00001C
S1130040351B0000351B0000351B0000351B00006C
S1130050351B0000351B0000351B0000F9080000AB
S113006009090000190900002909000039090000E4
S113007049090000551800006518000075180000B3
S11300808518000095180000A5180000B518000098
S1130090C5180000351B0000351B0000351B00008F
S11300A0351B000010B5064C2378002B07D1054BF7
S11300B0002B02D0044800E000BF0123237010BDD0
S11300C00400002000000000D01D000008B5084B0B
S11300D0002B03D00748084900E000BF0748036825
S11300E0002B00D108BD064B002BFBD09847F9E745
S11300F000000000D01D000008000020D01D0000FA
S1130100000000000023F7B5012701AC084EA370DE
S1130110211C0233232067702370B0470823054D48
S113012022202B60211C2770B04704232B60F7BDCD
S1130130A90D000098440041074B082207490028F4
S113014001D01A6000E00A60042001221860044B08
S11301501A6008601A607047984400419444004152
S11301605C0000200A4B30B51A1C04240821983284
S11301701160181C146001220649A0300A6000684E
S1130180054DC0081040943328701C600A6030BDCF
S1130190004400415C00002060000020084B10B5C2
S11301A01A1C082404200121983214601060054AA6
S11301B0943311601C6011601860116010BDC0465A
S11301C0004400415C000020074B08201A1C10B5B5
S11301D00121042494321060044A983311601C6095
S11301E011601860116010BD004400415C000020E3
S11301F038B5051C08246BB2074A0120002B00DB2C
S11302000020013C6D00E4B29047EDB2002CF2D125
S1130210024B984738BDC046390100006501000013
S113022070B5061C082500240A4B98476400E4B204
S1130230013D0443EDB2E4B2002DF5D1064B281C78
S1130240002E00D1012098470122044B201C1A6083
S113025070BDC04665010000390100005C0000204B
S1130260F7B52E4B98472E4EB04703202D4CA04790
S113027000272D4D0120A8472C4B0195D855013757
S11302801D1C3E2FF5D1019B002098472B1C284FA5
S11302903E331870B847002300971A1CFF212232FE
S11302A00133A954182BF8D1B0470220A04780206D
S11302B0A0470027E85D0137A0473F2FFAD1009BF4
S11302C09847B0470A20A0478020A0470027E85D50
S11302D00137A0473F2FFAD1009B9847B0472A2007
S11302E0A0478020A0470027E85D0137A0473F2FA3
S11302F0FAD1009B9847B0470320A047002401206F
S1130300019B9847285501343E2CF8D1019B0020CD
S113031098473E35009B28709847F7BD05010000BB
S11303209D010000F101000021020000B000002046
S1130330C9010000F7B5384B9B78002B2ED06B46D3
S1130340DC1D201C354B98477F2322781340402B1B
S113035001D9002323702378F72B1FD0FA2B02D066
S1130360002B09D11AE0002300212D4A9A180133E9
S11303701170402BF8D111E05AB2002A07DA80221A
S11303805340274A2370D318013B002205E03F2B3A
S113039004D8234AD3186322013B1A70214A224C01
S11303A01378251C013313702378204F204E002B23
S11303B011D1204B9847204C2078B8478A20B84761
S11303C02378022B02D1164A1C4B1A6001232B708E
S11303D0002333701EE0194D2B681878B847337822
S11303E02A680133DBB2013233702A60182B11D131
S11303F0134B9847002323700F4B1A780A2A05D011
S11304002A2A05D0022A03D1083202E02A2200E077
S113041002221A70F7BDC046A8010020F1070000AF
S1130420620000206100002021000020F101000092
S1130430200000209D01000000000020AC000020EE
S1130440C901000070B5304B9847304B9847304B8A
S11304501B78304B9847304B984701222F4B1A702A
S1130460BFF35F8F62B680232D4A5B030020151C07
S11304701C1C2C49936108702B4B98470028FBD116
S11304802A4B6C6198472A4B98472A4B98472A4B2A
S113049098472A4B98472A4C231C30331A78251C3A
S11304A0284B002A08D11A78002A03D126490A6861
S11304B001320A6001221A701A78002AE7D0002259
S11304C01A70224B224E9B78934203D0301C214B4E
S11304D0984701E0F72333700122311C1E4B281C7E
S11304E098471E4B984723681D4A1B8BDBB2137039
S11304F0F72B07D0002B05D01A4B9B780E2B01D875
S1130500194B9847194BC1E785130000790B00007C
S113051038040040D90C00008D0C000001000020BC
S113052000440041E4090020810C00000D07000094
S11305304108000061020000350300008906000044
S1130540140100202300002048010020900900200D
S1130550500100201908000071090000450D000039
S11305604E010020A8010020C9070000790D0000F9
S113057038B5094D2B5C0A2B04D00B2B0AD0013360
S11305802B5407E0041C0130044BC0B298472B5D88
S113059001332B5538BDC04654010020A507000087
S11305A038B5094D2B5C002B0CD0012B08D1041C51
S11305B07F38064BC0B298472B5D013B2B5501E0B9
S11305C0013B2B5438BDC04654010020A507000050
S11305D070B52A4DC4002B6A061CE0B29B0501D4F9
S11305E0274B00E0274B98472B6A601CC0B25B0581
S11305F001D4234B00E0234B98472B6AA01CC0B2C4
S11306001B0501D41E4B00E01E4B98472B6AE01CCF
S1130610C0B2DB0401D41A4B00E01A4B98472B6A92
S1130620201DC0B29B0401D4154B00E0154B984724
S11306302B6A601DC0B25B0401D4114B00E0114B66
S113064098472B6AA01DC0B21B0401D40C4B00E0D8
S11306500C4B98472B6A0734E0B2DB0301D4084BF8
S113066000E0084B9847082E07D12B6A48209B03CB
S113067001D4034B00E0034B984770BD0044004194
S113068071050000A105000010B5174C174B207828
S1130690984723780133DBB2082B00D90023237059
S11306A0207808281ED8124B01F080FA050A0C0E97
S11306B0101214161800802252005A61FF3A10E0FA
S11306C001220CE002220AE0042208E0082206E0EB
S11306D0102204E0202202E0402200E080225A613D
S11306E092189A6110BDC0464C010020D10500004B
S11306F0004400410122014B1A707047220000207F
S11307000122014B1A7070472300002070B58EB08F
S11307106B4600250126053301ACDD77291C0C222C
S1130720164B06A825746574A6740295039598471C
S113073080235B02E360124B25706362114B124D00
S1130740A362124B221CE362114B12492363281C3F
S1130750114B267798472C68104B201C98471F2371
S1130760184086400E4B1E602A68138ADB0BFCD1AE
S113077002222368134323600EB070BD431D0000A2
S113078002002C0002002D001401002002002E00A3
S113079002002F0000180042C50F0000D10800001D
S11307A000E100E0074A93780E2B0AD81378D11899
S11307B0C8700F21013350780B4013701B1A0B4083
S11307C09370704790090020074A0848137800780E
S11307D0D118C8700F21507801330B4013701B1AC5
S11307E00B4093707047C046A80100204E010020C2
S11307F0084B9A78002A0CD00F215A789A18D2788C
S113080002705A78187801320A405A70821A1140DC
S113081099707047A8010020084B9A78002A0CD0E0
S11308200F215A789A18D27802705A7818780132BF
S11308300A405A70821A114099707047900900203A
S1130840F8B50D4E0125341C301C2F340B4F0C49C8
S11308500022B84723782A1C2B43301C09492370F3
S1130860B84702222378134300222370064B1D70DD
S1130870064B1A70F8BDC046140100205909000047
S113088001070000F50600002300002022000020DC
S11308907047000070B50A4A0A4D1378141C002BE7
S11308A00AD10026084AEA50084A9A180433166006
S11308B0182BF6D1173B23708000295070BDC04619
S11308C0240000202800002091080000A80900202E
S11308D013B5041C054906226846054B9847201C9D
S11308E0044B98476B46185616BDC046521D00006F
S11308F0311D0000950F000008B5024B00201B6855
S1130900984708BD2800002008B5024B01205B6809
S1130910984708BD2800002008B5024B02209B68B8
S1130920984708BD2800002008B5024B0320DB6867
S1130930984708BD2800002008B5024B04201B6915
S1130940984708BD2800002008B5024B05205B69C4
S1130950984708BD28000020931C9B00C3185960C9
S1130960012393401A1C2E3003781A4302707047F7
S113097030B5041C1720002A1CD0251C30352B78D8
S1130980D8B2052816D00523A285616262852B7032
S11309906279043B23722368002A02D102329A73DB
S11309A05A73E079002803D0052200205A7301E02D
S11309B001225A7330BD0000F8B56D4B8000C45855
S11309C0231C221C2E332F3225681B781678AF7B0C
S11309D01E406B7B1F40FB073CD56279012A0DD179
S11309E0237A002B0AD1634B1B882B83638D013B35
S11309F09BB26385638D002B00D12A736379012B2D
S1130A0001D0002B26D1237A002B23D0606A2168E1
S1130A100378DAB2431C6362A379012B01D093B249
S1130A2004E0437802301B0213436062DB05DB0DF4
S1130A300B83A38D013B9BB2A385A38D002B09D10E
S1130A4001332B73237A012B04D1E379002B01D1D9
S1130A5002336B7304210F425ED02B8A0B4215D0F4
S1130A60237A012B0CD0231C1E2230331A7003234B
S1130A70237202332B73330702D5201CA3699847D2
S1130A8004222B8B2B8A13432B8245E0227A236882
S1130A90D2B21B8B012A12D1638D013B9BB26385B9
S1130AA0638D9BB2002B37D12973211C30310B701D
S1130AB00333237216422FD0201CE3682BE0DB059E
S1130AC0216ADB0DDAB20A70226A511C2162A17913
S1130AD0012904D11B0A5370236A01332362238D35
S1130AE0013B9BB22385238D9BB2002B14D1221C86
S1130AF03032137004332B73227A022A04D11E423B
S1130B000AD0201C636906E0237A002B04D1B307C2
S1130B1002D5201C236998470222174227D0637903
S1130B20002B0ED107212973AA7301322272221CD1
S1130B303032A38523851370F30602D5201CE369A4
S1130B4098476379012B12D1237ADBB2012B0ED1A2
S1130B50E279002A0BD10221297301312172211C6F
S1130B6030310A701E4202D0E368201C9847F8BD59
S1130B70A8090020C0090020F7B50023012701AC13
S1130B802C4D211C13206770A3702770A847802365
S1130B90294E1B03B361211C1420A847211C0020EB
S1130BA0A847381C211CA847211C0220A847211C47
S1130BB00320A847211C0420A847211C0520A8477E
S1130BC0211C0620A847211C0720A847211C082017
S1130BD0A847022377617361DB187361043373617F
S1130BE0083373611033736120337361403373616D
S1130BF0803373610023211C092023706770A84788
S1130C00211C0A20A847211C0B20A847211C0C20CA
S1130C10A847211C0D20A847211C0E20A847211CF1
S1130C200F20A847211C1020A8471120211CA847E9
S1130C30F7BDC046A90D0000004400410D4A1378D9
S1130C400133DBB21370002B04D180220A4B120350
S1130C505A610EE0282B04D18022074B12039A61BB
S1130C6007E0642B05D1054A1378002B01D0013B22
S1130C7013707047E409002000440041C4090020B7
S1130C80014B18787047C046E409002010B50C4C9D
S1130C900C490022201C0C4B984720680B4B9847AA
S1130CA00B4B1A5C1F2313400122111C99400B1C8F
S1130CB008490B60637E1343637623685A7310BD3F
S1130CC0C80900203D0C0000D1170000D518000011
S1130CD0581D000000E100E0002310B58EB001AA09
S1130CE013859371138153709372D3721373937337
S1130CF0537313745361936113771362536253856F
S1130D00938504339370033B1370A023DB0093801B
S1130D102D237C21084C6B441970201C074B084977
S1130D2098472368DA7BD209FCD102211A880A4346
S1130D301A800EB010BDC046C80900200919000071
S1130D40003C0042094B196800290BD1EFF31080D5
S1130D50074A002805D172B6BFF35F8F05490870B2
S1130D60012111701A6801321A6070474000002096
S1130D704400002001000020084B1A68013A1A6060
S1130D801B68002B09D1064B1B78002B05D00122D0
S1130D90044B1A70BFF35F8F62B6704740000020A7
S1130DA0440000200100002007B5802201AB1A7026
S1130DB00A785A704A789A708A78191CDA70014B4A
S1130DC0984707BDA117000010B54908041C00236B
S1130DD040208C420BD8581C091B80B2A14201D37D
S1130DE0031CF8E74020FF2B01D80020138010BD1E
S1130DF037B50D4B041C1A781D1C002A01D000299C
S1130E000CD001A90C20094B0C7098470C20084BFE
S1130E10984701236C702B70002004E05B78081C59
S1130E20A34200D01D203EBD45000020CD16000089
S1130E30491600003A4A031C00B5081C93422BD003
S1130E4006D8384A93420DD0374A934217D057E018
S1130E50364A93423AD0364A934244D0354A934272
S1130E604ED126E00023032957D800F09FFE4B0201
S1130E700406314B51E0314B4FE0314B4DE0002340
S1130E8003294AD800F092FE400204062D4B44E0A8
S1130E902D4B42E02D4B40E0002303293DD800F0C8
S1130EA085FE350204062A4B37E02A4B35E02A4BEF
S1130EB033E00023032930D800F078FE2A02040628
S1130EC0264B2AE0264B28E0264B26E00023032964
S1130ED023D800F06BFE1F020406234B1DE0234BB6
S1130EE01BE0234B19E00023032916D800F05EFE13
S1130EF0140204061F4B10E01F4B0EE01F4B0CE0C6
S1130F0000230AE01E4B08E0032306E01D4B04E027
S1130F101D4B02E01D4B00E01D4B181C00BDC046DC
S1130F200010004200080042000C00420018004279
S1130F30001C0042001400420300050003000600E8
S1130F40030007000300010003001E0003001F004C
S1130F500300090003000A0003000B000300110052
S1130F60030012000300130003000D0003000E0031
S1130F7003000F000300170003001800030019000A
S1130F8003000400030008000300100003000C0029
S1130F900300160070B586B06946094B6A4670CBEB
S1130FA070C170CB70C1002399005158884201D19F
S1130FB0D8B203E00133062BF6D1002006B070BD91
S1130FC0601D0000F0B501600C6889B01C23A40703
S1130FD000D5CDE001260B6833400093009C052327
S1130FE0002C00D0C4E0644B071C081C141C0D1C0E
S1130FF09847811C8E40614A0D30136A3343136253
S1131000631C0193DB7F02AAC6B21370111C301C4F
S11310105B4B9847301C5B4B9847019B0099D87FEA
S1131020594B9847544A23780092012B03D10C2240
S11310302B6813432B602378002B03D108222B68E1
S113104013432B603B1C00252E33BD85FD603D857D
S11310503D617D61BD61FD617D623D621D705D70BC
S11310609D70032338683B72009B3D719847061CB2
S1131070464B47499847474BB600F750802302AA8E
S113108013710123937123783E685571D571AB4276
S113109000D193710025636A0493A36A0593E36AFC
S11310A00693236B0793AB0004AA9858E9B200286F
S11310B002D1301C384B9847431C06D002AB187140
S11310C0000CC0B203A9354B98470135042DEAD171
S11310D023787B71237CBB71A37CFB7102AB9D1CC9
S11310E000232B802378012B10D1009B386898476C
S11310F00D302B4BC0B298472A4B011C2A1C606947
S113110098471723002833D12B78B3722378002B08
S11311100ED1E17EA37E7069090419430143656918
S1131120228B7161237F002B04D040231A4301E0FA
S11311300022151C6168A3680B43E1680B43217C02
S11311402B430A43617C002903D117498978890715
S113115001D580210B43A17C002902D08021890282
S11311600A4331680B43336073681A430023726087
S1131170181C09B0F0BDC046950F000000040040E3
S1131180CD16000049160000F10D0000950800007E
S1131190B9090000A8090020350E0000A1170000BD
S11311A0E9160000C90D00000020004102210B4B8C
S11311B01A680A431A601A687E318A43084992B24F
S11311C08A84C868064AC006FBD599680020D162A3
S11311D0596891621B689BB2938470474800002051
S11311E00008004010B5072805D800F0DFFC06040D
S11311F0042727110914002024E0134BD86821E0A8
S1131200124B186A124B8005800FC340181C19E05A
S11312100D4B186916E002230B4C2068184011D0BE
S11312200A4BDB68DB06FBD523685B0709D5094B52
S113123000209847A3689BB2584303E08020000233
S113124000E0054810BDC0464800002000080040EA
S113125000127A00E9160000006CDC0270B501216E
S11312608678057842784020094C0A40236A920126
S11312708343134380223140C90193430B437D3A96
S1131280044915402D020B402B43236270BDC04618
S113129000080040FFFCFFFF70B5214B027A9C69F7
S11312A020492405240F4389022C07D8F82512026B
S11312B06D012A40DBB21A434A6005E092069B05A1
S11312C0120C9B0D13434B604388858882791D4320
S11312D0C379134342782B43D20113430B60037841
S11312E0042B1CD1057BC289068A022C0CD8F82356
S11312F02D065B05FF201D402B1C12040004024038
S1131300134333438B6006E00748AD0612043543AC
S1131310024015438D6004220B6813430B6070BDBB
S113132000200041480000200000FF0308B5072802
S113133005D800F03BFC120404210C18061E1720EB
S11313401BE002210D4A136A0B43136214E00221CD
S11313500A4A93690B4393610EE00221074A138AF8
S11313600B43138208E00221044A938A0B439382BD
S113137002E0034B984700E0002008BD000800404D
S1131380AD110000C2231E20F0B53C4ADB003C49ED
S113139093604B68002583434B6002238DB007ACF8
S11313A023700192E8B2211C364B013598471C2D5D
S11313B0F8D1072200232272383262813E3A237028
S11313C06380A380A371E3712273E28163700532A9
S11313D02D4B22829B691B051B0F022B06D92B4B1D
S11313E01B689B0E3F2B00D1203B23720723002553
S11313F0012623733833E381201C254B984703A827
S1131400244B8670457005709847234B06209847F7
S1131410224B9847062304AC301C211C204F237018
S11314206660657025726572B847301C1D4EB04702
S113143006232370FF230420211C6360657025723A
S11314406572B8470420B047174B9847019BDB6887
S1131450DB06FBD50025154B281C1D725D729D72A1
S1131460DD720123211C63600533237065702572CE
S11314706572B847281CB0470DB0F0BD00080040A5
S113148000400041CD16000000200041246080008F
S1131490991200005D1200002D130000BD1400001D
S11314A0DD14000081150000AD11000000040040AF
S11314B0014B5878C0097047000C00400821054AC8
S11314C093690B4393610122034B1A701A78D20774
S11314D0FCD4704700040040000C0040F8B50C78C0
S11314E04B782402061C051C0443002B02D08023E5
S11314F0DB021C434B7A002B02D080231B031C43CA
S11315004B68012B12D95D1E1D400AD102229A425A
S113151002D201355200FAE780232D0235435B03E2
S113152003E01D02802335439B021C430B7A002BEE
S113153002D080239B031C430C4FB8470028FBD1E7
S11315400B4B98470B4B1E70B8470028FCD10A4B35
S11315509D601D1CB8470028FCD180236A685B028B
S113156013401C436C60054B9847F8BDB114000050
S1131570450D0000080C0040000C0040790D0000EF
S113158038B5051C094CA0470028FBD1084B9847E7
S1131590084B1D70A0470028FCD18021064A49024F
S11315A053680B435360054B984738BDB114000092
S11315B0450D0000040C0040000C0040790D0000B3
S11315C0F7B5071C184EB0470028FBD1174B9847B6
S11315D0174B1F700193B0470028FCD1154D164BD3
S11315E06868C004C00E9847041C019B1F706B6898
S11315F0DB02DB0F0193114B1F70B0470028FCD1B5
S1131600AD680F4B9847019B2D0AADB2002B07D153
S1131610012D07D9201C291C0A4B9847041C01E002
S11316200135EC40201CFEBDB1140000450D000046
S1131630040C0040000C0040E5110000080C0040C0
S1131640790D0000C11B000010B5041C064B98471F
S11316508021064B064A1C705388C9010B435380F2
S1131660044B984710BDC046450D0000020C0040D5
S1131670000C0040790D000010B5041C0D4B984778
S11316800D4B0E4A1C700E4B5988588809051040A2
S113169058805C880B48090F204058805C880848B3
S11316A06404FBD40B0241880A401A434280064B6F
S11316B0984710BD450D0000020C0040FFF0FFFFED
S11316C0000C0040FFBFFFFF790D000010B50C783F
S11316D0034B240204439847024BA4B25C8010BD20
S11316E079160000000C004010B5041C064B984706
S11316F0064B1C70064B5C88064B2405240F984748
S1131700201C054B984710BD450D0000020C0040FD
S1131710000C0040790D0000C1150000D37830B5ED
S1131720002B1BD11478802C03D0802324065B0269
S1131730234302255478AC4309D19478002C02D178
S11317408024A40201E0C024E402234341605478CD
S1131750013C012C04D8114C234001E000234160DA
S1131760A0258CB2ED052C43D0251C4384622D06A4
S11317700C0C2C431C438462D478002C0CD15B03E6
S113178005D59378012B01D1816100E04161537843
S1131790013B012B00D8816030BDC046FFFFFBFF39
S11317A010B500240A1C4309C109A14202D106490B
S11317B0DB015C181F21012301408B40201C191CF4
S11317C0024B984710BDC046004400411D1700005D
S11317D0931C9B001950037E022A01D10E3206E0AD
S11317E0032A01D11D3202E0012191400A1C134356
S11317F0037600207047000070B50126144B80006A
S1131800C4582368257E9B7B1D40637E1D40354262
S113181004D0A368201C984723689E73022635428F
S113182004D0E368201C984723689E731026354231
S113183004D02369201C984723689E7320263542D0
S113184004D06369201C984723689E7370BDC0460A
S1131850E809002008B50020014B984708BDC046A0
S1131860F917000008B50120014B984708BDC04690
S1131870F917000008B50220014B984708BDC0467F
S1131880F917000008B50320014B984708BDC0466E
S1131890F917000008B50420014B984708BDC0465D
S11318A0F917000008B50520014B984708BDC0464C
S11318B0F917000008B50620014B984708BDC0463B
S11318C0F917000008B50720014B984708BDC0462A
S11318D0F917000070B588B06A460A4B694670CBA8
S11318E070C270CB70C230CB30C200239A008A58C9
S11318F0904201D1D8B203E00133082BF6D1002085
S113190008B070BD781D0000F0B5824B051C89B08D
S1131910081C0E1C141C98477F49071C2031082200
S11319207E4B02A898477C4910227C4B283104A89E
S113193098470023AB60EB602B616B612B766B7671
S1131940774BBA00D5502E60A378082B03D117200B
S1131950FA0700D5DCE001222B71338805201342FD
S113196000D0D5E0F37B1730DB0600D5D0E00223AE
S113197031880B4000D0CBE0217C002908D001A99C
S1131980CB70237E207D0B70664B8A704A7098471B
S1131990237F002B0BD00123002201A98B704B70F5
S11319A0236ACA70626AD8B25E4B0A7098475E4B6B
S11319B068461A6A79009446102280186246415A91
S11319C00A431A62A278082A0AD11A6A6846944617
S11319D0102280186246791C4900415A0A431A624F
S11319E06A4623786946137008226B469B18DF5DAC
S11319F04E4B381C98474E4B381C98472389A28875
S1131A00A1791A43A3780B4313436278002A02D0C6
S1131A108022120113432968CA7BD209FCD1338086
S1131A20637B5A1E9341A27B9B00002A01D00122B2
S1131A3013432968CA7BD209FCD1FF323271002BCF
S1131A4004D02968CA7BD209FCD17371E37AA27AE3
S1131A50002B01D010231A43237B002B01D0202319
S1131A601A432968CB7BDB09FCD1B2712B68DA7B82
S1131A70D209FCD12A79042A05D0082A36D01720A5
S1131A80002A45D11FE0DA7BD209FCD1231C28337C
S1131A901B7833742A68D37BDB09FCD1231C2933DC
S1131AA01B7833752A68D37BDB09FCD1231C2A33CA
S1131AB01B7833762A687F23D07B9843FBD12B3461
S1131AC02378737624E0DA7BD209FCD1238D338228
S1131AD02A68D37BDB09FCD1638D33832A687F2397
S1131AE0D07B9843FBD1A38D738311E0DA7BD209B9
S1131AF0FCD1A36A33612A68D37BDB09FCD1E36A96
S1131B00B3612A687F23D07B9843FBD1236BF361B5
S1131B1009B0F0BDD5180000781D0000311D00008B
S1131B20E8090020A117000000040040CD160000C1
S1131B3049160000FEE700001248134910B50023BF
S1131B40884201D1114B07E0114CCA18A242F9D2C4
S1131B50C45804331460F7E70E4A934202D20022B9
S1131B6004C3F9E7FF210C4B0C4A8B4393600C4AE6
S1131B707F3953680B4353600A4B98470A4B984785
S1131B80FEE7C046D01D0000000000200400002035
S1131B9004000020080A00200000000000ED00E01E
S1131BA000400041E51C00004504000002B47146F9
S1131BB049084900095C49008E4402BC7047C0468C
S1131BC0002243088B4274D303098B425FD3030A78
S1131BD08B4244D3030B8B4228D3030C8B420DD38B
S1131BE0FF22090212BA030C8B4202D31212090219
S1131BF065D0030B8B4219D300E0090AC30B8B4257
S1131C0001D3CB03C01A5241830B8B4201D38B0304
S1131C10C01A5241430B8B4201D34B03C01A5241A9
S1131C20030B8B4201D30B03C01A5241C30A8B42EC
S1131C3001D3CB02C01A5241830A8B4201D38B02D7
S1131C40C01A5241430A8B4201D34B02C01A52417B
S1131C50030A8B4201D30B02C01A5241CDD2C309ED
S1131C608B4201D3CB01C01A524183098B4201D369
S1131C708B01C01A524143098B4201D34B01C01A54
S1131C80524103098B4201D30B01C01A5241C308CC
S1131C908B4201D3CB00C01A524183088B4201D33B
S1131CA08B00C01A524143088B4201D34B00C01A27
S1131CB05241411A00D20146524110467047FFE793
S1131CC001B5002000F00CF802BDC0460029F7D091
S1131CD003B5FFF775FF0EBC4243891A1847C04687
S1131CE07047C0460E4B70B500251E1C0D4CE41AFF
S1131CF0A410A54204D0AB00F35898470135F8E787
S1131D0000F056F8084B00251E1C084CE41AA410D9
S1131D10A54204D0AB00F35898470135F8E770BDED
S1131D20BC1D0000BC1D0000BC1D0000C01D000047
S1131D30002310B5934203D0CC5CC4540133F9E7BB
S1131D4010BD031C8218934202D019700133FAE7C4
S1131D5070470708090A0B0C0D0E0F10111213140B
S1131D6000080042000C004200100042001400422F
S1131D7000180042001C00420020004200240042DF
S1131D8000280042002C004200300042003400428F
S1131D9000380042003C00421313141415151616A3
S1131DA00001000200040008001000200040008030
S1131DB0F8B5C046F8BC08BC9E467047CD0000008C
S1131DC0F8B5C046F8BC08BC9E467047A5000000A4
S1071DD00201000008
S9031B39A8
