S00E00004D41535445522E737265634A
S11300009827002019620000AD620000AD62000074
S113001000000000000000000000000000000000DC
S1130020000000000000000000000000AD620000BD
S11300300000000000000000AD620000AD6200009E
S1130040AD620000AD620000AD620000AD62000070
S1130050AD620000AD620000AD620000113E000020
S1130060253E0000393E00004D3E0000613E000088
S1130070753E0000515B0000655B0000795B000089
S11300808D5B0000A15B0000B55B0000C95B000054
S1130090DD5B000025360000AD620000AD620000AB
S11300A0AD62000010B5064C2378002B07D1054B38
S11300B0002B02D0044800E000BF0123237010BDD0
S11300C07800002000000000CC70000008B5084B48
S11300D0002B03D00748084900E000BF0748036825
S11300E0002B00D108BD064B002BFBD09847F9E745
S11300F000000000CC7000007C000020CC700000E8
S11301000000000080B582B000AF78607B680022F8
S11301101A70BD4602B080BD80B582B000AF021C2B
S11301203960FB1D1A70FB1D1B78012B0AD0022BB2
S11301300FD0002B14D10E4B0D4A91693A680A4333
S11301409A610FE00A4B0A4AD1693A680A43DA61B4
S113015008E0074B064A116A3A680A431A6201E04A
S1130160172300E00023181CBD4602B080BDC04622
S11301700004004080B582B000AF78607B688022C4
S11301801A707B6800225A707B6801229A707B681F
S11301900022DA70BD4602B080BDC04680B500AF13
S11301A0054B9B78DBB21A1C022313405A1E934161
S11301B0DBB2181CBD4680BD0020004180B584B070
S11301C000AF78607B681B68FB60FB681B8A9BB28E
S11301D01A1C80231B0213405A1E9341DBB2181CC5
S11301E0BD4604B080BDC04680B582B000AF786023
S11301F0C0467B68181C034B9847031EF9D1BD46C3
S113020002B080BDBD010000F0B58FB002AF7860D0
S113021039607B681B683B627B681B68181C6D4BEC
S11302209847031CFB61FB690D33BB610023FB6230
S11302300023BB620E23FB1800221A801723FB182D
S113024000221A701623FB1810221A703B681A68D1
S11302503B68DB6813433A68927D52071343FB62A1
S11302602723FB1800221A703B685B683B613B69DB
S1130270002B1FD08022520593424ED13B68DB7D78
S113028001225340DBB2002B13D03B681D69BB69CC
S1130290DBB2181C504B9847021C2723FC180E2372
S11302A0FB18281C111C1A1C4C4B9847031C237068
S11302B033E032E03B68DB7D002B14D03B681869E7
S11302C03B6899692723FC180E23FA181723FB1897
S11302D01D781623FB181B7800932B1C404DA84750
S11302E0031C237018E03B681E69BB69DBB2181C51
S11302F0394B9847011C2723FC180E23FA1817239F
S1130300FB181D781623FB181B780093301C2B1C3C
S1130310334DA847031C2370C0462723FB181B78C2
S1130320002B03D02723FB181B784FE07B68181C95
S11303302C4B98470E23FB181A883B6A5A81FA6A99
S11303403B691343FB623B68DB7D01225340DBB214
S1130350002B03D0FB6A04221343FB623B681B7D22
S11303605A043B685B7D1B041343BB623B68DB7A26
S11303701A1CBB6A1343BB623B681B89FF2B0AD060
S1130380FB6A802252041343FB623B681B891A1CDC
S1130390BB6A1343BB623B681B7F002B03D1124B28
S11303A09847031E03D0FB6A80221343FB627B68D9
S11303B0181C0C4B98473B6ABA6A5A607B68181C35
S11303C0084B98473B6AFA6A1A600023181CBD461A
S11303D00DB0F0BDF13C0000C95800003D380000EC
S11303E0B9380000E90100009D01000090B593B008
S11303F000AFF860B9607A603B23FB1800221A70E2
S1130400FB68BA681A60FB681B687B63FB681B683F
S1130410181C7F4B9847031C3B633B6B0233FB6206
S11304203B6B0D33BB627B6B1B680122134001D015
S11304300523E8E07B6B1B680222134001D01C23D8
S1130440E1E0FB6A01229A40131C0220191C714B43
S113045098472423FB18181C6F4B98477B685A7FD6
S11304602423FB181A70BB6ADAB22423FB18101C6D
S1130470191C6A4B9847BB6ADBB2181C684B984737
S11304807B685B7F181C0021664B98477B68DA7A8F
S1130490FB685A717B681A7DFB689A717B685A7D88
S11304A0FB68DA713B23FC18FA687B68101C191C82
S11304B05D4B9847031C23703B23FB181B78002BD0
S11304C003D03B23FB181B789DE02023FB18181C4A
S11304D0564B98472023FB1800225A702023FB1800
S11304E000229A707B681A6A1023FB181A607B68D2
S11304F05A6A1023FB185A607B689A6A1023FB1807
S11305009A607B68DA6A1023FB18DA604723FB18C9
S113051000221A702CE04723FB181A781023FB18CA
S11305209200D3583B643B6C002B09D1BA68472333
S1130530FB181B78101C191C3D4B9847031C3B648B
S11305403B6C01330DD03B6CDAB22023FB181A70DC
S11305503B6C1B0CDAB22023FB18101C191C354B06
S113056098474723FB181A784723FB1801321A705F
S11305704723FB181B78032BCDD90023FB6308E02A
S1130580FB68FA6B023292000021D150FB6B0133FD
S1130590FB63FB6B022BF3D9FB6800229A61FB68B7
S11305A000225A61FB680022DA83FB6800229A83E6
S11305B0FB68202200219954FB68212200219954D0
S11305C0FB68222200219954FB68232200219954BC
S11305D0FB681B682722BC18181C0D4B9847031C8A
S11305E023702723FB181A78134B101C191C134B68
S11305F098472723FB181A78114B9200F968D150B9
S11306003B23FB181B78181CBD4613B090BDC04695
S1130610F13C00001901000005010000A55700008D
S1130620E9570000A93A0000090200007501000022
S1130630353B0000915A0000210A0000513D0000A2
S11306405807002080B584B000AF78600A1CBB1C3A
S11306501A807B681B68FB607B68DB79012253404E
S1130660DBB2002B01D01C2317E07B68DB8B9BB231
S1130670002B01D0052310E07B68181C094B984718
S1130680FB68BA1C12881A83C046FB689B7BDBB2EA
S11306901A1C02231340F8D00023181CBD4604B0D2
S11306A080BDC046E901000080B58AB000AFF860A3
S11306B0B960BB1D1A80BB1D1B88002B01D11723F9
S11306C07BE0FB68DB7901225340DBB2002B01D0D5
S11306D01C2372E0FB681B687B61FB68181C394BA8
S11306E098472623FB1800221A8046E000233B6229
S11306F010E07B699B7BDBB21A1C0123134000D002
S11307000CE03B6A304A934201D1122355E03B6A24
S113071001333B623B6A2C4A9342EAD92623FB18F5
S11307201B882622BA18591C11801A1CBB689B18F6
S11307301A781E23FB181A80FB685B79012B14D1ED
S11307402623FB181B882622BA18591C11801A1C50
S1130750BB689B181B781B029AB21E23FB181B88CC
S113076013439AB21E23FB181A80FA681E23FB183F
S11307701B88101C191C154B9847BB1D1B88BA1DE0
S1130780591E1180002BB1D10023BB6110E07B699D
S11307909B7BDBB21A1C0223134000D00CE0BB6924
S11307A0094A934201D1122307E0BB690133BB61BB
S11307B0BB69054A9342EAD90023181CBD460AB016
S11307C080BDC046E9010000FFFF000045060000AF
S11307D080B500AF014B9847BD4680BD3936000057
S11307E080B500AF014B9847BD4680BD89360000F7
S11307F080B584B000AF78607B681B68FB60FB68E1
S11308001B8A9BB21A1C80231B0213405A1E93415D
S1130810DBB2181CBD4604B080BDC04680B582B0B2
S113082000AF7860C0467B68181C034B9847031ED2
S1130830F9D1BD4602B080BDF107000080B586B095
S113084000AFF860B960BB1D1A80FB681B687B6150
S11308500F4B9847FB68DB8B9BB2002B03D00D4BEF
S11308609847052310E0FB68BA1D1288DA83094B08
S11308709847FB68BA689A61FB682322052199545A
S11308807B6901225A730023181CBD4606B080BD43
S1130890D1070000E107000080B586B000AFF86022
S11308A0B960BB1D1A80FB681B687B610F4B9847BE
S11308B0FB689B8B9BB2002B03D00D4B9847052301
S11308C010E0FB68BA1D12889A83094B9847FB68AD
S11308D0BA685A61FB682222052199547B69042273
S11308E05A730023181CBD4606B080BDD107000012
S11308F0E107000080B584B000AFF860B960FB1D6B
S11309001A70FB1D1A78FB6802329200B968D15044
S1130910FB6820229B5CD9B2FB1D1B7801229A4004
S1130920131CDBB20A1C1343DBB2D9B2FB682022CE
S11309309954BD4604B080BD80B584B000AFF86062
S1130940B960BB1D1A80BB1D1B88002B01D1172366
S113095012E0FB68DB7901225340DBB2002B01D0AB
S11309601C2309E0F968BA68BB1D1B88081C111C0C
S11309701A1C034B9847031C181CBD4604B080BDC9
S11309803D08000080B584B000AFF860B960BB1DBD
S11309901A80BB1D1B88002B01D1172312E0FB68B2
S11309A09B7901225340DBB2002B01D01C2309E0C8
S11309B0F968BA68BB1D1B88081C111C1A1C034B60
S11309C09847031C181CBD4604B080BD990800005C
S11309D080B584B000AF78600A1CFB1C1A70FB1C45
S11309E01B78002B02D0012B07D00DE00F23FB183E
S11309F07A682221525C1A700BE00F23FB187A6884
S1130A002321525C1A7004E00F23FB1817221A707A
S1130A10C0460F23FB181B78181CBD4604B080BDCC
S1130A2080B588B000AF021CFB1D1A70FB1D1A783C
S1130A30994B9200D358BB61BB691B687B61BB694E
S1130A40181C964B98477B699B7BDAB21223FB18E0
S1130A501A807B695B7BDBB29AB21223FB181221EA
S1130A60791809880A401A80BB6920229B5CBA69FC
S1130A702121525C1340DAB21023FB181A8012238E
S1130A80FB181B880122134044D0BB69DB8B9BB24B
S1130A90002B3CD0BB699B691B78DAB21E23FB1880
S1130AA01A80BB699B695A1CBB699A61BB695B79F3
S1130AB0012B12D1BB699B691B78DBB21B029AB272
S1130AC01E23FB181B8813439AB21E23FB181A809B
S1130AD0BB699B695A1CBB699A611E23FB181B885E
S1130AE0DB05DB0D9AB27B691A83BB69DB8B9BB296
S1130AF0013B9BB2BA69191CD183002B06D17B69D7
S1130B0001221A737B6902225A7303E002E07B69B3
S1130B1001221A731223FB181B880222134011D0DE
S1130B207B6902221A73BB69232200219954102382
S1130B30FB181B880122134004D0BB699B68BA6967
S1130B40101C98471223FB181B880422134000D161
S1130B509EE0BB699B8B9BB2002B00D195E07B6927
S1130B601B8A9BB2DAB20F23FB1807210A401A70C2
S1130B700F23FB181B78002B43D00F23FB181B7883
S1130B80022213400CD0BB6922221A2199547B699A
S1130B901B8A9BB2022213439AB27B691A8224E015
S1130BA00F23FB181B78042213400CD0BB692222AC
S1130BB01E2199547B691B8A9BB2042213439AB267
S1130BC07B691A8211E00F23FB181B780122134062
S1130BD00BD0BB692222132199547B691B8A9BB2D7
S1130BE0012213439AB27B691A821023FB181B88D3
S1130BF0042213404CD0BB691B69BA69101C984786
S1130C0046E07B691B8B9AB20C23FB18D205D20DEC
S1130C101A80BB695B690C22BA181288D2B21A70A6
S1130C20BB695B695A1CBB695A61BB695B79012B5F
S1130C300DD1BB695B690C22BA181288120A92B2F0
S1130C40D2B21A70BB695B695A1CBB695A61BB6931
S1130C509B8B9BB2013B9BB2BA69191C9183002BFD
S1130C6012D17B6904221A73BB6922220021995490
S1130C701023FB181B880222134005D0BB69DB68D4
S1130C80BA69101C984703E002E07B6904221A73D6
S1130C90BD4608B080BDC046580700201D080000AE
S1130CA080B584B000AF021CFB1D1A700F23FB1823
S1130CB0FA1D1278D2091A700E23FB18FA1D127845
S1130CC052091A700D4BBB600F23FB181B78002BC5
S1130CD00FD10F23FB181B789B0010229446BC44B1
S1130CE06344083B1A680E23FB181B78DB01D318F6
S1130CF000E00023181CBD4604B080BD0044004140
S1130D0080B582B000AF021CFB1D1A70FB1D1B785E
S1130D10181C034B9847031C181CBD4602B080BD29
S1130D20A10C000080B584B000AF021CFB1D1A703A
S1130D30FB1D1B78181C0B4B9847031CFB60FB1D09
S1130D401B781F22134001229A40131CBB60FB68CE
S1130D501B6ABA6813405A1E9341DBB2181CBD4685
S1130D6004B080BD010D000080B582B000AF162034
S1130D70254B9847031C1A1C244B1A701720224B2E
S1130D809847031C1A1C224B1A70224B9B78002B89
S1130D9037D1FB1D00221A701F4B1B685A1C1E4BB7
S1130DA01A601A4B1B78002B02D0FB1D02221A700A
S1130DB0174B1B78002B04D0FB1D1A78FB1D013246
S1130DC01A70FB1D1B78022B0DD002DC002B18DBE4
S1130DD002E0032B0ED014E03E20104B9847BF20B6
S1130DE00E4B98470DE03F200C4B98473E200B4B91
S1130DF0984706E03F20094B9847BE20074B984789
S1130E00C046BD4602B080BD250D00009400002000
S1130E1095000020EC000020E40000201D130000D9
S1130E2080B582B000AF78607B6801225A607B682D
S1130E3000225A707B6806221A707B6800221A729C
S1130E407B6800225A72BD4602B080BD80B582B074
S1130E5000AF78607B6800221A707B6800225A8099
S1130E607B6800229A807B6800229A717B6800224A
S1130E70DA717B6801225A707B6807221A727B68D8
S1130E803F225A817B6801221A737B680122DA812E
S1130E907B6806221A82BD4602B080BD80B582B04E
S1130EA000AF021CFB1D1A70084BFA1D12780F21AB
S1130EB00A40D2B20F210A40520059681E208143D1
S1130EC00A435A60BD4602B080BDC046004000419E
S1130ED080B586B000AF3B1D181C044B98473B1DE2
S1130EE0181C034B9847BD4606B080BD4D0E00004C
S1130EF0754F000090B585B000AF0F4B98470F2396
S1130F00FC1807200D4B9847031C237002200C4B40
S1130F1098473B1C181C0B4B98473B1C07221A7024
S1130F203B1C01225A603B1C0020191C064B9847AD
S1130F30BD4605B090BDC046D10E00007150000002
S1130F409D0E0000210E00004555000080B584B0C0
S1130F5000AF021CFB1D1A700F23FB18FA1D127838
S1130F60D2091A700E23FB18FA1D127852091A704E
S1130F700D4BBB600F23FB181B78002B0FD10F23E5
S1130F80FB181B789B0010229446BC446344083B26
S1130F901A680E23FB181B78DB01D31800E000232A
S1130FA0181CBD4604B080BD0044004180B582B029
S1130FB000AF021CFB1D1A70064BFA1D1278111C9F
S1130FC01F220A40012191400A1C1A60BD4602B04A
S1130FD080BDC04600E100E080B582B000AF021CD5
S1130FE0FB1D1A70FB1D1B78181C034B9847031C30
S1130FF0181CBD4602B080BD4D0F000080B582B004
S113100000AF78607B6800221A707B6801225A70F6
S11310107B6800229A70BD4602B080BD80B584B062
S113102000AF021CFB1D1A70BB1D0A1C1A70FB1DAD
S11310301B78181C0C4B9847031CFB60FB1D1B788A
S11310401F22134001229A40131CBB60BB1D1B7856
S1131050002B03D0FB68BA689A6102E0FB68BA68A7
S11310605A61BD4604B080BDD90F000080B584B07C
S113107000AF78607B681B68FB60FB681B8A9BB2CF
S11310801A1C80231B0213405A1E9341DBB2181C06
S1131090BD4604B080BDC04680B582B000AF786064
S11310A07B6801221A707B6800225A607B680022E8
S11310B09A607B68C0229203DA607B6800221A740B
S11310C07B6800225A747B6801229A747B68202210
S11310D0002199547B681433181C00210C220A4BFC
S11310E098477B68094A5A617B6800225A627B6888
S11310F000229A627B680022DA627B6800221A630B
S1131100BD4602B080BDC04637660000A08601001F
S113111080B582B000AF78607B680A221A707B6861
S113112000225A707B6800229A70BD4602B080BDCE
S113113080B584B000AF786039603B681A787B680A
S11311401A703B685A787B685A703B689A787B6857
S11311509A700C23FB18181C0B4B98470C23FB1894
S113116001221A707B681A780C23FB18101C191CB6
S1131170064B98477B681B78181C0121044B984741
S1131180BD4604B080BDC046FD0F0000ED36000032
S11311901D10000080B584B000AF78607B681B68C8
S11311A0FB607B681B68181C0A4B9847031C181CBF
S11311B0094B9847C0467B68181C084B9847031E88
S11311C0F9D1FB681B6802221A43FB681A60BD460A
S11311D004B080BDBD3D0000AD0F00006D100000E7
S11311E080B582B000AF78600A1CFB1C1A707B6863
S11311F02F229B5CD9B2FB1C1B7801229A40131C42
S1131200DBB20A1C1343DBB2D9B27B682F22995498
S1131210BD4602B080BDC04698B500AF164B1B78E2
S1131220DBB2002B26D0154B1B78DBB2012B21D966
S1131230134B9B78002B04D0124B181C124B98476D
S113124002E0104BF7221A70104A114B101C191CA3
S11312500122104B9847084B00221A700B49094A87
S11312600D4B081C111C1A1C01230C4CA047034BEA
S113127001221A70BD4698BD3401002030070020B9
S1131280EC000020E800002085130000000100208D
S1131290500100200D450000380100209D4600004B
S11312A080B500AF194B1B685A1C184B1A60184BB9
S11312B09B780E2B28D8174B1B685A1C154B1A60A9
S11312C0134B1B78191C144B1A78114B5B18DA70EA
S11312D00F4B1B780133DAB20D4B1A700C4B1B7891
S11312E00F221340DAB20A4B1A70094B1A78084BD2
S11312F05B78D31ADAB2064B9A70054B9B780F22AF
S11313001340DAB2024B9A70BD4680BD54010020EE
S11313103C010020580100203801002080B582B033
S113132000AF021CFB1D1A70154B9B780E2B23D8A3
S1131330134B1B78191C124BFA1D5B181278DA70C8
S11313400F4B1B780133DAB20D4B1A700C4B1B7820
S11313500F221340DAB20A4B1A70094B1A78084B61
S11313605B78D31ADAB2064B9A70054B9B780F223E
S11313701340DAB2024B9A70BD4602B080BDC0463B
S1131380EC00002080B582B000AF7860154B9B78EC
S1131390002B23D0134B5B781A1C124B9B18DA7862
S11313A07B681A700F4B5B780133DAB20D4B5A70BD
S11313B00C4B5B780F221340DAB20A4B5A70094B7C
S11313C01A78084B5B78D31ADAB2064B9A70054B3D
S11313D09B780F221340DAB2024B9A70BD4602B0DA
S11313E080BDC046EC00002080B582B000AF7860BC
S11313F0174B9B78002B24D0154B5B781A1C144B8D
S11314009B18DA787B681A70114B5B780133DAB277
S11314100F4B5A700E4B5B780F221340DAB20C4B11
S11314205A700B4B1A780A4B5B78D31ADAB2084B12
S11314309A70074B9B780F221340DAB2044B9A70D0
S113144002E07B68F7221A70BD4602B080BDC04638
S11314503C01002080B582B000AF7860094B0122C6
S11314601A70094B1B78F72B01D0084B9847084A90
S1131470084B101C191C0022074B9847BD4602B0AC
S113148080BDC0463401002038010020A1120000B4
S113149000010020500100200D45000080B500AF80
S11314A0064A074B101C191C0222064B9847034B93
S11314B0181C0221044B9847BD4680BD0001002042
S11314C05514000055460000E111000080B58EB0AF
S11314D000AF3B1C181C1C4B98473B1C11221A7074
S11314E01A4A3B1C101C191C194B98473B1D181C0D
S11314F0184B98473B1D2022032199543B1D164A43
S11315005A613B1D80225202DA603B1D134A5A6223
S11315103B1D012252429A623B1D114ADA623B1D75
S1131520104A1A63104A11493B1D101C1A1C104B17
S113153098470D4B181C0F4B98470F4BFA221A7003
S1131540BD460EB080BDC046111100005001002000
S11315503111000099100000102700000200100053
S1131560020012000200130000010020000C0042DF
S11315706943000095110000E800002080B584B0A4
S113158000AF021CFB1D1A700F23FB18FA1D127802
S1131590D2091A700E23FB18FA1D127852091A7018
S11315A00D4BBB600F23FB181B78002B0FD10F23AF
S11315B0FB181B789B0010229446BC446344083BF0
S11315C01A680E23FB181B78DB01D31800E00023F4
S11315D0181CBD4604B080BD0044004180B500AF76
S11315E0034B01221A70BFF35F8F62B6BD4680BD04
S11315F01000002080B582B000AF021CFB1D1A70E1
S1131600FB1D1B78181C034B9847031C181CBD4674
S113161002B080BD7D15000080B582B000AF786057
S11316207B6800221A707B6801225A707B68002252
S11316309A70BD4602B080BD80B584B000AF021C74
S1131640FB1D1A70BB1D0A1C1A70FB1D1B78181C8D
S11316500C4B9847031CFB60FB1D1B781F22134097
S113166001229A40131CBB60BB1D1B78002B03D0C6
S1131670FB68BA689A6102E0FB68BA685A61BD46C1
S113168004B080BDF515000090B591B000AF3423CF
S1131690FB18181C7C4B98473423FB1801221A7042
S11316A03423FB180020191C784B98470020002194
S11316B0774B98473423FB180820191C734B984721
S11316C03423FB181420191C704B98471420012153
S11316D06F4B98473423FB181120191C6B4B984708
S11316E0112001216A4B98473423FB180520191C4B
S11316F0664B984705200121654B98473423FB1816
S11317002820191C614B984728200121604B9847D9
S11317103423FB182920191C5C4B984729200121EC
S11317205B4B98473423FB1800221A703423FB18B0
S113173001225A703423FB181720191C534B984765
S11317403423FB181620191C504B9847514B9847CB
S1131750514B9847514B9847514B9847514B984799
S1131760514B9847514A524B101C191C0122514BA2
S113177098474E49504A514B081C111C1A1C01230E
S11317804F4CA0474F4B98474F4B98474F4B022223
S11317901A704F4BF7221A704E4A4F4B101C191CEB
S11317A00122444B98474B49494A4C4B081C111C95
S11317B01A1C0123424CA047494BBB63BB6B181C4A
S11317C0484B9847484BBB63BB6B181C454B984729
S11317D0464B9847464B9847464B9847464B984745
S11317E0464B01221A70464B01221A70454B98470A
S11317F0454A2C23FB18101C191C0122434B984703
S1131800434A3023FB18101C191C01223F4B9847F4
S11318100320404B9847391D3F4A0B1C1068186041
S113182012791A710523CB182322181C00213B4B73
S113183098473B1D181C3A4B9847031C9BB23249EE
S11318403A1D081C111C1A1C364B98473B1D181CCA
S1131850334B9847031C9BB22D493A1D081C111C9D
S11318601A1C304B984764202A4B98473F23FB1897
S113187000221A703E23FB1800221A703D23FB1825
S113188000221A706FE0C04619160000ED36000001
S113189039160000A9510000D5330000313400008E
S11318A0DD150000A92E0000792E00006806002036
S11318B0620600200D4500000400002058060020A8
S11318C09D460000CD1400009D1400003007002048
S11318D0E800002000010020500100203801002011
S11318E0AC030020711E0000A80100205D1F000051
S11318F011210000DD1E00005D2100009400002085
S113190095000020D1250000600100208509000019
S11319108401002061330000D86E000037660000A7
S1131920A7660000A90600003D23FB181B787D4A2A
S1131930D318DB78192B03D13F23FB1801221A702B
S11319403D23FB181B78774AD318DB78212B03D16E
S11319503E23FB1801221A703D23FB181A783D23FD
S1131960FB1801321A703D23FB181B78092BDBD9B5
S11319703F23FB181B78002B00D1CAE03E23FB1841
S11319801B78002B00D1C4E02820674B9847202007
S1131990654B98471820644B98471020624B984732
S11319A0624B01221A70624B01221A70614B181C9F
S11319B0614B9847614B181C5F4B98473B1D604A2D
S11319C013CA13C303CA03C312781A703B1D181C2D
S11319D05C4B9847031C1A1C3B1D9A185A4B111C4C
S11319E01A1C0823081C111C1A1C584B98473B1D31
S11319F0181C544B9847031C1A1C3B1D9A18544B33
S1131A00111C1A1C0323081C111C1A1C4F4B984749
S1131A103B1D181C4B4B9847031CDBB245493A1D30
S1131A20081C111C1A1C4B4B98470A204A4B984718
S1131A303B1D434A13CA13C303CA03C312781A7063
S1131A403B1D181C3F4B9847031C9AB2434B1A800A
S1131A503B1D181C3B4B9847031C1A1C3B1D9A1832
S1131A603F4B111C1A1C0823081C111C1A1C374B51
S1131A7098473B1D181C334B9847031C9AB2374BAD
S1131A801A803B1D181C2F4B9847031C1A1C3B1D26
S1131A909A182F4B111C1A1C0323081C111C1A1C06
S1131AA02A4B98473B1D181C264B9847031CDBB256
S1131AB022493A1D081C111C1A1C264B98470A205F
S1131AC0254B98473B1D274A13CA13C313CA13C394
S1131AD01188198092789A703B1D181C194B9847ED
S1131AE0031CDBB213493A1D081C111C1A1C194BA8
S1131AF098473B1D181C134B9847031CDBB20F4936
S1131B003A1D081C111C1A1C124B98473220124B08
S1131B109847154B984732200F4B9847BD4611B054
S1131B2090BDC0463C0100201D130000940000201D
S1131B3095000020AC030020ED240000A801002043
S1131B40906E0000A7660000A86E0000F16500001A
S1131B50B06E0000551D0000613300005C010020E0
S1131B60B46E0000BC6E0000F50E000080B500AF3E
S1131B70034B01221A70BFF35F8F62B6BD4680BD6E
S1131B801000002080B500AF72B6BFF35F8F024B28
S1131B9000221A70BD4680BD1000002080B582B0BE
S1131BA000AF021CFB1D1A70064BFA1D1278111CA3
S1131BB01F220A40012191400A1C1A60BD4602B04E
S1131BC080BDC04600E100E080B584B000AF78601D
S1131BD07B681B68FB60FB681B8A9BB21A1C802312
S1131BE01B0213405A1E9341DBB2181CBD4604B0BD
S1131BF080BDC04680B582B000AF7860C0467B68C7
S1131C00181C034B9847031EF9D1BD4602B080BD92
S1131C10C91B000080B582B000AF78607B68802269
S1131C20D2051A607B6800225A607B68FF221A8101
S1131C307B6800229A727B680022DA727B689622A3
S1131C4092011A617B6801221A757B6801225A7518
S1131C507B6800229A757B680022DA757B68002213
S1131C609A617B6888225203DA607B6800221A77C3
S1131C707B6800225A777B6800221A627B68002204
S1131C805A627B6800229A627B680022DA62BD464F
S1131C9002B080BD80B584B000AF78607B681B68FB
S1131CA0FB607B681B68181C094B9847031C181CB5
S1131CB0084B98477B68181C074B9847FB681B68C0
S1131CC002221A43FB681A60BD4604B080BDC046B8
S1131CD0BD3D00009D1B0000F51B000080B582B0D7
S1131CE000AF78600A1CFB1C1A707B6821229B5C85
S1131CF0D9B2FB1C1B7801229A40131CDBB20A1CCC
S1131D001343DBB2D9B27B6821229954BD4602B099
S1131D1080BDC04680B500AF054B1B78DAB2044BDA
S1131D205B78DBB2D31ADBB2181CBD4680BDC0465B
S1131D30AC03002080B500AF054B1B78DAB2044B2E
S1131D405B78DBB2D31ADBB2181CBD4680BDC0463B
S1131D50A801002080B586B000AFF860B960FB1D13
S1131D601A70204B1B78DBB21A1C1E4B5B78DBB25B
S1131D70D21AFB1D1B7880214900CB1A9A422CDA17
S1131D801723FB1800221A701EE0FB681B78DBB2D5
S1131D90181C1723FB181B78BA68D3181978FA682B
S1131DA080235B001218D3180A1C1A71FB681B7875
S1131DB0DBB20133DAB2FB681A701723FB181A7806
S1131DC01723FB1801321A701723FA18FB1D127817
S1131DD01B789A42D9D3002300E00523181CBD4682
S1131DE006B080BDAC03002080B586B000AFF860BB
S1131DF0B960FB1D1A701D4B9B78DBB21A1C1B4B80
S1131E00DB78DBB2D21AFB1D1B7880214900CB1A88
S1131E109A4225DA1723FB1800221A7017E0FB6890
S1131E209B78DBB25A1CD1B2FA689170191C172343
S1131E30FB181B78BA68D3181A78FB685B181A71F8
S1131E401723FB181A781723FB1801321A7017236B
S1131E50FA18FB1D12781B789A42E0D3002300E0A5
S1131E600523181CBD4606B080BDC046AC03002047
S1131E7080B584B000AF78600F23FB1800221A707D
S1131E8018E00F23FB181A780F23FB181B78002087
S1131E907968CB18011C1971796880235B008A1852
S1131EA0D318021C1A710F23FB181A780F23FB187E
S1131EB001321A700F23FB181B78FF2BE1D17B68CA
S1131EC000221A707B6800225A707B6800229A7084
S1131ED07B680022DA70BD4604B080BD80B58CB04A
S1131EE000AF3B1C181C164B98473B1CE1225202C6
S1131EF01A613B1C04225A773B1CC4229203DA6009
S1131F003B1C012252421A623B1C012252425A6279
S1131F103B1C0C4A9A623B1C0B4ADA62C0460B4AD1
S1131F200B493B1C101C1A1C0A4B9847031EF6D184
S1131F30064B181C084B9847BD460CB080BDC046E4
S1131F40151C000003002A0003002B006001002080
S1131F5000180042ED030000951C000080B58CB011
S1131F6000AF3B1C181C154B98473B1CE122520246
S1131F701A613B1C04225A773B1C80225203DA600C
S1131F803B1C0F4A1A623B1C0E4A5A623B1C0E4A07
S1131F909A623B1C0D4ADA62C0460D4A0D493B1C4D
S1131FA0101C1A1C0C4B9847031EF6D1084B181C26
S1131FB00A4B9847BD460CB080BDC046151C0000B6
S1131FC00200300002003100030036000300370035
S1131FD084010020001C0042ED030000951C000059
S1131FE080B584B000AF7860174B01221A707B680B
S1131FF05A690F23FB18013A12781A70134B1B7895
S1132000002B1DD0124B00221A70124B9847124B12
S11320109B78DBB20133104AD278D2B293420DD00E
S11320200D4B9B78DBB25A1CD1B20B4A9170191C30
S1132030094B0F22BA185B1812781A71074B98478C
S1132040BD4604B080BDC0460100002094000020BD
S113205097000020851B0000AC0300206D1B0000CE
S113206080B584B000AF7860174B01221A707B688A
S11320705A690F23FB18013A12781A70134B1B7814
S1132080002B1DD0124B00221A70124B9847124B92
S11320909B78DBB20133104AD278D2B293420DD08E
S11320A00D4B9B78DBB25A1CD1B20B4A9170191CB0
S11320B0094B0F22BA185B1812781A71074B98470C
S11320C0BD4604B080BDC04603000020950000203A
S11320D096000020851B0000A80100206D1B000055
S11320E080B582B000AF7860024B01221A70BD4601
S11320F002B080BD0000002080B582B000AF7860DF
S1132100024B01221A70BD4602B080BD02000020BD
S113211080B500AF0C4A0D4B101C191C00220C4B4F
S11321209847094A0B4B101C191C0122084B98476D
S1132130054B181C0021084B9847034B181C012120
S1132140054B9847BD4680BD84010020E120000076
S1132150F5080000E11F0000DD1C000080B500AFA1
S11321600C4A0D4B101C191C00220C4B9847094AB1
S11321700B4B101C191C0122084B9847054B181CCB
S11321800021084B9847034B181C0121054B984725
S1132190BD4680BD60010020F9200000F508000064
S11321A061200000DD1C000090B583B000AF284B17
S11321B07B60284B9847031E21D0274B5B78DBB20A
S11321C0191C254A80235B005218D3181B79DAB2F4
S11321D01F4B1A70FC1C214A7B68101C191C01221D
S11321E01F4B9847031C2370FB1C1B78002B06D144
S11321F0194B5B78DBB20133DAB2174B5A70194BC7
S11322009847031E21D0184B5B78DBB2191C164A81
S113221080235B005218D3181B79DAB20C4B1A7066
S1132220FC1C124A7B68101C191C01220C4B984799
S1132230031C2370FB1C1B78002B06D10A4B5B7814
S1132240DBB20133DAB2084B5A70BD4603B090BD1D
S1132250B0050020351D0000A80100206001002009
S113226039090000151D0000AC0300208401002082
S113227080B584B000AF021CFB1D1A700F23FB183D
S1132280FA1D1278D2091A700E23FB18FA1D12785F
S113229052091A700D4BBB600F23FB181B78002BDF
S11322A00FD10F23FB181B789B0010229446BC44CB
S11322B06344083B1A680E23FB181B78DB01D31810
S11322C000E00023181CBD4604B080BD004400415A
S11322D080B500AF014B9847BD4680BD393600003C
S11322E080B500AF014B9847BD4680BD89360000DC
S11322F080B582B000AF021CFB1D1A70FB1D1B7859
S1132300181C034B9847031C181CBD4602B080BD23
S11323107122000080B584B000AF021CFB1D1A704E
S1132320BB1D0A1C1A70FB1D1B78181C0C4B98470C
S1132330031CFB60FB1D1B781F22134001229A40E3
S1132340131CBB60BB1D1B78002B03D0FB68BA6851
S11323509A6102E0FB68BA685A61BD4604B080BD68
S1132360F122000080B582B000AF786039600B4B79
S113237098473B68181C0A4B9847031CDBB27968E2
S11323803A68081C111C1A1C064B9847064B9847C0
S11323903B6801333B60BD4602B080BDD1220000E2
S11323A0A7660000551D0000E122000080B582B040
S11323B000AF7860104B78221A6001E00F4B984709
S11323C00D4B1B68002BF9D17B68181C0C4B9847EC
S11323D07A680C4B101C191C0B4B9847064B78223F
S11323E01A6001E0054B9847034B1B68002BF9D199
S11323F0BD4602B080BDC04634070020191200005B
S1132400711E0000006F000065230000B0B584B0A9
S113241000AF78607B68181C274B98477A68274B75
S1132420101C191C264B9847264BC8221A6039E009
S1132430254B9847254B9847254A264B111C1A1CB7
S11324400C23081C111C1A1C234B98477B681C1D69
S11324501F4B181C214B9847051C1D4B201C642145
S11324601A1C2B1C1E4CA047031CFB60FB68002B92
S11324700FD032201B4B9847FB680C331A4A101CB0
S1132480191C1122144B9847174B00225A7400232D
S11324900DE00C4B1B68002B04D1134B00221A7067
S11324A01C2304E0074B1B68002BC1D11C23181C00
S11324B0BD4604B0B0BDC046711E0000046F0000EC
S11324C0652300003407002019120000A921000030
S11324D0B4050020146F0000F1650000A766000039
S11324E003660000613300001806002080B582B046
S11324F000AF7860294B00221A707B68181C284BA7
S113250098477B68181C274B9847244B1B78002B53
S113251001D100233DE0244B00221A70224A234BB0
S1132520111C1A1C1123081C111C1A1C204B98473F
S11325301D4A1A4B101C191C1E4B98471A4B181C89
S11325401D4B9847031C1A1C174BD2181B4B111C0C
S11325501A1C0323081C111C1A1C154B98477B6872
S1132560181C174B98477A680F4B101C191C154BF5
S113257098476420144B98477B68181C094B98476C
S1132580064B1B78002B01D1002302E00F4B984728
S11325901C23181CBD4602B080BDC046180600208E
S11325A0AD2300000D240000B4050020346F0000AA
S11325B0F16500008D660000A7660000486F00000A
S11325C0711E00006523000061330000D125000066
S11325D080B500AF142000210D4B98470D4B0A2203
S11325E01A6001E00C4B98470A4B1B68002BF9D189
S11325F014200121064B9847064B32221A6001E051
S1132600054B9847034B1B68002BF9D1BD4680BD91
S113261015230000340700201912000090B583B080
S113262000AF284B1B78002B11D0274A274B101CD6
S1132630191C0122264B9847264A244B101C191CAE
S11326400122254B98471F4B00221A7015E0FC1DF0
S11326501D4B181C0021214B9847031C2370FB1DA4
S11326601B78052B09D0184A184B101C191C012281
S1132670174B9847134B00221A70BB1D181C184B9C
S11326809847BB1D1B78F72B19D0BB1D1B78002B5B
S113269015D0BB1D1B784F2B11D8124B1B788022F1
S11326A052421343DBB2181C0F4B9847BB1D1A78D8
S11326B00C4B1A70BB1D1B78181C0B4B9847BD465E
S11326C003B090BD010000208401002030060020EA
S11326D085090000AC030020E91D0000D1090000B9
S11326E0E91300002C0600201D13000090B58BB0E8
S11326F000AF5F4B1B78DBB21A1C5D4B5B78DBB21F
S1132700D31A0333FF2B00DDAEE05A4B9B78DBB2C8
S1132710002B00D1A8E02423FB18181C564B984723
S11327202423FB185B78012B10D91C23FB1890225F
S11327301A702423FB181A781C23FB185A702423BC
S1132740FB185A781C23FB189A700DE01C23FB1805
S113275080221A702423FB181A781C23FB185A7041
S11327601C23FB1800229A70414A1C23FB18101CDE
S1132770191C0322414B98471C23FB181B781C1C73
S11327800C23FA183E4B101C191C221C3D4B984775
S11327901C23FB185B781C1C3A1C394B101C191C9D
S11327A0221C384B98470C23FB18181C364B9847AF
S11327B0031C1A1C0C23FB189A18344B111C1A1CEA
S11327C00223081C111C1A1C314B98470C23FA18BD
S11327D03B1C101C191C2F4B98470C23FB18181C6E
S11327E0294B9847031C1A1C0C23FB189A18274BD7
S11327F0111C1A1C0223081C111C1A1C244B984778
S11328001C23FB189B781C1C3A1C1D4B101C191C08
S1132810221C1C4B98470C23FA183B1C101C191C37
S11328201C4B98470C23FB18181C174B9847031C88
S11328301A1C0C23FB189A18174B111C1A1C03237F
S1132840081C111C1A1C124B98470C23FB18181C4B
S11328500D4B9847031CDBB210490C22BA18081C14
S1132860111C1A1C054B9847BD460BB090BDC046C1
S1132870AC0300209C0600208D2B0000551D000099
S11328804C6F000049660000A7660000546F00000A
S1132890F16500008D660000586F0000A80100205B
S11328A080B584B000AF021CFB1D1A700F23FB1807
S11328B0FA1D1278D2091A700E23FB18FA1D127829
S11328C052091A700D4BBB600F23FB181B78002BA9
S11328D00FD10F23FB181B789B0010229446BC4495
S11328E06344083B1A680E23FB181B78DB01D318DA
S11328F000E00023181CBD4604B080BD0044004124
S113290080B500AF014B9847BD4680BD3936000005
S113291080B500AF014B9847BD4680BD89360000A5
S113292080B582B000AF021CFB1D1A70064BFA1D65
S11329301278111C1F220A40012191400A1C1A60BE
S1132940BD4602B080BDC04600E100E080B582B063
S113295000AF021CFB1D1A70FB1D1B78181C034BD7
S11329609847031C181CBD4602B080BDA128000076
S113297080B582B000AF78607B6800221A707B68F3
S113298001225A707B6800229A70BD4602B080BD55
S113299080B584B000AF021CFB1D1A70BB1D0A1C5D
S11329A01A70FB1D1B78181C0C4B9847031CFB600A
S11329B0FB1D1B781F22134001229A40131CBB608D
S11329C0BB1D1B78002B03D0FB68BA689A6102E038
S11329D0FB68BA685A61BD4604B080BD4D29000049
S11329E080B584B000AF78607B681B68FB60FB68CF
S11329F01B8A9BB21A1C80231B0213405A1E93414C
S1132A00DBB2181CBD4604B080BDC04680B582B0A0
S1132A1000AF78607B6801221A707B6800225A60DC
S1132A207B6800229A607B68C0229203DA607B682C
S1132A3000221A747B6800225A747B6801229A74FB
S1132A407B682022002199547B681433181C0021D0
S1132A500C220A4B98477B68094A5A617B6800221A
S1132A605A627B6800229A627B680022DA627B6881
S1132A7000221A63BD4602B080BDC046376600001E
S1132A80A086010080B582B000AF78607B680A221E
S1132A901A707B6800225A707B6800229A70BD46C7
S1132AA002B080BD80B584B000AF786039603B6807
S1132AB01A787B681A703B685A787B685A703B684E
S1132AC09A787B689A700C23FB18181C0B4B984758
S1132AD00C23FB1801221A707B681A780C23FB184C
S1132AE0101C191C064B98477B681B78181C012185
S1132AF0044B9847BD4604B080BDC0467129000010
S1132B00ED3600009129000080B584B000AF7860F4
S1132B107B681B68FB607B681B68181C0A4B984722
S1132B20031C181C094B9847C0467B68181C084BAB
S1132B309847031EF9D1FB681B6802221A43FB68FD
S1132B401A60BD4604B080BDBD3D000021290000CF
S1132B50E129000080B582B000AF78600A1CFB1C3C
S1132B601A707B682F229B5CD9B2FB1C1B78012254
S1132B709A40131CDBB20A1C1343DBB2D9B27B6844
S1132B802F229954BD4602B080BDC04680B582B0A4
S1132B9000AF78601D4B5B78DBB21A1C1B4B9B1893
S1132BA0DB78DAB27B681A707B680133174A527893
S1132BB0D2B2101C154A202112185218D278D2B25F
S1132BC01A70124B5B78DBB20133DAB20F4B5A70D6
S1132BD00E4B5B78DBB21F221340DAB20B4B5A70F8
S1132BE00A4B1B78DAB2094B5B78DBB2D31ADAB240
S1132BF0064B9A70054B9B78DBB21F221340DAB266
S1132C00024B9A70BD4602B080BDC0469C060020AF
S1132C1098B500AF4A4B1B78022B2ED0032B60D003
S1132C20012B00D08AE0474A474B101C191C002294
S1132C30464B9847464B1B78002B0DD0444B1B78D2
S1132C40802B09D0424B1B78FF2B05D0414A404BC7
S1132C50101C191C404B98473A4A404B101C191C35
S1132C6001223A4B984737493D4A394B081C111CFD
S1132C701A1C01233B4CA04760E0324A374B101C1E
S1132C80191C0022314B9847314B1B78002B0DD077
S1132C902F4B1B78802B09D02D4B1B78FF2B05D095
S1132CA0314A2B4B101C191C2B4B9847254A2F4B90
S1132CB0101C191C0122254B98472249284A244BF1
S1132CC0081C111C1A1C0123264CA047204B1B78FE
S1132CD07F2B05D1264B1B685A1C254B1A602DE00F
S1132CE02CE0184A214B101C191C0022174B984742
S1132CF0174B1B78002B0DD0154B1B78802B09D05C
S1132D00134B1B78FF2B05D01A4A114B101C191CAE
S1132D10114B98470B4A0C4B101C191C01220B4BEE
S1132D20984708490E4A0A4B081C111C1A1C012317
S1132D300C4CA047024B00221A70C046BD4698BDF9
S1132D409800002068060020620600200D4500005F
S1132D505806002004070020B52F00005C06002060
S1132D60040000209D460000340600205F06002079
S1132D7028070020E006002080B582B000AF78600C
S1132D803A4B98477B689B78DBB2012B69D97B6807
S1132D905B78DBB21A1C7B689B18DB78DBB2802B78
S1132DA043D97B685B78DBB201331F2213407A6816
S1132DB0D318DB78DBB2DBB25BB2002B35DB7B688C
S1132DC05B78DBB21A1C7B689B18DB78DBB27F2252
S1132DD01340D9B27B685B78DBB201331F22134006
S1132DE07A68D318DB78DBB2081C191C204B98478F
S1132DF07B685B78DBB20233DBB21F221340DAB2AA
S1132E007B685A707B681B78DAB27B685B78DBB2CC
S1132E10D31ADAB27B689A707B689B78DBB21F2284
S1132E201340DAB27B689A701BE07B685B78DBB294
S1132E300133DBB21F221340DAB27B685A707B681D
S1132E401B78DAB27B685B78DBB2D31ADAB27B68C0
S1132E509A707B689B78DBB21F221340DAB27B68DE
S1132E609A70044B9847BD4602B080BD012900000A
S1132E70393000001129000080B500AF064A074B25
S1132E80101C191C0222064B9847034B181C0221E4
S1132E90044B9847BD4680BD68060020852F00007E
S1132EA055460000552B000080B58EB000AF3B1C8A
S1132EB0181C254B98473B1C05221A70234A3B1CBF
S1132EC0101C191C224B98473B1C28221A70214ABB
S1132ED03B1C101C191C1E4B98473B1C29221A70C2
S1132EE01D4A3B1C101C191C194B98473B1D181CF0
S1132EF01A4B98473B1D2022012199543B1D184A27
S1132F005A613B1D80225202DA603B1D154A5A6207
S1132F103B1D012252429A623B1D134ADA623B1D59
S1132F20124A1A63124A13493B1D101C1A1C124BF5
S1132F3098470F4B181C114B9847114BF7221A70E6
S1132F40BD460EB080BDC046852A00005C06002048
S1132F50A52A00005F060020620600200D2A00005A
S1132F6050C3000003000400030006000300070030
S1132F70680600200008004269430000092B000095
S1132F800400002080B582B000AF7860064B1B7847
S1132F900133DAB2044B1A70044B01221A70044B49
S1132FA09847BD4602B080BD98000020D80000209C
S1132FB0112C000080B582B000AF786039603B68A6
S1132FC01B787F2B04D11B4B1B685A1C194B1A60AE
S1132FD07B689B78DBB21E2B29D87B681B78DBB21D
S1132FE0191C3B681A787B685B18DA707B681B785D
S1132FF0DBB20133DAB27B681A707B681B78DBB210
S11330001F221340DAB27B681A707B681B78DAB22D
S11330107B685B78DBB2D31ADAB27B689A707B6820
S11330209B78DBB21F221340DAB27B689A70BD46EC
S113303002B080BD2C07002080B582B000AF021C16
S1133040FB1D1A70BB1D0A1C1A701C4B1B78DBB2CB
S1133050191C1A4BFA1D5B181278DA70174B1B787F
S1133060DBB2191C154B20225B189B18BA1D127871
S1133070DA70124B1B78DBB20133DAB20F4B1A70E1
S11330800E4B1B78DBB21F221340DAB20B4B1A70C3
S11330900A4B1B78DAB2094B5B78DBB2D31ADAB28B
S11330A0064B9A70054B9B78DBB21F221340DAB2B1
S11330B0024B9A70BD4602B080BDC0469C060020FB
S11330C080B584B000AF021CFB1D1A700F23FB18DF
S11330D0FA1D1278D2091A700E23FB18FA1D127801
S11330E052091A700D4BBB600F23FB181B78002B81
S11330F00FD10F23FB181B789B0010229446BC446D
S11331006344083B1A680E23FB181B78DB01D318B1
S113311000E00023181CBD4604B080BD00440041FB
S113312080B582B000AF021CFB1D1A70064BFA1D5D
S11331301278111C1F220A40012191400A1C1A60B6
S1133140BD4602B080BDC04600E100E080B582B05B
S113315000AF021CFB1D1A70FB1D1B78181C034BCF
S11331609847031C181CBD4602B080BDC130000046
S113317080B584B000AF021CFB1D1A70FB1D1B78C8
S1133180181C094B9847031CFB60FB1D1B781F226E
S1133190134001229A40131CBB60FB68BA68DA61D1
S11331A0BD4604B080BDC0464D31000080B584B03A
S11331B000AF78607B681B68FB60FB68DB7BDBB27D
S11331C01A1C802313405A1E9341DBB2181CBD46BF
S11331D004B080BD80B582B000AF78607B68002207
S11331E01A707B6800229A707B6800229A807B6840
S11331F000229A717B6800221A817B6800225A702F
S11332007B6800229A727B680022DA727B68002253
S11332101A737B6800229A737B6800225A737B6856
S113322000221A747B6800225A617B6800229A612A
S11332307B6800221A777B6800221A627B6800226E
S11332405A627B6800221A857B6800225A857B6853
S113325000229A85BD4602B080BDC04680B584B0C8
S113326000AF78607B681B68FB60C0467B68181CF5
S1133270074B9847031EF9D1FB681B889BB20222B7
S113328013439AB2FB681A80BD4604B080BDC046A1
S1133290AD31000080B582B000AF7860044A7B682D
S11332A0D3181B78DBB25BB2181CBD4602B080BDDC
S11332B00800002080B582B000AF78600A1CFB1CB7
S11332C01A707B681B68181C224B9847031C181C37
S11332D0214B9847031C181C204B9847FB1C1B7858
S11332E0022B0BD17B685B7E10221343DAB27B681E
S11332F05A767B681B6810225A7327E0FB1C1B78E4
S1133300032B0BD17B685B7E20221343DAB27B68EC
S11333105A767B681B6820225A7317E07B685B7EB1
S1133320D9B2FB1C1B7801229A40131CDBB20A1C85
S11333301343DBB2DAB27B685A767B681B68FA1CEB
S11333401278012191400A1CD2B25A73BD4602B0D0
S113335080BDC046695D0000953200002131000047
S113336080B582B000AF7860074B7A681A6003E0DA
S1133370064B9847064B9847034B1B68002BF7D125
S1133380BD4602B080BDC04634070020A92100001C
S11333901912000080B582B000AF786000200A4B9B
S11333A098470A4B1B78DBB2013BDAB2074B1A7021
S11333B0074B1B68002B04D0054B1B685A1E044B9B
S11333C01A60BD4602B080BD713100003007002094
S11333D03407002080B58EB000AF3B1D181C0F4B86
S11333E098473B1D04229A703B1D04221A703B1D12
S11333F0E022D2009A803B1D292275219954084A63
S113340008493B1D101C1A1C074B9847044B181CF9
S1133410064B9847BD460EB080BDC046D53100006E
S113342038070020002C0042B95D00005D32000026
S113343080B500AF064A074B101C191C0022064B2E
S11334409847034B181C0021044B9847BD4680BD88
S11334503807002095330000DD5A0000B532000023
S113346080B584B000AF78607B681B68FB60FB6844
S11334705B7EDBB2DBB25BB2002B01DA012300E03E
S11334800023181CBD4604B080BDC04680B584B07E
S113349000AF78607B681B68FB60C0467B68181CC3
S11334A00A4B9847031EF9D1FB681B7BDBB202224F
S11334B01343DAB2FB681A73C0467B68181C034BCB
S11334C09847031EF9D1BD4604B080BD61340000A5
S11334D080B584B000AF78600A1CFB1C1A707B684E
S11334E01B68FB60FB68FA1C12789A75BD4604B031
S11334F080BDC04680B584B000AF021CFB1D1A70AD
S1133500FB1D1A78434B9200D358FB60FB681B6881
S11335101B7EDBB2BB60BB680122134045D0FB6855
S1133520DB7E1A1C012313403FD0FB689B7E1A1CD0
S11335300123134039D0FB681B6801221A76C04668
S1133540FB68181C344B9847031EF9D1FB685B6970
S1133550991CFA685161FA681268528B92B21A8007
S1133560FB681B8B9BB2013B9BB2FA68191C11834D
S1133570002B08D0FB685B7F002B16D0FB68181C5F
S1133580264B984711E0FB681B7FDBB2052B0CD15F
S1133590FB6800221A77FB68181C0121204B98470E
S11335A0FB689B68FA68101C9847BB6804221340A8
S11335B014D0FB681B6804221A76FB68DB7E1A1C95
S11335C0022313400AD0FB689B7E1A1C022313407B
S11335D004D0FB68DB68FA68101C9847BB680222B9
S11335E0134014D0FB681B6802221A76FB68DB7E4A
S11335F01A1C042313400AD0FB689B7E1A1C042364
S1133600134004D0FB681B69FA68101C9847BD4638
S113361004B080BD54070020613400008D340000E4
S1133620D134000080B500AF0020024B9847BD465E
S113363080BDC046F534000080B582B000AF0F4BAA
S11336401B68002B12D1EFF310837B607B68002B87
S113365009D172B6BFF35F8F094B00221A70094B70
S113366001221A7002E0074B00221A70034B1B68F8
S11336705A1C024B1A60BD4602B080BD9C0000205B
S113368010000020A000002080B500AF0A4B1B688A
S11336905A1E094B1A60084B1B68002B0AD1074BB2
S11336A01B78DBB2002B05D0054B01221A70BFF347
S11336B05F8F62B6BD4680BD9C000020A000002044
S11336C01000002080B582B000AF78607B68802253
S11336D01A707B6800225A707B6801229A707B689A
S11336E00022DA70BD4602B080BDC04680B584B009
S11336F000AF021C3960FB1D1A700C23FB18181C48
S11337000F4B98470C23FB1880221A703B681A78D9
S11337100C23FB185A703B685A780C23FB189A70D8
S11337203B689A780C23FB18DA70FB1D1A780C237B
S1133730FB18101C191C034B9847BD4604B080BDF0
S1133740C5360000915A000080B582B000AF7860A1
S11337507B6800221A70BD4602B080BDF0B58DB002
S113376000AFB860F9603A607B60002300243B62DC
S11337707C6200230024BB61FC613F23FB6253E0B5
S1133780FB6A203B002B04DB01229A40131C7B6163
S11337900BE0FB6A2022D31A0122DA40131C002119
S11337A0FA6A91400A1C13437B610122FB6A9A4026
S11337B0131C3B61BB69FC69DB186441BB61FC61A0
S11337C0BB683A691A40151CFB687A691A40161CD2
S11337D02B1C334307D0BB6901221343BB61FB6934
S11337E000221343FB617A68FB699A4219D87A680C
S11337F0FB699A4203D13A68BB699A4211D8B96904
S1133800FA693B687C68C91AA2410B1C141CBB6191
S1133810FC613A6A3B6913433B627A6A7B691343EE
S11338207B62FB6A013BFB62FB6A002BA8DA3B6A02
S11338307C6A181C211CBD460DB0F0BD80B586B055
S113384000AFF860B9607A601623FB1800221A8072
S1133850BB683B61BB685A08FB689A4201D24023AB
S113386026E0BB685B083B610AE03A69FB68D31A4F
S11338703B611623FB181A881623FB1801321A80A1
S11338803A69FB689A42F0D21623FB181622BA183A
S11338901288013A1A801623FB181B88FF2B01D9C2
S11338A0402305E07B681622BA1812881A80002388
S11338B0181CBD4606B080BDF0B59DB000AFF863DE
S11338C0B9637A633322BA18137000230024BB65EA
S11338D0FC65002300243B657C6500230024BB6653
S11338E0FC6600233B66582330229446BC44634460
S11338F01A78FB6B5A43BB6B9A4201D94023C9E047
S11339003323FB181B78002B3FD1582330229446D5
S1133910BC4463441B78DBB23B6100237B61FB6BDB
S1133920BB600023FB605D4C38697969BA68FB6849
S1133930A047031C0C1C1B00FB640023BB64BB6B73
S11339403B6000237B60BB6CFC6C181C211C3A6838
S11339507B68534CA047031C0C1CBB65FC65002111
S11339600122BB6DFC6DC91AA2410B1C141C3B65E2
S11339707C653B6D1B0C7A6D16041E433B6D1D0468
S11339803300BB660023FB667EE03323FB181B7801
S1133990012B00D078E0372330229446BC446344A2
S11339A000221A7051E0BB6BBB620023FB62B86A51
S11339B0F96A031C5B0F0A1CD2001343FB64031C4B
S11339C0DB00BB64FB6B3B6200237B625823302229
S11339D09446BC4463441B78DBB2BB610023FB61A7
S11339E02E4C386A796ABA69FB69A047031C0C1C1F
S11339F03B647C64B96CFA6C3B6C7C6C081C111CD9
S1133A001A1C231C264CA047031C0C1C3B663723A2
S1133A1030229446BC4463441B783A6ED31A3B6606
S1133A203B6EDB083B663B6E1E4A934200D814E0B3
S1133A30372330229446BC4463441A783723302118
S1133A408C46BC44634401321A70372330229446B6
S1133A50BC4463441B78072BA5D9372330229446F2
S1133A60BC4463441B78082B01D1402312E0372364
S1133A7030229446BC4463441B785B031A1C3B6E9F
S1133A801343BB660023FB66BB6EFC6E9AB27B6B72
S1133A901A800023181CBD461DB0F0BD51650000FE
S1133AA05D370000FF1F000080B584B000AF021C2A
S1133AB0FB1D1A70BB1D0A1C1A701A4B1B780122BD
S1133AC05340DBB2002B03D1BB1D1B78002B1BD052
S1133AD00C23FB18181C144B98470C23FB18FA1DD5
S1133AE012781A700C23FB180C20191C0F4B9847E2
S1133AF00C200F4B98470B4BFA1D12785A70094B48
S1133B0001221A70002308E0064B5B78FA1D127834
S1133B109A4201D1002300E01D23181CBD4604B0C5
S1133B2080BDC046A400002049370000A55700000E
S1133B30E957000080B582B000AF78600A1CFB1C16
S1133B401A707B684D4A93423FD04C4A934206D840
S1133B504B4A93420FD04B4A934221D089E04A4AC0
S1133B60934200D15BE0494A934200D16CE0484A59
S1133B7093423FD07DE0FB1C1B78012B0AD002DC72
S1133B80002B05D075E0022B06D0032B06D070E085
S1133B90404B6FE0404B6DE0404B6BE0404B69E0C5
S1133BA0FB1C1B78012B0AD002DC002B05D060E043
S1133BB0022B06D0032B06D05BE003235AE0394BDB
S1133BC058E0394B56E0394B54E0FB1C1B78012B71
S1133BD00AD002DC002B05D04BE0022B06D0032BCD
S1133BE006D046E0324B45E0324B43E0324B41E0F5
S1133BF0324B3FE0FB1C1B78012B0AD002DC002B6C
S1133C0005D036E0022B06D0032B06D031E02C4B36
S1133C1030E02C4B2EE02C4B2CE02C4B2AE0FB1CF0
S1133C201B78012B0AD002DC002B05D021E0022BEB
S1133C3006D0032B06D01CE0254B1BE0254B19E0D6
S1133C40254B17E0254B15E0FB1C1B78012B0AD0F4
S1133C5002DC002B05D00CE0022B06D0032B06D08F
S1133C6007E01F4B06E01F4B04E01F4B02E01F4B15
S1133C7000E00023181CBD4602B080BD00100042C5
S1133C8000080042000C004200180042001C0042E0
S1133C9000140042030004000300050003000600B2
S1133CA0030007000300010003001E0003001F00BF
S1133CB0030008000300090003000A0003000B00CE
S1133CC0030010000300110003001200030013009E
S1133CD003000C0003000D0003000E0003000F009E
S1133CE00300160003001700030018000300190066
S1133CF090B58BB000AF78600C23FB180E4A13CA42
S1133D0013C313CA13C300237B620DE07B680C2228
S1133D10BA18796A89008A58934202D17B6ADBB265
S1133D2006E07B6A01337B627B6A052BEED90023B4
S1133D30181CBD460BB090BD5C6F000080B582B00E
S1133D4000AF021CFB1D1A70BD4602B080BDC04608
S1133D5080B584B000AF021C3960FB1D1A70134B90
S1133D601B7801225340DBB2002B15D00023FB60EB
S1133D700CE00F4BFA6892000E49D1500E4BFA68D2
S1133D8092000021D150FB680133FB60FB68052BD6
S1133D90EFD9064B01221A70FB1D1A78044B9200CE
S1133DA03968D150BD4604B080BDC046A60000208D
S1133DB0A80000203D3D00005807002090B585B0C4
S1133DC000AF78600823FA180E4B111C1A1C062346
S1133DD0081C111C1A1C0C4B98470F23FC187B68F9
S1133DE0181C0A4B9847031C23700F23FB181B78DD
S1133DF00822BA18D35CDBB25BB2181CBD4605B00E
S1133E0090BDC046746F0000F1650000F13C0000F5
S1133E1080B500AF024B1B6800209847BD4680BDAB
S1133E20A800002080B500AF024B5B6801209847D2
S1133E30BD4680BDA800002080B500AF024B9B6842
S1133E4002209847BD4680BDA800002080B500AF81
S1133E50024BDB6803209847BD4680BDA8000020C4
S1133E6080B500AF024B1B6904209847BD4680BD56
S1133E70A800002080B500AF024B5B69052098477D
S1133E80BD4680BDA800002080B582B000AF786038
S1133E907B6880221A707B6800225A707B6801223A
S1133EA09A707B680022DA70BD4602B080BDC046BD
S1133EB080B584B000AF021CFB1D1A700F23FB18E1
S1133EC0FA1D1278D2091A700E23FB18FA1D127803
S1133ED052091A700D4BBB600F23FB181B78002B83
S1133EE00FD10F23FB181B789B0010229446BC446F
S1133EF06344083B1A680E23FB181B78DB01D318B4
S1133F0000E00023181CBD4604B080BD00440041FD
S1133F1080B582B000AF021CFB1D1A70FB1D1B781C
S1133F20181C034B9847031C181CBD4602B080BDE7
S1133F30B13E000080B584B000AF021CFB1D1A70B6
S1133F40BB1D0A1C1A70FB1D1B78181C0C4B9847D0
S1133F50031CFB60FB1D1B781F22134001229A40A7
S1133F60131CBB60BB1D1B78002B03D0FB68BA6815
S1133F709A6102E0FB68BA685A61BD4604B080BD2C
S1133F80113F000080B582B000AF78607B680022EA
S1133F901A70BD4602B080BD80B582B000AF021C6D
S1133FA03960FB1D1A70FB1D1B78012B0AD0022BF4
S1133FB00FD0002B14D10E4B0D4A91693A680A4375
S1133FC09A610FE00A4B0A4AD1693A680A43DA61F6
S1133FD008E0074B064A116A3A680A431A6201E08C
S1133FE0172300E00023181CBD4602B080BDC04664
S1133FF00004004080B500AF054B9B78DBB21A1C6F
S1134000022313405A1E9341DBB2181CBD4680BDE7
S11340100020004180B584B000AF78607B681B68E5
S1134020FB60FB689B7BDBB21A1C012313405A1E06
S11340309341DBB2181CBD4604B080BD80B584B08A
S113404000AF78607B681B68FB60FB689B7BDBB21E
S11340501A1C042313405A1E9341DBB2181CBD469C
S113406004B080BD80B584B000AF78600A1CBB1C6E
S11340701A807B681B68FB607B68181C0B4B984795
S1134080031C1A1C01235340DBB2002B01D005236F
S113409007E0BB1C1B88DB05DB0D9AB2FB681A83A7
S11340A00023181CBD4604B080BDC0461540000066
S11340B080B584B000AF786039607B681B68BB60F2
S11340C07B68181C1E4B9847031C1A1C0123534081
S11340D0DBB2002B01D010232DE00F23FB180022AC
S11340E01A70BB681B8A9BB21A1C042313400BD0A2
S11340F00F23FB181E221A70BB681B8A9BB2042272
S113410013439AB2BB681A827B689B79012B08D14E
S1134110BB681B8B9BB2DB05DB0D9AB23B681A8034
S113412006E0BB681B8B9BB2DBB29AB23B681A8079
S11341300F23FB181B78181CBD4604B080BDC04675
S11341403D40000090B593B000AF786039607B6863
S11341501B687B637B681B683B631C23FB18181C70
S11341607A4B98471C23FB1800225A703B681B7833
S1134170002B03D11C23FB1800229A703B685A6A57
S11341800C23FB181A603B689A6A0C23FB185A60CC
S11341903B68DA6A0C23FB189A603B681A6B0C23A1
S11341A0FB18DA604723FB1800221A702CE047231F
S11341B0FB181A780C23FB189200D3583B643B6C11
S11341C0002B09D13A6B4723FB181B78101C191CD0
S11341D05F4B9847031C3B643B6C01330DD03B6C35
S11341E0DAB21C23FB181A703B6C1B0CDAB21C23CA
S11341F0FB18101C191C574B98474723FB181A78B7
S11342004723FB1801321A704723FB181B78032B32
S1134210CDD93B681A787B685A713B681A7C7B68F5
S11342209A713B689A7C7B68DA710A23FB18002236
S11342301A800023FB630023BB633B681B78012BBC
S11342402BD17B681B68181C434B9847031CFB62EB
S1134250FB6A0D33BB62BB6ADBB2181C3F4B984749
S1134260031C7B623B6859692323FC187A6A0A237E
S1134270FB18081C111C1A1C394B9847031C23708B
S11342802323FB181B78002B01D017235AE00A23A1
S1134290FB181B88DAB27B6B9A723B681B78002B85
S11342A019D13B685B69FB633B681B8BBB637B6B0E
S11342B05B693A68927E111C3A68D27E12040A4302
S11342C01A437B6B5A613B681B7F002B03D0BB6B8B
S11342D040221343BB633B685B68FA6B1343FB6385
S11342E03B689B68FA6B1343FB633B68DB68FA6BC0
S11342F01343FB633B681B7C1A1CBB6B1343BB63FC
S11343003B685B7C002B03D1164B9847031E03D0FC
S1134310FB6B80221343FB633B689B7C002B04D024
S1134320BB6B802292021343BB637B6B1A68FB6BEB
S11343301A437B6B1A607B6B5A68BB6B1A437B6BAB
S11343405A600023181CBD4613B090BD893E00007E
S1134350353B0000915A0000F13C0000C9580000B0
S11343603D380000F53F000090B58BB000AFF86019
S1134370B9607A60FB68BA681A60FB681B683B62C4
S11343803B6A1B680222134001D01C23A5E03B6A50
S11343901B680122134001D005239EE0FB681B68C3
S11343A0181C504B9847031CFB61FB690233BB612B
S11343B0FB690D337B61BB6901229A40131C022007
S11343C0191C494B98471023FB18181C474B984756
S11343D07B6820229A5C1023FB181A707B69DAB27E
S11343E01023FB18101C191C414B98477B69DBB246
S11343F0181C404B98477B6820229B5C181C0021AA
S11344003D4B98477B681B78012B05D13B6A1B68A1
S11344100C221A433B6A1A607B681B78002B05D177
S11344203B6A1B6808221A433B6A1A602723FB185D
S113443000221A700FE02723FB181B78FA68023356
S11344409B00D31800225A602723FB181A782723CD
S1134450FB1801321A702723FB181B78042BEAD9A6
S1134460FB6800225A62FB6800221A62FB68002281
S11344709A85FB6800221A85FB682E220021995434
S1134480FB682F2200219954FB68302200219954A3
S1134490FB6803221A72FB6800221A71FB681B680E
S11344A01322BC18181C0F4B9847031C23701323AA
S11344B0FB181A78114B101C191C114B9847132325
S11344C0FB181A780F4B9200F968D150FA687B6890
S11344D0101C191C0C4B9847031C181CBD460BB030
S11344E090BDC046F13C0000993F0000853F0000AC
S11344F0A5570000E9570000A93A0000454800000C
S1134500513D0000580700204541000080B586B0A9
S113451000AFF860B960FB1D1A70FB685B79012B72
S113452001D0152355E0FB1D1B78002B4AD0BB6836
S11345305B78002B3FD0FB68181C284B9847031C62
S11345401A1C01235340DBB2002B07D0BB681B7835
S1134550181C0121224B984705233AE0BB681B78BD
S1134560181C00211E4B9847BB689B789BB2FA68C5
S1134570101C191C1B4B9847FB68DB790122534024
S1134580DBB2002B24D0C046FB68181C164B98479E
S1134590031C1A1C01235340DBB2002BF4D1162355
S11345A0FB1800221A80FA681623FB18101C191C29
S11345B00E4B98470CE0BB681B78181C0021084B75
S11345C0984705E0BB681B78181C0121044B9847E9
S11345D00023181CBD4606B080BDC046154000002F
S11345E0353F0000654000003D400000B140000040
S11345F080B586B000AFF860B9607A601A1CBB1C45
S11346001A80FB68BA1C12889A85FB68BA1C128847
S11346101A85FB687A681A62FB68BA685A62FB6892
S1134620302205219954FB6802221A72FB681B6828
S11346307B617B6905225A73FB685B79002B05D18A
S11346407B6902229A737B6902225A73BD4606B0C3
S113465080BDC04680B584B000AFF860B960FB1D72
S11346601A70FB1D1B78FA6802339B00D318BA68D2
S11346705A60FB682E229B5CD9B2FB1D1B78012279
S11346809A40131CDBB20A1C1343DBB2D9B2FB6899
S11346902E229954BD4604B080BDC04690B585B065
S11346A000AFF860B9607A601A1CBB1C1A80BB1C8E
S11346B01B88002B01D1172318E0FB68DB7901224A
S11346C05340DBB2002B01D01C230FE0FB683022E7
S11346D09B5CDBB2052B01D1052307E0F868B968C0
S11346E07A68BB1C1B88034CA0470023181CBD46DA
S11346F005B090BDF145000080B584B000AF78608E
S11347007B681B68BB607B685B6A1B78DAB20E232C
S1134710FB181A807B685B6A5A1C7B685A627B6848
S11347209B79012B12D17B685B6A1B78DBB21B027D
S11347309AB20E23FB181B8813439AB20E23FB185C
S11347401A807B685B6A5A1C7B685A620E23FB18CA
S11347501B88DB05DB0D9AB2BB681A837B689B8DD3
S11347609BB2013B9AB27B689A85BD4604B080BD7A
S113477080B584B000AF78607B681B68FB60074B32
S11347801A88FB681A837B685B8D9BB2013B9AB2E3
S11347907B685A85BD4604B080BDC04670070020C2
S11347A080B584B000AF78607B681B68FB600A2327
S11347B0FB1800221A800A23FB18FA68128B1A804D
S11347C07B685B8D9BB2013B9AB27B685A85BD4680
S11347D004B080BD80B584B000AF78607B681B688E
S11347E0FB60FB681B8B9AB20A23FB18D205D20D1F
S11347F01A807B681B6A0A22BA181288D2B21A700D
S11348007B681B6A5A1C7B681A627B689B79012B44
S11348100DD17B681B6A0A22BA181288120A92B256
S1134820D2B21A707B681B6A5A1C7B681A627B6856
S11348301B8D9BB2013B9AB27B681A85BD4604B0BE
S113484080BDC04680B586B000AF021CFB1D1A7047
S1134850FB1D1A78A24B9200D3587B617B691B68BD
S11348603B617B692F229A5C7B692E21595C0F2363
S1134870FB180A401A703B699B7BDAB20C23FB18C5
S11348801A803B695B7BDBB29AB20C23FB180C21C8
S1134890791809880A401A800C23FB181B88012206
S11348A0134041D07B695B79012B10D17B691B7A62
S11348B0DBB2002B0BD17B69181C8A4B98477B69B0
S11348C05B8D9BB2002B02D13B6901221A737B6979
S11348D05B79012B04D17B691B7ADBB2002B08D1F5
S11348E07B695B79002B1FD17B691B7ADBB2002BC0
S11348F01AD07B69181C7C4B98477B699B8D9BB2B3
S1134900002B11D13B6901221A737B691B7ADBB23C
S1134910012B09D17B69DB7901225340DBB2002BE7
S113492002D03B6902225A730C23FB181B88042211
S1134930134000D183E03B691B8A9BB21A1C0423F9
S1134940134027D07B691B7ADBB2012B14D07B691F
S113495030221E2199547B6903221A723B69052275
S11349601A730F23FB181B780822134004D07B69A9
S11349709B697A69101C98470A23FB183A69128BC1
S11349801A803B691B8A9BB2042213439AB23B6987
S11349901A8254E07B691B7ADBB2012B1ED17B693E
S11349A0181C524B98477B695B8D9BB2002B46D1F8
S11349B03B6904221A737B693022002199547B6974
S11349C003221A720F23FB181B780122134036D0DE
S11349D07B69DB687A69101C984730E07B69181C96
S11349E0434B98477B691B8D9BB2002B27D17B6976
S11349F03022002199543B6904221A737B691B7A83
S1134A00DBB2022B0BD10F23FB181B7804221340BB
S1134A1015D07B695B697A69101C98470FE07B6944
S1134A201B7ADBB2002B0AD10F23FB181B7802225E
S1134A30134004D07B691B697A69101C98470C23C6
S1134A40FB181B880222134046D07B695B79002B3C
S1134A501DD13B6907221A733B6902229A737B6951
S1134A6003221A727B6900229A857B6900221A85C7
S1134A707B693022002199540F23FB181B781022E4
S1134A80134004D07B69DB697A69101C98477B6901
S1134A905B79012B20D17B691B7ADBB2012B1BD103
S1134AA07B69DB7901225340DBB2002B14D03B69D4
S1134AB002221A737B6903221A727B693022002155
S1134AC099540F23FB181B780122134004D07B69EF
S1134AD0DB687A69101C9847BD4606B080BDC046A5
S1134AE05807002071470000F9460000A147000064
S1134AF0D547000080B582B000AF78607B680122A2
S1134B005A607B6800225A707B6806221A707B68A0
S1134B1000221A727B6800225A72BD4602B080BD20
S1134B2080B582B000AF78607B6800221A707B6821
S1134B300E225A707B6801229A707B68054A5A607B
S1134B407B6800221A727B6801225A72BD4602B049
S1134B5080BDC046001BB70080B582B000AF78604E
S1134B607B6803221A707B6800225A707B680122DA
S1134B709A70BD4602B080BD80B582B000AF786047
S1134B807B6800221A707B6800225A807B680022AE
S1134B909A807B6800229A717B680022DA717B68B4
S1134BA001225A707B6807221A727B683F225A815D
S1134BB07B6801221A737B680122DA817B680622F2
S1134BC01A82BD4602B080BD80B582B000AF021C1F
S1134BD0FB1D1A70034AFB1D1B781372BD4602B0FD
S1134BE080BDC0460004004080B582B000AF021C06
S1134BF0FB1D1A70BB1D0A1C1A70FB1D1B78012BB0
S1134C0008D0022B0BD0002B0ED10B4ABB1D1B78F6
S1134C1053720BE0084ABB1D1B78937206E0064AE8
S1134C20BB1D1B78D37201E0172300E00023181C7E
S1134C30BD4602B080BDC0460004004080B582B0CD
S1134C4000AF021CFB1D1A70084BFA1D12780F21CD
S1134C500A40D2B20F210A40520059681E208143F3
S1134C600A435A60BD4602B080BDC04600400041C0
S1134C7080B500AF024B9B69181CBD4680BDC04681
S1134C800020004180B500AFC046034BDB68102212
S1134C901340FAD0BD4680BD0008004080B500AF87
S1134CA00C4A0D4B1B689BB280218B439BB29384AF
S1134CB00A4B9847074A084B9B68D362054A064B40
S1134CC05B689362034A044B1B689BB29384BD46A2
S1134CD080BDC04600080040C0000020854C000094
S1134CE080B582B000AF021CFB1D1A70FB1D1B783F
S1134CF0072B35D89A001D4BD3181B689F461C4BB5
S1134D00DB682EE01B4B1B6A1B0A1A1C032313408F
S1134D10DBB21A1C184BD34023E080231B0220E093
S1134D2080231B021DE0124B1B691AE0104B1B6809
S1134D300222134001D1002313E0104B98470C4B7F
S1134D401B680422134009D000200D4B9847021C15
S1134D50074B9B681B041B0C534302E0094B00E008
S1134D600023181CBD4602B080BDC0467C6F000005
S1134D70C00000200008004000127A00854C0000AA
S1134D80C9580000006CDC0280B584B000AF7860C4
S1134D901A4B1B6AFB607B681B781A1C03231340A5
S1134DA0DAB20D23FB1803210A40101C1A780321E0
S1134DB08A43111C021C0A431A707B689A780C23DC
S1134DC0FB18D0011A787F210A40111C021C0A43E7
S1134DD01A707B685A780C23FB1801210A40900151
S1134DE01A7840218A43111C021C0A431A70034B8F
S1134DF0FA681A62BD4604B080BDC046000800408F
S1134E0080B584B000AF7860534A0C23FB18128A33
S1134E101A807B685B781A1C0F231340DAB20C23C8
S1134E20FB1810015A780F210A40111C021C0A4376
S1134E305A707B681B78002B06D10C23FB181A7858
S1134E4004210A431A7005E00C23FB181A78042184
S1134E508A431A707B689A780C23FB1801210A4054
S1134E60D0005A7808218A43111C021C0A435A7044
S1134E707B689B7801225340DBB2002B46D07B68D1
S1134E805B68364A934206D80C23FB185A780721EC
S1134E908A435A703AE07B685B68314A934209D886
S1134EA00C23FB185A7807218A43111C01220A4358
S1134EB05A702BE07B685B682A4A934209D80C231A
S1134EC0FB185A7807218A43111C02220A435A709C
S1134ED01CE07B685B68244A934209D80C23FB18C6
S1134EE05A7807218A43111C03220A435A700DE0A1
S1134EF07B685B681D4A934208D80C23FB185A78D8
S1134F0007218A43111C04220A435A707B685A7A87
S1134F100C23FB18D0011A787F210A40111C021CB3
S1134F200A431A707B681A7A0C23FB1801210A4081
S1134F3090011A7840218A43111C021C0A431A70FA
S1134F407B685A680A4BDA60034A0C23FB181B88F7
S1134F501382BD4604B080BD0008004080841E005A
S1134F6000093D0000127A000024F40080C3C90146
S1134F70C000002080B584B000AF7860394B9847FA
S1134F80031CFB60FA68F0231B011340FB60FB6801
S1134F901B0AFB60FB68022B0FD87B681B7A1B0281
S1134FA01A1CF8235B011A407B685B89191CFF23D8
S1134FB00B401A432C4B5A600BE07B681B7A9B0214
S1134FC01B041A0C7B685B899B059B0D1A43264BBB
S1134FD05A607B689A797B68DB791343DBB21A1CCD
S1134FE07B685B8813437A6892881A437B685B7892
S1134FF0DB011A431C4B1A607B681B78042B2ED1EF
S1135000FB68022B14D87B681B7B1B061A1CF82335
S11350105B051A407B68DB891B04191CFF231B04F6
S11350200B4013437A68128A1A430F4B9A600FE0BD
S11350307B681B7B9B061A1C7B68DB891B04191C81
S11350400A4B0B4013437A68128A1A43064B9A6040
S1135050054B1B687A6812781A43034B1A60BD46E5
S113506004B080BD714C0000C00000200000FF03AC
S113507080B582B000AF021CFB1D1A70FB1D1B78AB
S1135080072B30D89A001B4BD3181B689F461A4B2A
S1135090194A126A02210A431A62002326E0164BB7
S11350A0154A926902210A439A611EE0124A124B80
S11350B01B8A9BB202210B439BB2138215E00E4A5A
S11350C00D4B9B8A9BB202210B439BB293820CE053
S11350D00A4B1B6802221A43084B1A60084B984774
S11350E003E0002302E0172300E00023181CBD4660
S11350F002B080BD9C6F000000080040C00000208A
S11351009D4C000080B584B000AF021CFB1D1A70DA
S11351100023FB60FB1D1B78072B15D89A00124B4C
S1135120D3181B689F460823FB600FE00423FB6031
S11351300CE00123FB6009E00223FB6006E010237E
S1135140FB6003E001230AE0002308E0074BDB686F
S1135150FA681A40FB68D31A5A425341DBB2181C4E
S1135160BD4604B080BDC046BC6F000000080040CE
S113517080B582B000AF3B1C02221A7000237B6012
S113518009E07B68DAB23B1C101C191C054B9847DC
S11351907B6801337B607B681B2BF2D9BD4602B070
S11351A080BDC046A557000080B5A8B000AF9D4B98
S11351B0C222D2009A6000209B4B98479B4B984791
S11351C08C23FB18181C9A4B98478C23FB1800223D
S11351D01A708C23FB180F225A708C23FB1801229F
S11351E09A708C23FB18934A5A608C23FB18012273
S11351F05A728C23FB1800221A728C23FB18181C79
S11352008D4B984700208D4B98477823FB18181C2A
S11352108B4B98477823FB1800221A707823FB18CD
S113522000225A70874B9847031C9822BA181360BF
S11352309823FB181A68F0231B0113409822BA180C
S113524013609823FB181B681B0A9822BA18136072
S11352509823FB181B68022B15D97B4B1B689B0EEC
S11352609C22BA1813609C23FB181B683F2B03D1A4
S11352701F239C22BA1813609C23FB181B68DAB204
S11352807823FB181A727823FB183F225A8178235B
S1135290FB1800225A807823FB180022DA71782345
S11352A0FB1800229A717823FB1800229A80782335
S11352B0FB1807221A737823FB183F22DA8178231C
S11352C0FB18181C614B98477423FB18181C604B7F
S11352D098477423FB1800221A707423FB180122C8
S11352E09A707423FB1800225A707423FB18181C3C
S11352F0584B98470620514B9847574B98475C2387
S1135300FB18181C554B98475C23FB1806221A708F
S11353105C23FB1801225A605C23FB1800221A72DA
S11353205C23FB1800225A725C23FB180120191C11
S11353304B4B984701204B4B98474423FB18181CB0
S1135340464B98474423FB1806221A704423FB1843
S113535005225A604423FB1800221A724423FB18C6
S113536000225A724423FB180320191C3C4B984713
S113537003203C4B98473823FB18181C374B98479D
S11353803823FB1800221A703823FB1801225A60B4
S11353903823FB1800221A723823FB1800225A7291
S11353A03823FB180420191C2D4B984704202D4B3F
S11353B098470720214B9847C04607202A4B984717
S11353C0031C1A1C01235340DBB2002BF5D100202F
S11353D0264B984700200021254B984701200021A7
S11353E0234B984702200021214B98473B1D181C52
S11353F01A4B98473B1D06221A703B1D01225A6026
S11354003B1D00221A723B1D00225A723B1D0020D4
S1135410191C134B98470020124B9847BD4628B0DF
S113542080BDC046000800403D4C000071510000A2
S1135430214B0000001BB700014E0000715000001A
S1135440794B0000714C000024608000754F00000F
S1135450594B0000894D000015550000F54A000025
S1135460455500006556000005510000C94B000079
S1135470E94B000080B582B000AF021C3960FB1D0F
S11354801A70FB1D1B78012B0AD0022B0FD0002BA6
S113549014D10E4B0D4A91693A680A439A610FE0A0
S11354A00A4B0A4AD1693A680A43DA6108E0074BB1
S11354B0064A116A3A680A431A6201E0172300E0B7
S11354C00023181CBD4602B080BDC0460004004045
S11354D080B500AF014B9847BD4680BD393600000A
S11354E080B500AF014B9847BD4680BD89360000AA
S11354F080B500AF064B5B78DBB2DBB25BB2002B4E
S113550001DA012300E00023181CBD4680BDC0461B
S1135510000C004080B500AF00200821074B9847DD
S1135520074B01221A70C046054B1B78DBB21A1CCC
S113553001231340F8D1BD4680BDC0467554000018
S1135540000C004080B586B000AF021C3960FB1D22
S11355501A70FB1D1B787B61FB1D1B783B613B684C
S11355601B781B021A1C7B6913437B613B685B78C5
S1135570002B04D07B698022D20213437B613B68F9
S11355805B7A002B04D07B698022120313437B6176
S11355903B685B68012B2CD93B685A683B685B68A5
S11355A0013B13401AD10023FB600223BB6005E0DA
S11355B0FB680133FB60BB685B00BB603B685A68F7
S11355C0BB689A42F4D8FB681B023A6913433B61F7
S11355D07B698022520313437B610AE03B685B686A
S11355E01B023A6913433B617B6980229202134395
S11355F07B613B681B7A002B04D07B698022920379
S113560013437B61C046124B9847031EFBD1114BD9
S11356109847114AFB1D1B781370C0460C4B9847E2
S1135620031EFBD10D4B3A699A60C046084B98475C
S1135630031EFBD1094B094A5168802252021140D2
S11356407A690A435A60064B9847BD4606B080BD46
S1135650F1540000D1540000080C0040000C00403C
S1135660E154000080B582B000AF021CFB1D1A702B
S1135670C0460D4B9847031EFBD10C4B98470C4A70
S1135680FB1D1B781370C046074B9847031EFBD1C4
S1135690084B084A5268802149020A435A60064B63
S11356A09847BD4602B080BDF1540000D1540000BB
S11356B0040C0040000C0040E154000080B586B0AA
S11356C000AF021CFB1D1A70C0462E4B9847031EE8
S11356D0FBD12D4B98472D4AFB1D1B781370C046F8
S11356E0284B9847031EFBD1294B5B681B0A1A1CE5
S11356F01F231340DBB2181C264B9847031C7B6105
S1135700224AFB1D1B781370214B5B681B0D1A1C6E
S113571001231340DAB21323FB181A701E4AFB1D2F
S11357201B781370C046174B9847031EFBD1184BC8
S11357309B681B0A1A1C00239A43131C9BB2FB6030
S1135740164B98471323FB181B78002B09D1FB68D1
S1135750012B06D9124B7869F9689847031C7B61C1
S11357600AE01323FB181B78002B05D0FB680133D8
S11357701A1C7B69D3407B617B69181CBD4606B04B
S113578080BDC046F1540000D1540000040C004018
S1135790000C0040E14C0000080C0040E154000003
S11357A02D64000080B584B000AF021C3960FB1D7D
S11357B01A70FB1D1B78FB603B681B781B021A1CCC
S11357C0FB681343FB60FB1D1B78181C044B9847B4
S11357D0044BFA6892B25A80BD4604B080BDC046FC
S11357E02D580000000C004080B582B000AF021CB0
S11357F0FB1D1A70094B9847094AFB1D1B7813704F
S11358000849084B5B889BB28022D20113439BB2A8
S11358104B80054B9847BD4602B080BDD154000073
S1135820020C0040000C0040E154000080B584B03C
S113583000AF021CFB1D1A701D4B98471D4AFB1D2F
S11358401B7813701C4B5B889BB21B0A1A1C0F231A
S11358501340DBB2FB60184B5A8818490A405A803F
S1135860154A154B5B889BB215490B409BB253807C
S1135870C046114B5B889BB21A1C8023DB0113408A
S1135880F7D10D4BFA68D2B2111C0F220A40D2B2E2
S1135890111C0F220A4010025A8808490A40111CA0
S11358A0021C0A435A80074B9847BD4604B080BD8A
S11358B0D1540000020C0040000C0040FFF0FFFF38
S11358C0FFBFFFFFE154000080B584B000AF021CAD
S11358D0FB1D1A700E4B98470E4AFB1D1B78137064
S11358E00D4B5B889BB21B0A1A1C0F231340DAB2C0
S11358F00F23FB181A70094B98470F23FB181B78CA
S1135900181C074B9847031C181CBD4604B080BDE7
S1135910D1540000020C0040000C0040E15400008F
S1135920BD56000080B584B000AF021CFB1D1A7088
S11359300F23FB18FA1D1278D2091A700E23FB18D4
S1135940FA1D127852091A700D4BBB600F23FB1815
S11359501B78002B0FD10F23FB181B789B00102200
S11359609446BC446344083B1A680E23FB181B7816
S1135970DB01D31800E00023181CBD4604B080BD31
S11359800044004180B588B000AFF860B9607A6027
S11359900023FB617B68DB7801225340DBB2002BE0
S11359A035D07B681B78802B0BD0FB698022520298
S11359B01343FB617B681B781B061A1CFB691343AA
S11359C0FB617B685B78002B03D07B685B78022BE0
S11359D010D1FB69802292021343FB617B689B78A0
S11359E0002B04D0FB698022D2021343FB61FB68C5
S11359F0BA685A607B685B78012B03D07B685B785C
S1135A00022B07D1FB69214A1340FB6102E0FB68CA
S1135A10BA685A60BB681B041B0CBB61BB681B0CD7
S1135A207B61BA69FB691343A022D2051A43FB6860
S1135A309A627A69FB691343D02212061A43FB68FF
S1135A409A627B68DB7801225340DBB2002B1AD0C8
S1135A50FA698023DB0213400AD07B689B78012B10
S1135A6003D1FB68BA689A6102E0FB68BA685A61BC
S1135A707B685B78012B03D07B685B78022B02D1B7
S1135A80FB68BA689A60BD4608B080BDFFFFFBFFA3
S1135A9080B584B000AF021C3960FB1D1A70FB1D79
S1135AA01B78181C0B4B9847031CFB60FB1D1B78D1
S1135AB01F22134001229A40131CBB60F968BA6884
S1135AC03B68081C111C1A1C034B9847BD4604B0C4
S1135AD080BDC046255900008559000080B584B0BA
S1135AE000AFF860B960FB1D1A70FB1D1A78FB68E3
S1135AF002329200B968D150FB1D1B78022B07D1EA
S1135B00FB681B7E10221343DAB2FB681A761AE094
S1135B10FB1D1B78032B07D1FB681B7E202213433C
S1135B20DAB2FB681A760EE0FB681B7ED9B2FB1D65
S1135B301B7801229A40131CDBB20A1C1343DBB20C
S1135B40DAB2FB681A760023181CBD4604B080BD87
S1135B5080B500AF0020024B9847BD4680BDC046CB
S1135B60F15B000080B500AF0120024B9847BD46B1
S1135B7080BDC046F15B000080B500AF0220024B3F
S1135B809847BD4680BDC046F15B000080B500AFBC
S1135B900320024B9847BD4680BDC046F15B000020
S1135BA080B500AF0420024B9847BD4680BDC04677
S1135BB0F15B000080B500AF0520024B9847BD465D
S1135BC080BDC046F15B000080B500AF0620024BEB
S1135BD09847BD4680BDC046F15B000080B500AF6C
S1135BE00720024B9847BD4680BDC046F15B0000CC
S1135BF080B584B000AF021CFB1D1A70FB1D1A781F
S1135C00284B9200D358FB60FB681B689B7BDBB27C
S1135C10FA68127E1340DAB2FB68597E0B23FB1834
S1135C200A401A700B23FB181B780122134008D07A
S1135C30FB689B68FA68101C9847FB681B68012284
S1135C409A730B23FB181B780222134008D0FB68BD
S1135C50DB68FA68101C9847FB681B6802229A7379
S1135C600B23FB181B781022134008D0FB681B6918
S1135C70FA68101C9847FB681B6810229A730B2360
S1135C80FB181B782022134008D0FB685B69FA6874
S1135C90101C9847FB681B6820229A73BD4604B009
S1135CA080BDC0467407002080B582B000AF786024
S1135CB07B6800221A70BD4602B080BD80B582B0F8
S1135CC000AF021C3960FB1D1A70FB1D1B78012BF1
S1135CD00AD0022B0FD0002B14D10E4B0D4A916920
S1135CE03A680A439A610FE00A4B0A4AD1693A6852
