S01D000054435F515549434B5F53544152545F54494D4552322E7372656395
S113000030210020D125000065260000652600006F
S113001000000000000000000000000000000000DC
S11300200000000000000000000000006526000041
S113003000000000000000006526000065260000A6
S11300406526000065260000652600006526000080
S113005065260000652600006526000051070000A3
S113006065070000790700008D070000A107000064
S1130070B5070000091F00001D1F0000311F00000C
S1130080451F0000591F00006D1F0000811F000064
S1130090951F000065260000652600006526000007
S11300A06526000010B5064C2378002B07D1054BBC
S11300B0002B02D0044800E000BF0123237010BDD0
S11300C034000020000000003C2F000008B5084B5D
S11300D0002B03D00748084900E000BF0748036825
S11300E0002B00D108BD064B002BFBD09847F9E745
S11300F0000000003C2F0000380000203C2F0000CE
S11301000000000080B582B000AF0F4B1B68002BCD
S113011012D1EFF310837B607B68002B09D172B698
S1130120BFF35F8F094B00221A70094B01221A702A
S113013002E0074B00221A70034B1B685A1C024B47
S11301401A60BD4602B080BD5000002000000020AF
S11301505400002080B500AF0A4B1B685A1E094B9F
S11301601A60084B1B68002B0AD1074B1B78DBB2C3
S1130170002B05D0054B01221A70BFF35F8F62B6C6
S1130180BD4680BD50000020540000200000002027
S113019080B584B000AF021CFB1D1A700F23FB183E
S11301A0FA1D1278D2091A700E23FB18FA1D127860
S11301B052091A700D4BBB600F23FB181B78002BE0
S11301C00FD10F23FB181B789B0010229446BC44CC
S11301D06344083B1A680E23FB181B78DB01D31811
S11301E000E00023181CBD4604B080BD004400415B
S11301F080B582B000AF021CFB1D1A70FB1D1B787A
S1130200181C034B9847031C181CBD4602B080BD44
S11302109101000080B582B000AF78607B68002255
S11302201A707B6801225A707B6800229A70BD465E
S113023002B080BD80B584B000AF021CFB1D1A70F3
S1130240BB1D0A1C1A70FB1D1B78181C0C4B98470D
S1130250031CFB60FB1D1B781F22134001229A40E4
S1130260131CBB60BB1D1B78002B03D0FB68BA6852
S11302709A6102E0FB68BA685A61BD4604B080BD69
S1130280F101000080B582B000AF3B1D181C0E4B7D
S113029098473B1D01221A703B1D0E20191C0B4B65
S11302A098470E2001210A4B98473B1D00221A70E3
S11302B03B1D01225A703B1D0F20191C034B98470C
S11302C0BD4602B080BDC04615020000FD0200001C
S11302D03502000080B582B000AF78607B68802270
S11302E01A707B6800225A707B6801229A707B68BE
S11302F00022DA70BD4602B080BDC04680B584B02D
S113030000AF021C3960FB1D1A700C23FB18181C6B
S11303100F4B98470C23FB1880221A703B681A78FD
S11303200C23FB185A703B685A780C23FB189A70FC
S11303303B689A780C23FB18DA70FB1D1A780C239F
S1130340FB18101C191C034B9847BD4604B080BD14
S1130350D50200000D1E000080B582B000AF7860A9
S11303607B6800221A70BD4602B080BD80B586B09D
S113037000AFF860B9607A601623FB1800221A8077
S1130380BB683B61BB685A08FB689A4201D24023B0
S113039026E0BB685B083B610AE03A69FB68D31A54
S11303A03B611623FB181A881623FB1801321A80A6
S11303B03A69FB689A42F0D21623FB181622BA183F
S11303C01288013A1A801623FB181B88FF2B01D9C7
S11303D0402305E07B681622BA1812881A8000238D
S11303E0181CBD4606B080BD80B584B000AF021CA9
S11303F0FB1D1A70BB1D0A1C1A701A4B1B780122B4
S11304005340DBB2002B03D1BB1D1B78002B1BD048
S11304100C23FB18181C144B98470C23FB18FA1DCB
S113042012781A700C23FB180C20191C0F4B9847D8
S11304300C200F4B98470B4BFA1D12785A70094B3E
S113044001221A70002308E0064B5B78FA1D12782B
S11304509A4201D1002300E01D23181CBD4604B0BC
S113046080BDC0465800002059030000211B000035
S1130470651B000080B582B000AF78600A1CFB1CCD
S11304801A707B684D4A93423FD04C4A934206D837
S11304904B4A93420FD04B4A934221D089E04A4AB7
S11304A0934200D15BE0494A934200D16CE0484A50
S11304B093423FD07DE0FB1C1B78012B0AD002DC69
S11304C0002B05D075E0022B06D0032B06D070E07C
S11304D0404B6FE0404B6DE0404B6BE0404B69E0BC
S11304E0FB1C1B78012B0AD002DC002B05D060E03A
S11304F0022B06D0032B06D05BE003235AE0394BD2
S113050058E0394B56E0394B54E0FB1C1B78012B67
S11305100AD002DC002B05D04BE0022B06D0032BC3
S113052006D046E0324B45E0324B43E0324B41E0EB
S1130530324B3FE0FB1C1B78012B0AD002DC002B62
S113054005D036E0022B06D0032B06D031E02C4B2D
S113055030E02C4B2EE02C4B2CE02C4B2AE0FB1CE7
S11305601B78012B0AD002DC002B05D021E0022BE2
S113057006D0032B06D01CE0254B1BE0254B19E0CD
S1130580254B17E0254B15E0FB1C1B78012B0AD0EB
S113059002DC002B05D00CE0022B06D0032B06D086
S11305A007E01F4B06E01F4B04E01F4B02E01F4B0C
S11305B000E00023181CBD4602B080BD00100042BC
S11305C000080042000C004200180042001C0042D7
S11305D000140042030004000300050003000600A9
S11305E0030007000300010003001E0003001F00B6
S11305F0030008000300090003000A0003000B00C5
S11306000300100003001100030012000300130094
S113061003000C0003000D0003000E0003000F0094
S1130620030016000300170003001800030019005C
S113063090B58BB000AF78600C23FB180E4A13CA38
S113064013C313CA13C300237B620DE07B680C221F
S1130650BA18796A89008A58934202D17B6ADBB25C
S113066006E07B6A01337B627B6A052BEED90023AB
S1130670181CBD460BB090BD642E000080B582B03E
S113068000AF021CFB1D1A70BD4602B080BDC046FF
S113069080B584B000AF021C3960FB1D1A70134B87
S11306A01B7801225340DBB2002B15D00023FB60E2
S11306B00CE00F4BFA6892000E49D1500E4BFA68C9
S11306C092000021D150FB680133FB60FB68052BCD
S11306D0EFD9064B01221A70FB1D1A78044B9200C5
S11306E03968D150BD4604B080BDC0465A000020D0
S11306F05C0000207D060000A000002090B585B0BD
S113070000AF78600823FA180E4B111C1A1C06233C
S1130710081C111C1A1C0C4B98470F23FC187B68EF
S1130720181C0A4B9847031C23700F23FB181B78D3
S11307300822BA18D35CDBB25BB2181CBD4605B004
S113074090BDC0467C2E0000412E00003106000002
S113075080B500AF024B1B6800209847BD4680BDA2
S11307605C00002080B500AF024B5B680120984715
S1130770BD4680BD5C00002080B500AF024B9B6885
S113078002209847BD4680BD5C00002080B500AFC4
S1130790024BDB6803209847BD4680BD5C00002007
S11307A080B500AF024B1B6904209847BD4680BD4D
S11307B05C00002080B500AF024B5B6905209847C0
S11307C0BD4680BD5C00002080B582B000AF78607B
S11307D07B6880221A707B6800225A707B68012231
S11307E09A707B680022DA70BD4602B080BDC046B4
S11307F080B582B000AF78607B6800221A70BD4675
S113080002B080BD80B582B000AF021C3960FB1D10
S11308101A70FB1D1B78012B0AD0022B0FD0002B62
S113082014D10E4B0D4A91693A680A439A610FE05C
S11308300A4B0A4AD1693A680A43DA6108E0074B6D
S1130840064A116A3A680A431A6201E0172300E073
S11308500023181CBD4602B080BDC0460004004001
S113086080B500AF054B9B78DBB21A1C0223134002
S11308705A1E9341DBB2181CBD4680BD00200041C6
S113088090B593B000AF786039607B681B687B6378
S11308907B681B683B631C23FB18181C7A4B984726
S11308A01C23FB1800225A703B681B78002B03D1D1
S11308B01C23FB1800229A703B685A6A0C23FB180D
S11308C01A603B689A6A0C23FB185A603B68DA6A20
S11308D00C23FB189A603B681A6B0C23FB18DA6034
S11308E04723FB1800221A702CE04723FB181A78C0
S11308F00C23FB189200D3583B643B6C002B09D1AA
S11309003A6B4723FB181B78101C191C5F4B984744
S1130910031C3B643B6C01330DD03B6CDAB21C23EB
S1130920FB181A703B6C1B0CDAB21C23FB18101C4E
S1130930191C574B98474723FB181A784723FB1871
S113094001321A704723FB181B78032BCDD93B685F
S11309501A787B685A713B681A7C7B689A713B6889
S11309609A7C7B68DA710A23FB1800221A80002320
S1130970FB630023BB633B681B78012B2BD17B6893
S11309801B68181C434B9847031CFB62FB6A0D331E
S1130990BB62BB6ADBB2181C3F4B9847031C7B62EB
S11309A03B6859692323FC187A6A0A23FB18081C3C
S11309B0111C1A1C394B9847031C23702323FB1862
S11309C01B78002B01D017235AE00A23FB181B883D
S11309D0DAB27B6B9A723B681B78002B19D13B68A7
S11309E05B69FB633B681B8BBB637B6B5B693A682E
S11309F0927E111C3A68D27E12040A431A437B6B1E
S1130A005A613B681B7F002B03D0BB6B402213430E
S1130A10BB633B685B68FA6B1343FB633B689B688F
S1130A20FA6B1343FB633B68DB68FA6B1343FB63AA
S1130A303B681B7C1A1CBB6B1343BB633B685B7C2E
S1130A40002B03D1164B9847031E03D0FB6B802267
S1130A501343FB633B689B7C002B04D0BB6B80225D
S1130A6092021343BB637B6B1A68FB6B1A437B6B69
S1130A701A607B6B5A68BB6B1A437B6B5A6000230A
S1130A80181CBD4613B090BDC907000075040000D2
S1130A900D1E000031060000451C00006D0300001F
S1130AA06108000090B58BB000AFF860B9607A605F
S1130AB0FB68BA681A60FB681B683B623B6A1B6888
S1130AC00222134001D01C23A5E03B6A1B680122CB
S1130AD0134001D005239EE0FB681B68181C504B93
S1130AE09847031CFB61FB690233BB61FB690D334F
S1130AF07B61BB6901229A40131C0220191C494BDB
S1130B0098471023FB18181C474B98477B682022F2
S1130B109A5C1023FB181A707B69DAB21023FB1855
S1130B20101C191C414B98477B69DBB2181C404BC5
S1130B3098477B6820229B5C181C00213D4B9847FA
S1130B407B681B78012B05D13B6A1B680C221A4376
S1130B503B6A1A607B681B78002B05D13B6A1B68D3
S1130B6008221A433B6A1A602723FB1800221A70D2
S1130B700FE02723FB181B78FA6802339B00D31875
S1130B8000225A602723FB181A782723FB18013206
S1130B901A702723FB181B78042BEAD9FB68002260
S1130BA05A62FB6800221A62FB6800229A85FB687D
S1130BB000221A85FB682E2200219954FB682F22FB
S1130BC000219954FB68302200219954FB680322C8
S1130BD01A72FB6800221A71FB681B681322BC1886
S1130BE0181C0F4B9847031C23701323FB181A7807
S1130BF0114B101C191C114B98471323FB181A781E
S1130C000F4B9200F968D150FA687B68101C191CCC
S1130C100C4B9847031C181CBD460BB090BDC04636
S1130C203106000005080000F1070000211B000048
S1130C30651B0000E90300009D0E00009106000002
S1130C40A00000208108000080B586B000AFF860E5
S1130C50B9607A601A1CBB1C1A80FB68BA1C128823
S1130C609A85FB68BA1C12881A85FB687A681A622E
S1130C70FB68BA685A62FB68302205219954FB6804
S1130C8002221A72FB681B687B617B6905225A7316
S1130C90FB685B79002B05D17B6902229A737B691F
S1130CA002225A73BD4606B080BDC04680B584B0EA
S1130CB000AFF860B960FB1D1A70FB1D1B78FA6861
S1130CC002339B00D318BA685A60FB682E229B5CDF
S1130CD0D9B2FB1D1B7801229A40131CDBB20A1CFB
S1130CE01343DBB2D9B2FB682E229954BD4604B03B
S1130CF080BDC04690B585B000AFF860B9607A6039
S1130D001A1CBB1C1A80BB1C1B88002B01D1172387
S1130D1018E0FB68DB7901225340DBB2002B01D0E1
S1130D201C230FE0FB6830229B5CDBB2052B01D156
S1130D30052307E0F868B9687A68BB1C1B88034C74
S1130D40A0470023181CBD4605B090BD490C000007
S1130D5080B584B000AF78607B681B68BB607B683B
S1130D605B6A1B78DAB20E23FB181A807B685B6A15
S1130D705A1C7B685A627B689B79012B12D17B6871
S1130D805B6A1B78DBB21B029AB20E23FB181B882A
S1130D9013439AB20E23FB181A807B685B6A5A1CB1
S1130DA07B685A620E23FB181B88DB05DB0D9AB2A5
S1130DB0BB681A837B689B8D9BB2013B9AB27B68AC
S1130DC09A85BD4604B080BD80B584B000AF78601C
S1130DD07B681B68FB60074B1A88FB681A837B6877
S1130DE05B8D9BB2013B9AB27B685A85BD4604B0C9
S1130DF080BDC046B800002080B584B000AF7860E4
S1130E007B681B68FB600A23FB1800221A800A23F4
S1130E10FB18FA68128B1A807B685B8D9BB2013BCE
S1130E209AB27B685A85BD4604B080BD80B584B053
S1130E3000AF78607B681B68FB60FB681B8B9AB211
S1130E400A23FB18D205D20D1A807B681B6A0A227A
S1130E50BA181288D2B21A707B681B6A5A1C7B6853
S1130E601A627B689B79012B0DD17B681B6A0A226D
S1130E70BA181288120A92B2D2B21A707B681B6A2C
S1130E805A1C7B681A627B681B8D9BB2013B9AB229
S1130E907B681A85BD4604B080BDC04680B586B067
S1130EA000AF021CFB1D1A70FB1D1A78A24B9200A6
S1130EB0D3587B617B691B683B617B692F229A5CF9
S1130EC07B692E21595C0F23FB180A401A703B6979
S1130ED09B7BDAB20C23FB181A803B695B7BDBB289
S1130EE09AB20C23FB180C21791809880A401A803D
S1130EF00C23FB181B880122134041D07B695B79CA
S1130F00012B10D17B691B7ADBB2002B0BD17B69DF
S1130F10181C8A4B98477B695B8D9BB2002B02D1CE
S1130F203B6901221A737B695B79012B04D17B69CC
S1130F301B7ADBB2002B08D17B695B79002B1FD1B4
S1130F407B691B7ADBB2002B1AD07B69181C7C4BA3
S1130F5098477B699B8D9BB2002B11D13B69012281
S1130F601A737B691B7ADBB2012B09D17B69DB79AC
S1130F7001225340DBB2002B02D03B6902225A7398
S1130F800C23FB181B880422134000D183E03B6927
S1130F901B8A9BB21A1C0423134027D07B691B7A3B
S1130FA0DBB2012B14D07B6930221E2199547B695A
S1130FB003221A723B6905221A730F23FB181B784C
S1130FC00822134004D07B699B697A69101C9847F6
S1130FD00A23FB183A69128B1A803B691B8A9BB25D
S1130FE0042213439AB23B691A8254E07B691B7A48
S1130FF0DBB2012B1ED17B69181C524B98477B69CD
S11310005B8D9BB2002B46D13B6904221A737B692A
S11310103022002199547B6903221A720F23FB1892
S11310201B780122134036D07B69DB687A69101C77
S1131030984730E07B69181C434B98477B691B8DAC
S11310409BB2002B27D17B693022002199543B6944
S113105004221A737B691B7ADBB2022B0BD10F2398
S1131060FB181B780422134015D07B695B697A69ED
S1131070101C98470FE07B691B7ADBB2002B0AD166
S11310800F23FB181B780222134004D07B691B69D1
S11310907A69101C98470C23FB181B880222134002
S11310A046D07B695B79002B1DD13B6907221A73FB
S11310B03B6902229A737B6903221A727B690022BC
S11310C09A857B6900221A857B6930220021995414
S11310D00F23FB181B781022134004D07B69DB69B3
S11310E07A69101C98477B695B79012B20D17B6955
S11310F01B7ADBB2012B1BD17B69DB7901225340C4
S1131100DBB2002B14D03B6902221A737B690322E1
S11311101A727B693022002199540F23FB181B7823
S11311200122134004D07B69DB687A69101C98475C
S1131130BD4606B080BDC046A0000020C90D000019
S1131140510D0000F90D00002D0E000080B582B095
S113115000AF78607B6801225A607B6800225A7075
S11311607B6806221A707B6800221A727B68002250
S11311705A72BD4602B080BD80B582B000AF7860BF
S11311807B6800221A707B6804225A707B680022F4
S11311909A707B68802212029A607B680022DA705F
S11311A07B6801221A717B6800221A737B68012212
S11311B05A737B6800229A73BD4602B080BDC04654
S11311C080B582B000AF78607B6803221A707B68B8
S11311D000225A707B6801229A70BD4602B080BD1D
S11311E080B582B000AF021CFB1D1A70034AFB1DC0
S11311F01B781372BD4602B080BDC0460004004097
S113120080B582B000AF021CFB1D1A70BB1D0A1C06
S11312101A70FB1D1B78012B08D0022B0BD0002B5E
S11312200ED10B4ABB1D1B7853720BE0084ABB1D41
S11312301B78937206E0064ABB1D1B78D37201E04B
S1131240172300E00023181CBD4602B080BDC04631
S11312500004004080B582B000AF021CFB1D1A7070
S1131260084BFA1D12780F210A40D2B20F210A400E
S1131270520059681E2081430A435A60BD4602B099
S113128080BDC0460040004180B500AFC046034B5E
S1131290DB6810221340FAD0BD4680BD0008004030
S11312A080B500AF0C4A0D4B1B689BB280218B4369
S11312B09BB293840A4B9847074A084B9B68D362B6
S11312C0054A064B5B689362034A044B1B689BB256
S11312D09384BD4680BDC0460008004074000020D1
S11312E08912000080B582B000AF021CFB1D1A7089
S11312F0FB1D1B78072B35D89A001D4BD3181B6890
S11313009F461C4BDB682EE01B4B1B6A1B0A1A1CF6
S113131003231340DBB21A1C184BD34023E0802371
S11313201B0220E080231B021DE0124B1B691AE004
S1131330104B1B680222134001D1002313E0104B11
S113134098470C4B1B680422134009D000200D4B16
S11313509847021C074B9B681B041B0C534302E079
S1131360094B00E00023181CBD4602B080BDC046F6
S1131370842E0000740000200008004000127A004F
S113138089120000451C0000006CDC0280B584B0AA
S113139000AF78601A4B1B6AFB607B681B781A1CD1
S11313A003231340DAB20D23FB1803210A40101C57
S11313B01A7803218A43111C021C0A431A707B68A1
S11313C09A780C23FB18D0011A787F210A40111C4B
S11313D0021C0A431A707B685A780C23FB180121FB
S11313E00A4090011A7840218A43111C021C0A43C6
S11313F01A70034BFA681A62BD4604B080BDC04639
S11314000008004080B584B000AF7860424A0C23E5
S1131410FB18928A1A807B685B781A1C0723134096
S1131420DAB20C23FB1807210A40101C5A78072152
S11314308A43111C021C0A435A707B681B78002BD8
S113144006D10C23FB181A7804210A431A7005E00C
S11314500C23FB181A7804218A431A707B689A7843
S11314600C23FB1801210A4050011A7820218A43D9
S1131470111C021C0A431A707B68DA780C23FB18CF
S113148001210A4010011A7810218A43111C021C00
S11314900A431A707B681A790C23FB1801210A404D
S11314A0D0001A7808218A43111C021C0A431A70BE
S11314B07B685A7B0C23FB18D0011A787F210A40E1
S11314C0111C021C0A431A707B681A7B0C23FB183C
S11314D001210A4090011A7840218A43111C021C00
S11314E00A431A707B689A7B0C23FB1801210A407B
S11314F010015A7810218A43111C021C0A435A70A5
S11315007B689A68054B1A61034A0C23FB181B88F5
S11315109382BD4604B080BD0008004074000020E2
S113152080B582B000AF021CFB1D1A70FB1D1B7836
S1131530072B30D89A001B4BD3181B689F461A4BB5
S1131540194A126A02210A431A62002326E0164B42
S1131550154A926902210A439A611EE0124A124B0B
S11315601B8A9BB202210B439BB2138215E00E4AE5
S11315700D4B9B8A9BB202210B439BB293820CE0DE
S11315800A4B1B6802221A43084B1A60084B9847FF
S113159003E0002302E0172300E00023181CBD46EB
S11315A002B080BDA42E000000080040740000209A
S11315B0A112000080B584B000AF021CFB1D1A709C
S11315C00023FB60FB1D1B78072B15D89A00124BD8
S11315D0D3181B689F460823FB600FE00423FB60BD
S11315E00CE00123FB6009E00223FB6006E010230A
S11315F0FB6003E001230AE0002308E0074BDB68FB
S1131600FA681A40FB68D31A5A425341DBB2181CD9
S1131610BD4604B080BDC046C42E00000008004092
S113162080B582B000AF3B1C02221A7000237B609D
S113163009E07B68DAB23B1C101C191C054B984767
S11316407B6801337B607B681B2BF2D9BD4602B0FB
S113165080BDC046211B000080B5A0B000AF554B33
S1131660C222D2009A600020534B9847534B9847AC
S11316707023FB18181C524B98477023FB188022C8
S113168012029A607023FB1800221A707023FB1850
S113169006225A707023FB1800229A707023FB18DC
S11316A00022DA707023FB1801221A717023FB18D0
S11316B000225A737023FB1800221A737023FB183C
S11316C0181C404B984705203F4B9847C0460520BF
S11316D03E4B9847031C1A1C01235340DBB2002BDA
S11316E0F5D1344B9A8A80210A439A826C23FB18E1
S11316F0181C374B98476C23FB1800221A706C2374
S1131700FB1801229A706C23FB1800225A706C2378
S1131710FB18181C2F4B984706202B4B98472E4B31
S113172098475423FB18181C2C4B98475423FB1838
S113173005221A705423FB1801225A605423FB1803
S113174000221A725423FB1800225A725423FB18E5
S11317500120191C224B98470120224B9847002056
S1131760214B984700200021204B9847012000215D
S11317701E4B9847022000211C4B98473B1C181C09
S1131780164B98473B1C06221A703B1C01225A60D8
S11317903B1C00221A723B1C00225A723B1C002084
S11317A0191C0F4B984700200E4B9847BD4620B09C
S11317B080BDC046000800405512000021160000FC
S11317C0791100000514000021150000B515000072
S11317D0C11100008D130000911800004D1100008C
S11317E0C1180000E1190000E1110000011200001D
S11317F080B582B000AF021C3960FB1D1A70FB1D5E
S11318001B78012B0AD0022B0FD0002B14D10E4BC6
S11318100D4A91693A680A439A610FE00A4B0A4AF1
S1131820D1693A680A43DA6108E0074B064A116A4B
S11318303A680A431A6201E0172300E00023181CE7
S1131840BD4602B080BDC0460004004080B500AF74
S1131850014B9847BD4680BD0501000080B500AF2F
S1131860014B9847BD4680BD5501000080B500AFCF
S1131870064B5B78DBB2DBB25BB2002B01DA0123EF
S113188000E00023181CBD4680BDC046000C00408B
S113189080B500AF00200821074B9847074B012271
S11318A01A70C046054B1B78DBB21A1C0123134087
S11318B0F8D1BD4680BDC046F1170000000C0040C1
S11318C080B586B000AF021C3960FB1D1A70FB1D89
S11318D01B787B61FB1D1B783B613B681B781B02FB
S11318E01A1C7B6913437B613B685B78002B04D033
S11318F07B698022D20213437B613B685B7A002BB5
S113190004D07B698022120313437B613B685B68CC
S1131910012B2CD93B685A683B685B68013B134038
S11319201AD10023FB600223BB6005E0FB6801338E
S1131930FB60BB685B00BB603B685A68BB689A424B
S1131940F4D8FB681B023A6913433B617B6980222C
S1131950520313437B610AE03B685B681B023A69EC
S113196013433B617B698022920213437B613B6892
S11319701B7A002B04D07B698022920313437B6182
S1131980C046124B9847031EFBD1114B9847114A8E
S1131990FB1D1B781370C0460C4B9847031EFBD1EC
S11319A00D4B3A699A60C046084B9847031EFBD119
S11319B0094B094A51688022520211407A690A434C
S11319C05A60064B9847BD4606B080BD6D180000AE
S11319D04D180000080C0040000C00405D18000089
S11319E080B582B000AF021CFB1D1A70C0460D4BBF
S11319F09847031EFBD10C4B98470C4AFB1D1B78E0
S1131A001370C046074B9847031EFBD1084B084A86
S1131A105268802149020A435A60064B9847BD46E2
S1131A2002B080BD6D1800004D180000040C004089
S1131A30000C00405D18000080B586B000AF021CA9
S1131A40FB1D1A70C0462E4B9847031EFBD12D4B2D
S1131A5098472D4AFB1D1B781370C046284B9847A6
S1131A60031EFBD1294B5B681B0A1A1C1F2313405E
S1131A70DBB2181C264B9847031C7B61224AFB1DD2
S1131A801B781370214B5B681B0D1A1C0123134038
S1131A90DAB21323FB181A701E4AFB1D1B7813704D
S1131AA0C046174B9847031EFBD1184B9B681B0A73
S1131AB01A1C00239A43131C9BB2FB60164B9847D5
S1131AC01323FB181B78002B09D1FB68012B06D9C3
S1131AD0124B7869F9689847031C7B610AE0132369
S1131AE0FB181B78002B05D0FB6801331A1C7B699B
S1131AF0D3407B617B69181CBD4606B080BDC046DF
S1131B006D1800004D180000040C0040000C00404B
S1131B10E5120000080C00405D180000D12C000004
S1131B2080B584B000AF021C3960FB1D1A70FB1D28
S1131B301B78FB603B681B781B021A1CFB68134371
S1131B40FB60FB1D1B78181C044B9847044BFA6878
S1131B5092B25A80BD4604B080BDC046A91B0000A5
S1131B60000C004080B582B000AF021CFB1D1A704F
S1131B70094B9847094AFB1D1B7813700849084B09
S1131B805B889BB28022D20113439BB24B80054BEE
S1131B909847BD4602B080BD4D180000020C0040BD
S1131BA0000C00405D18000080B584B000AF021C3A
S1131BB0FB1D1A701D4B98471D4AFB1D1B781370A3
S1131BC01C4B5B889BB21B0A1A1C0F231340DBB20D
S1131BD0FB60184B5A8818490A405A80154A154B1D
S1131BE05B889BB215490B409BB25380C046114B96
S1131BF05B889BB21A1C8023DB011340F7D10D4B89
S1131C00FA68D2B2111C0F220A40D2B2111C0F2260
S1131C100A4010025A8808490A40111C021C0A434F
S1131C205A80074B9847BD4604B080BD4D1800004C
S1131C30020C0040000C0040FFF0FFFFFFBFFFFF5D
S1131C405D18000080B584B000AF021CFB1D1A7043
S1131C500E4B98470E4AFB1D1B7813700D4B5B8887
S1131C609BB21B0A1A1C0F231340DAB20F23FB1872
S1131C701A70094B98470F23FB181B78181C074B45
S1131C809847031C181CBD4604B080BD4D180000C5
S1131C90020C0040000C00405D180000391A0000DE
S1131CA080B584B000AF021CFB1D1A700F23FB1813
S1131CB0FA1D1278D2091A700E23FB18FA1D127835
S1131CC052091A700D4BBB600F23FB181B78002BB5
S1131CD00FD10F23FB181B789B0010229446BC44A1
S1131CE06344083B1A680E23FB181B78DB01D318E6
S1131CF000E00023181CBD4604B080BD0044004130
S1131D0080B588B000AFF860B9607A600023FB61E9
S1131D107B68DB7801225340DBB2002B35D07B6833
S1131D201B78802B0BD0FB69802252021343FB618A
S1131D307B681B781B061A1CFB691343FB617B68D9
S1131D405B78002B03D07B685B78022B10D1FB6996
S1131D50802292021343FB617B689B78002B04D0A2
S1131D60FB698022D2021343FB61FB68BA685A60A4
S1131D707B685B78012B03D07B685B78022B07D1EF
S1131D80FB69214A1340FB6102E0FB68BA685A60B0
S1131D90BB681B041B0CBB61BB681B0C7B61BA6971
S1131DA0FB691343A022D2051A43FB689A627A693D
S1131DB0FB691343D02212061A43FB689A627B68BC
S1131DC0DB7801225340DBB2002B1AD0FA6980235E
S1131DD0DB0213400AD07B689B78012B03D1FB689C
S1131DE0BA689A6102E0FB68BA685A617B685B78FA
S1131DF0012B03D07B685B78022B02D1FB68BA68A5
S1131E009A60BD4608B080BDFFFFFBFF80B584B07B
S1131E1000AF021C3960FB1D1A70FB1D1B78181CD7
S1131E200B4B9847031CFB60FB1D1B781F221340C0
S1131E3001229A40131CBB60F968BA683B68081C0D
S1131E40111C1A1C034B9847BD4604B080BDC04604
S1131E50A11C0000011D000080B500AFC046BD46B6
S1131E6080BDC04680B500AF054B9847054B9847E9
S1131E70054B9847054B9847054B9847BD4680BD91
S1131E805916000085020000591E0000591E00006A
S1131E90591E000080B584B000AFF860B960FB1D26
S1131EA01A70FB1D1A78FB6802329200B968D1508F
S1131EB0FB1D1B78022B07D1FB681B7E10221343EA
S1131EC0DAB2FB681A761AE0FB1D1B78032B07D1E4
S1131ED0FB681B7E20221343DAB2FB681A760EE0FD
S1131EE0FB681B7ED9B2FB1D1B7801229A40131C90
S1131EF0DBB20A1C1343DBB2DAB2FB681A760023A6
S1131F00181CBD4604B080BD80B500AF0020024B54
S1131F109847BD4680BDC046A91F000080B500AFEC
S1131F200120024B9847BD4680BDC046A91F000052
S1131F3080B500AF0220024B9847BD4680BDC04625
S1131F40A91F000080B500AF0320024B9847BD468F
S1131F5080BDC046A91F000080B500AF0420024B1D
S1131F609847BD4680BDC046A91F000080B500AF9C
S1131F700520024B9847BD4680BDC046A91F0000FE
S1131F8080B500AF0620024B9847BD4680BDC046D1
S1131F90A91F000080B500AF0720024B9847BD463B
S1131FA080BDC046A91F000080B584B000AF021CEC
S1131FB0FB1D1A70FB1D1A78284B9200D358FB6046
S1131FC0FB681B689B7BDBB2FA68127E1340DAB2B3
S1131FD0FB68597E0B23FB180A401A700B23FB186D
S1131FE01B780122134008D0FB689B68FA68101C18
S1131FF09847FB681B6801229A730B23FB181B7814
S11320000222134008D0FB68DB68FA68101C98476A
S1132010FB681B6802229A730B23FB181B7810229F
S1132020134008D0FB681B69FA68101C9847FB68CA
S11320301B6810229A730B23FB181B782022134071
S113204008D0FB685B69FA68101C9847FB681B683A
S113205020229A73BD4604B080BDC046BC00002057
S113206080B582B000AF78607B6800221A70BD46EC
S113207002B080BD80B582B000AF021C3960FB1D88
S11320801A70FB1D1B78012B0AD0022B0FD0002BDA
S113209014D10E4B0D4A91693A680A439A610FE0D4
S11320A00A4B0A4AD1693A680A43DA6108E0074BE5
S11320B0064A116A3A680A431A6201E0172300E0EB
S11320C00023181CBD4602B080BDC0460004004079
S11320D080B582B000AF78607B6880221A707B681C
S11320E000225A707B6801229A707B680022DA70A1
S11320F0BD4602B080BDC04680B584B000AF7860F4
S11321007B681B68FB60FB68DB7BDBB21A1C8023EB
S113211013405A1E9341DBB2181CBD4604B080BD67
S113212090B58DB000AF78600C23FB180F4A13CA2A
S113213013C313CA13C303CA03C30023FB620DE012
S11321400C23FB18FA6A9200D2587B689A4202D197
S1132150FB6ADBB206E0FB6A0133FB62FB6A072B16
S1132160EED90023181CBD460DB090BDE42E00002E
S113217090B58FB000AFF860B9607A603623FB1871
S113218000221A803523FB1800221A703423FB180E
S113219000221A703123FC18BB68181CC04B9847E6
S11321A0031C23702823FA18BE4B111C1A1C082385
S11321B0081C111C1A1CBC4B98471823FA18BB4B5B
S11321C0111C1A1C1023081C111C1A1CB64B98470E
S11321D03323FB1800221A700EE03323FB181A78FD
S11321E0FB68023292000021D1503323FB181A7885
S11321F03323FB1801321A703323FB181B78032B8B
S1132200EBD9FB6800221A76FB6800225A76312348
S1132210FB181A78A64B9200F968D150FB68BA688B
S11322201A607B689B78082B07D13123FB181B7835
S11322300122134001D01723C3E17B689A78FB681D
S11322401A71BB681B889BB21A1C0123134001D06E
S11322500523B6E1BB68DB7BDBB21A1C10231340F9
S113226001D01C23ADE1BB681B889BB21A1C02235E
S1132270134001D01C23A4E17B681B7C002B17D0E6
S11322801423FB18181C8B4B98477B689B69DAB2A4
S11322901423FB181A701423FB1801225A707B684C
S11322A05B69DAB21423FB18101C191C824B984783
S11322B07B681B7F002B17D01423FB18181C7D4B45
S11322C098477B685B6ADAB21423FB181A701423EC
S11322D0FB1801225A707B681B6ADAB21423FB18BC
S11322E0101C191C744B98473123FB181A781823B7
S11322F0FB185200D35A0220191C704B98477B6874
S11323009B78082B0BD13123FB181B785A1C1823FC
S1132310FB185200D35A0220191C684B984710230B
S1132320FB18181C664B98477B681A781023FB1817
S11323301A703123FB181B782822BA18D25C102398
S1132340FB18101C191C5F4B98473123FB181B7892
S11323502822BA18D35C181C5B4B98477B689A7880
S11323607B689B791343DBB29AB27B681B89134366
S113237099B27B689A883623FB180A431A807B68D3
S11323805B78002B08D03623FB183622BA18128843
S1132390802109010A431A80C046FB68181C4B4B74
S11323A09847031EF9D1BB683622BA1812881A80DE
S11323B07B685B7B002B03D03523FB1804221A7047
S11323C07B689B7B002B07D03523FB183522BA187A
S11323D0127801210A431A70C046FB68181C3B4B53
S11323E09847031EF9D1BB68FF221A713523FB18E5
S11323F01B78002B0BD0C046FB68181C334B984746
S1132400031EF9D1BB683522BA1812785A713423E5
S1132410FB187A68927A1A703223FB1800221A7019
S11324201CE03223FB181B787A68D318DB7A002B64
S11324300DD03223FB181B7810229A40131CD9B2FA
S11324403423FB183422BA1812780A431A70322340
S1132450FB181A783223FB1801321A703223FB1846
S11324601B78012BDDD9C046FB68181C174B984715
S1132470031EF9D1BB683422BA1812789A71C04687
S1132480FB68181C114B9847031EF9D1FB681B7994
S1132490042B1DD0082B00D16FE0002B4AD08FE015
S11324A021210000042F0000412E00000C2F000009
S11324B0BC000020D12000000D1E0000752000008B
S11324C061200000211B0000651B0000F9200000B2
S11324D0C046FB68181C3D4B9847031EF9D17B6826
S11324E028229A5CBB681A74C046FB68181C374BD8
S11324F09847031EF9D17B6829229A5CBB681A7538
S1132500C046FB68181C314B9847031EF9D17B6801
S11325102A229A5CBB681A76C046FB68181C2B4BAF
S11325209847031EF9D17B682B229A5CBB685A76C4
S1132530002346E0C046FB68181C244B9847031E42
S1132540F9D17B681A8DBB681A82C046FB68181CD7
S11325501E4B9847031EF9D17B685A8DBB681A83BA
S1132560C046FB68181C194B9847031EF9D17B68B9
S11325709A8DBB685A83002323E0C046FB68181C6D
S1132580124B9847031EF9D17B689A6ABB681A619B
S1132590C046FB68181C0D4B9847031EF9D17B6895
S11325A0DA6ABB689A61C046FB68181C074B9847F7
S11325B0031EF9D17B681A6BBB68DA61002300E063
S11325C01723181CBD460FB090BDC046F92000006B
S11325D080B582B000AF194B7B60194B3B607A68C1
S11325E03B689A420CD007E03B681A1D3A607A684F
S11325F0111D796012681A603A68124B9A42F3D33B
S1132600114B3B6004E03B681A1D3A6000221A60DB
S11326103A680E4B9A42F6D30D4B7B600D4B7A68A9
S1132620FF218A439A600C4B5A6880210A435A60FE
S11326300A4B98470A4B9847FEE7C0463C2F0000D8
S11326400000002034000020340000202C01002071
S11326500000000000ED00E000400041F52D000006
S1132660C92B000080B500AFFEE7C04680B584B03A
S113267000AF021CFB1D1A700F23FB18FA1D127801
S1132680D2091A700E23FB18FA1D127852091A7017
S11326900D4BBB600F23FB181B78002B0FD10F23AE
S11326A0FB181B789B0010229446BC446344083BEF
S11326B01A680E23FB181B78DB01D31800E00023F3
S11326C0181CBD4604B080BD0044004180B582B0F2
S11326D000AF021CFB1D1A70FB1D1B78181C034B5A
S11326E09847031C181CBD4602B080BD6D2600002F
S11326F080B584B000AF021CFB1D1A70FB1D1B7853
S1132700181C094B9847031CFB60FB1D1B781F22F8
S1132710134001229A40131CBB60FB68BA68DA615B
S1132720BD4604B080BDC046CD26000080B500AFD4
S1132730034B01221A70BFF35F8F62B6BD4680BDA2
S11327400000002080B582B000AF021CFB1D1A708F
S1132750064BFA1D1278111C1F220A4001219140D8
S11327600A1C1A60BD4602B080BDC04600E100E00C
S113277080B584B000AF78607B681B68FB60FB6841
S11327801B8A9BB21A1C80231B0213405A1E9341BE
S1132790DBB2181CBD4604B080BDC04680B582B013
S11327A000AF78607B6801221A707B6800225A604F
S11327B07B6800229A607B68C0229203DA607B689F
S11327C000221A747B6800225A747B6801229A746E
S11327D07B682022002199547B681433181C002143
S11327E00C220A4B98477B68094A5A617B6800228D
S11327F05A627B6800229A627B680022DA627B68F4
S113280000221A63BD4602B080BDC046532E0000AC
S1132810A086010080B584B000AF78607B681B6837
S1132820FB607B681B68181C0A4B9847031C181C28
S1132830094B9847C0467B68181C084B9847031EF1
S1132840F9D1FB681B6802221A43FB681A60BD4673
S113285004B080BDFD06000045270000712700007C
S113286080B582B000AF78600A1CFB1C1A707B68CC
S11328702F229B5CD9B2FB1C1B7801229A40131CAB
S1132880DBB20A1C1343DBB2D9B27B682F22995402
S1132890BD4602B080BDC04680B584B000AF78604C
S11328A07B681B68FB60FB68DB7BDBB21A1C802344
S11328B013405A1E9341DBB2181CBD4604B080BDC0
S11328C080B582B000AF78607B6800221A707B68A4
S11328D000229A707B6800229A807B6800229A7199
S11328E07B6800221A817B6800225A707B68002270
S11328F09A727B680022DA727B6800221A737B6802
S113290000229A737B6800225A737B6800221A742F
S11329107B6800225A617B6800229A617B680022EE
S11329201A777B6800221A627B6800225A627B68ED
S113293000221A857B6800225A857B6800229A85CA
S1132940BD4602B080BDC04680B584B000AF78609B
S11329507B681B68FB60C0467B68181C074B984764
S1132960031EF9D1FB681B889BB2022213439AB25F
S1132970FB681A80BD4604B080BDC046992800009B
S113298080B582B000AF7860044A7B68D3181B78A6
S1132990DBB25BB2181CBD4602B080BD2C00002027
S11329A080B582B000AF78600A1CFB1C1A707B688B
S11329B01B68181C224B9847031C181C214B984772
S11329C0031C181C204B9847FB1C1B78022B0BD1B3
S11329D07B685B7E10221343DAB27B685A767B688D
S11329E01B6810225A7327E0FB1C1B78032B0BD1A6
S11329F07B685B7E20221343DAB27B685A767B685D
S1132A001B6820225A7317E07B685B7ED9B2FB1CDB
S1132A101B7801229A40131CDBB20A1C1343DBB25D
S1132A20DAB27B685A767B681B68FA1C127801213B
S1132A3091400A1CD2B25A73BD4602B080BDC04652
S1132A4021210000812900004527000080B582B0C3
S1132A5000AF7860024B01221A70BD4602B080BDFF
S1132A609C00002080B500AF064A074B101C191CBF
S1132A700222064B9847034B181C0221044B98472B
S1132A80BD4680BDDC0000204D2A0000AD0C0000D6
S1132A906128000080B58EB000AF3B1D181C144B9C
S1132AA098473B1D00221A703B1D01221A773B1DDB
S1132AB000225A613B1D80225202DA603B1D0D4AFE
S1132AC05A623B1D0C4A9A623B1D0C4ADA623B1D5A
S1132AD00B4A1A630B4A0C493B1D101C1A1C0B4B66
S1132AE09847084B181C0A4B9847BD460EB080BD4A
S1132AF09D27000002002C0002002D0002002E0081
S1132B0002002F00DC00002000180042A50A00008B
S1132B101528000080B582B000AF78600E20024B0B
S1132B209847BD4602B080BDF126000080B58EB046
S1132B3000AF3B1D181C134B98473B1D04229A7091
S1132B403B1D01221A703B1DC022D2009A803B1DFE
S1132B502922642199543B1D2A22322199543B1D78
S1132B602B2236219954084A08493B1D101C1A1C73
S1132B70074B9847044B181C064B9847BD460EB0AC
S1132B8080BDC046C128000010010020002C004276
S1132B90712100004929000080B500AF064A074BA7
S1132BA0101C191C0022064B9847034B181C0021CB
S1132BB0044B9847BD4680BD10010020152B000032
S1132BC0951E0000A129000090B585B000AF0F2329
S1132BD0FB1800221A702F4B98472F4B98472F4B06
S1132BE098472F4B98472F4B98472F4B98472F497F
S1132BF02F4A304B081C111C1A1C14232E4CA047BE
S1132C00C0462E4B1B78DBB201225340DBB2002BB3
S1132C10F7D10E23FB1800221A7019E00E23FB18BB
S1132C201B78244AD25C0E23FB181B782449CB5C06
S1132C309A4206D00F23FB181A780F23FB1801328F
S1132C401A700E23FB181A780E23FB1801321A701F
S1132C500E23FB181B78132BE0D90F23FB181B78CA
S1132C60002B0BD00E20174B9847174BBB60C04668
S1132C70BB685A1EBA60002BFAD10AE00E20114B31
S1132C809847124B7B60C0467B685A1E7A60002BC3
S1132C90FAD1E2E7651E00002D2B0000992B0000FD
S1132CA02D270000952A0000652A0000DC00002082
S1132CB01800002088000020F50C00009C00002073
S1132CC004000020F126000030750000C027090030
S1132CD0002243088B4274D303098B425FD3030A57
S1132CE08B4244D3030B8B4228D3030C8B420DD36A
S1132CF0FF22090212BA030C8B4202D312120902F8
S1132D0065D0030B8B4219D300E0090AC30B8B4235
S1132D1001D3CB03C01A5241830B8B4201D38B03E3
S1132D20C01A5241430B8B4201D34B03C01A524188
S1132D30030B8B4201D30B03C01A5241C30A8B42CB
S1132D4001D3CB02C01A5241830A8B4201D38B02B6
S1132D50C01A5241430A8B4201D34B02C01A52415A
S1132D60030A8B4201D30B02C01A5241CDD2C309CC
S1132D708B4201D3CB01C01A524183098B4201D348
S1132D808B01C01A524143098B4201D34B01C01A33
S1132D90524103098B4201D30B01C01A5241C308AB
S1132DA08B4201D3CB00C01A524183088B4201D31A
S1132DB08B00C01A524143088B4201D34B00C01A06
S1132DC05241411A00D20146524110467047FFE772
S1132DD001B5002000F00CF802BDC0460029F7D070
S1132DE003B5FFF775FF0EBC4243891A1847C04666
S1132DF07047C0460E4B70B500251E1C0D4CE41ADE
S1132E00A410A54204D0AB00F35898470135F8E765
S1132E1000F084F8084B00251E1C084CE41AA4108A
S1132E20A54204D0AB00F35898470135F8E770BDCC
S1132E30282F0000282F0000282F00002C2F00002E
S1132E40002310B5934203D0CC5CC4540133F9E79A
S1132E5010BD031C8218934202D019700133FAE7A3
S1132E607047000000080042000C004200100042BD
S1132E700014004200180042001C00420708090A1E
S1132E800B0C000002130000641300006413000024
S1132E90241300001E1300002A130000081300006E
S1132EA0301300005C150000961500009615000014
S1132EB0921500004E1500006E1500003E1500002E
S1132EC080150000E2150000F8150000F815000058
S1132ED0F4150000DC150000E8150000D61500000C
S1132EE0EE150000002000420024004200280042A9
S1132EF0002C0042003000420034004200380042FE
S1132F00003C004213131414151516160001000298
S1132F10000400080010002000400080F8B5C046FE
S1132F20F8BC08BC9E467047CD000000F8B5C0460A
S10F2F30F8BC08BC9E467047A5000000D9
S1132F3C01000000BF0102030405060708090A0B7F
S1132F4C0C0D0E0F101112130F00FF0304050607CE
S1132F5C08090A0B0C0D0E0F101112130D0E0F1085
S1072F6C1112131413
S90325D106
