S00E0000545245424C452E7372656358
S113000008220020FD1A0000F91A0000F91A000065
S113001000000000000000000000000000000000DC
S1130020000000000000000000000000F91A0000B9
S11300300000000000000000F91A0000F91A000096
S1130040F91A0000F91A0000F91A0000F91A000060
S1130050F91A0000F91A0000F91A0000310C000026
S1130060410C0000510C0000610C0000710C0000F8
S1130070810C000099170000A9170000B9170000AF
S1130080C9170000D9170000E9170000F91700008C
S1130090091800004D060000F91A0000F91A0000C2
S11300A0F91A000010B5064C2378002B07D1054B34
S11300B0002B02D0044800E000BF0123237010BDD0
S11300C00400002000000000E81F000008B5084BF1
S11300D0002B03D00748084900E000BF0748036825
S11300E0002B00D108BD064B002BFBD09847F9E745
S11300F000000000E81F000008000020E81F0000C6
S1130100000000000122014B1A70704759000020C2
S113011010B5064C0649201C0222064B98472F2294
S11301200423A15C0B43A35410BDC046B8000020B7
S113013005010000A90E00000023202170B58EB037
S113014001AA535453609360137453740893137047
S113015006930793802301245B02D360104B114E56
S11301605362114B11499362114B301CD362114BF2
S113017094741363104B1477984735680F4B281CFD
S113018098471F23184084400D4B1C603268138A23
S1130190DB0BFCD12A68023313432B600EB070BD15
S11301A002002C00B800002002002D0000180042BC
S11301B002002E0002002F00910C0000050C00002C
S11301C000E100E0C021490100230022C1812A216D
S11301D00270427042800262C261826003710376DF
S11301E00373037443748374C374037543540639EB
S11301F0437583754354C28402852B32C37583547B
S1130200013283547047C046F0B54D4644465F46BC
S11302105646F0B48025CB4C0160236A6D022B4313
S113022023620C789BB00523E40707D5181C1BB088
S11302303CBC90469946A246AB46F0BD0B780221E1
S1130240194000911C230029F0D153780371002B2D
S113025004D1BD4904330C6C23430B640023038392
S11302608360C36003618376C3760377B74B1860FA
S11302702A23D35C002B02D1137D002B7CD00023D6
S11302804377B34B03901B68161C1B041B0F02938C
S1130290036817200193137804AA1370111CAD4B43
S11302A09847AD4B172098472C23F75C002F00D1BB
S11302B01DE1013BF55C337B5A19D2B2D719FFB269
S11302C0BA4200D32EE1691E7F18BA1AD2B29146FF
S11302D006AA9046A14A05AF9346A14A9246321C0B
S11302E04646904602E001351B7BEDB20F242C40BC
S11302F0E418301C59465022D047132C0BDC002341
S1130300A40030597B70FB70BB7001333B70C0B2EA
S1130310391C944B984743464D45E4D1B0461E1CC6
S1130320F489404659465022D047132C0CD84346F2
S1130330A4001859002305A94B70CB708B700133AE
S11303400B70C0B2874B9847737D01999B00DBB259
S11303500B70B37D7278DB011343DBB24B703379DE
S1130360342B07D8804A9B00D3589F46013BDBB20D
S11303700F2B5BD9172359E70133437781E7122306
S1130380102200936946019B09789970F37D3F2BF5
S1130390F0D80199CB70039B19684B7E5BB2002B9C
S11303A0FBDBF17C73880B432421715CC9000B4394
S11303B0317D89000B43B17C49000B430199134300
S11303C08B80337E002B13D0102A00D1E5E000D8B7
S11303D0D2E0202A00D1E9E0302A09D1F27C002AB7
S11303E000D0ECE0F269FF2AC4DC326AFF2AC1DCE7
S11303F0039A11684A7E52B2002AFBDB019A1372F7
S1130400039B1A68537E5BB2002BFBDBB38B019A10
S11304109383039B1A68537E5BB2002BFBDB338C04
S1130420019A13842C23F35C002B9FD12B22B25C02
S11304300F2A9FD803990868417E49B20029FBDB43
S1130440F089317B12050143B0681B0401430A4360
S11304501343019A13612A23F35C13750F239375D5
S11304601533F35C002B10D0F38C40498B4200D938
S113047080E7019A93848023328D1B01D3189BB2A9
S11304808B4200D976E7019BDA84394B1A68E02362
S11304905001DB001840374B51011A68D30E0B434F
S11304A0DBB2019A034313850023BFE62423102201
S11304B0009367E77022737C1B011340327C134363
S11304C0009310225EE7029B022B32D916231022DE
S11304D0009357E7302255E7029B022B2DD90823BE
S11304E0102200934EE700224CE720224AE706AB95
S11304F098461A4B347B9B46191C194B4046502294
S11305009A469847132C00D90AE74346A400185981
S1130510012305A90B70C0B2124B4F70CF708F70BE
S11305209847FDE606AB98460C4B9B460C4B9A4607
S1130530F6E636231022009324E748231022009382
S113054020E7C04600040040000800405C00002092
S113055018200041A515000019150000D81E000040
S1130560F11D0000A5160000041E0000FF0F00008E
S11305702460800020608000002A00D038E7F27CEC
S1130580002A3AD1F2692E498A4200DDF2E6326A43
S11305908A4200DC2CE7172348E6F27C002A1BD1B0
S11305A0F26928498A42F2DD17233FE6F27C002AE9
S11305B034D1F26924498A42E9DD172336E6F26927
S11305C0111C8031FF2900D9D4E6316A8031FF291A
S11305D000D808E7172329E68021F269090219489F
S11305E05118814200D9C5E680242402A446316A08
S11305F061448142D5D9172318E68021F2690901A3
S11306000F485118814200D9B4E680242401A4463D
S1130610316A61448142B6D9172307E68021F26921
S1130620890009485118814200D9A3E68024A40016
S1130630A446316A61448142BCD91723F6E5C04619
S1130640FF0F0000FFFF0000FF03000038B52F4B31
S11306501C6801232268157EEDB22B4202D0E17E94
S11306600B421CD104232B4205D022681376E27E70
S1130670023B13420CD102232B4208D0226813768A
S1130680E27E0233134202D0A27E13422ED138BD41
S1130690A27E1342EFD0201CE3689847EBE7A17ECB
S11306A00B42DFD013762268537E5BB2002BFBDB58
S11306B061698B1C6361538B9BB20B80238B013B61
S11306C09BB22383002B15D0637F002BCAD02268F2
S11306D0537E5BB2002BFBDB0223117B0B431373B2
S11306E02268537E5BB2002BBCDAFAE72369201C34
S11306F09847CCE7227F052AB4D1237701232268C7
S1130700201C9375A3689847ACE7C0465C000020A2
S1130710931C9B001950012393401A1C837E1A4397
S11307208276704710B5048B0523002C01D0181C69
S113073010BD037FDBB2052BF9D0052303770283B9
S11307400268043B4161D375437F002B01D1002330
S1130750EDE70268537E5BB2002BFBDB0223117BC7
S11307600B4313730268537E5BB2002BFBDB002345
S1130770DDE7C0460122014B1A7070475800002083
S113078010B58CB06846144B9847F0231B050293B0
S113079080236A465B005380FE3B537000230F4C5A
S11307A0137330331371201C0D490E4B9847226884
S11307B0537E5BB2002BFBDB80210B4B890319605A
S11307C0022311780B4313702268537E5BB2002B13
S11307D0FBDB0CB010BDC046C5010000E8010020E1
S11307E0004000420902000000E100E010B5054CA1
S11307F00549201C0022054B98470123E27E134340
S1130800E37610BDE8010020750700001107000021
S11308108022024BD201DA617047C0460044004195
S1130820002310B58EB001AA13859371138153610F
S1130830936113625362938504339370033B137083
S1130840C0230021DB0051709172D1721173917336
S11308505173117411779380642129230B4CD15463
S113086032390133D15404310133D154201C0849A5
S1130870084B98477F212268D37B8B43FCD1118896
S113088002330B4313800EB010BDC046600000203D
S1130890002C00424D18000010B50D4C0D490022EB
S11308A0201C0D4B984720680C4B98471F220C4B7B
S11308B01B5C13401E3A111C99400B1C09490B6028
S11308C00123617E0B43637623685A7310BDC046CF
S11308D0600000201108000005170000191800002E
S11308E0281F000000E100E00B4B1A68002A05D124
S11308F0EFF31081002905D008490A701A68013203
S11309001A60704772B6BFF35F8F054A1170034ACD
S113091001311170F2E7C0462000002024000020BD
S113092000000020084B1A68013A1A601B68002B6B
S113093009D1064B1B78002B05D00122044B1A70F9
S1130940BFF35F8F62B670472000002024000020B0
S113095000000020F0B50126002783B001AC0C4D47
S1130960211C0E206670A7702670A847211C302019
S1130970A8478022074BD2019A6180228033520219
S11309809A610F20211C27706670A84703B0F0BD40
S11309909909000000440041802200B583B001ABF6
S11309A01A700A785A704A789A708A78191CDA7020
S11309B0014B984703B000BDA516000010B54908C7
S11309C040230024814202D2181C10BD1C1C631C4D
S11309D0091A9BB28842F9D94023FF2CF4D8148019
S11309E00023F1E730B50E4C83B02378051C002BAF
S11309F006D0002904D1637883420FD01D200BE078
S1130A0001A90C20074B0D7098470C20064B984702
S1130A10012300206570237003B030BD0020FBE784
S1130A2028000020A5150000191500003A4B984233
S1130A3043D00AD9394B984217D0394B984232D017
S1130A40384B98421BD000207047374B984220D037
S1130A50364B9842F7D1012943D000293FD00229CF
S1130A603BD00329EFD13248EEE7012931D00029E8
S1130A702DD002292FD00329E5D12E48E4E70129FE
S1130A803FD000293BD0022937D00329DBD12A48A3
S1130A90DAE701293DD0002939D002292BD00329D6
S1130AA0D1D12648D0E7012923D000291FD002291B
S1130AB01BD00329C7D12248C6E7012925D0002924
S1130AC021D002290FD00329BDD11E48BCE71E48FE
S1130AD0BAE71E48B8E71E48B6E71E48B4E7032045
S1130AE0B2E71D48B0E71D48AEE71D48ACE71D4816
S1130AF0AAE71D48A8E71D48A6E71D48A4E71D4826
S1130B00A2E71D48A0E71D489EE71D489CE71D4835
S1130B109AE71D4898E7C0460010004200180042BA
S1130B20001C00420014004200080042000C004275
S1130B3003001F0003000F0003001300030007005D
S1130B400300190003000B0003000C0003000D0058
S1130B5003000E0003001E000300010003000A004E
S1130B60030018000300160003001700030006002A
S1130B70030012000300100003001100030008002A
S1130B8003000900030004000300050070B586B0EB
S1130B906946094B6A4670CB70C170CB70C10023A3
S1130BA099005158814205D00133062BF8D1002019
S1130BB006B070BDD8B2FBE7301F00007047C046D6
S1130BC0F0B58C460B490B78002B10D1002300257F
S1130BD0094C0A4F0A4EF218E75004331560182BDB
S1130BE0F9D1173B0B70634680002350F0BD024CD3
S1130BF0F9E7C0462A0000202C000020BD0B0000AD
S1130C007C00002010B5041C82B006490622684608
S1130C10054B9847201C054B98476B46185602B065
S1130C2010BDC046481F0000F11D00008D0B0000E0
S1130C3008B5024B00201B68984708BD2C00002013
S1130C4008B5024B01205B68984708BD2C000020C2
S1130C5008B5024B02209B68984708BD2C00002071
S1130C6008B5024B0320DB68984708BD2C00002020
S1130C7008B5024B04201B69984708BD2C000020CE
S1130C8008B5024B05205B69984708BD2C0000207D
S1130C90F0B544465F4656464D46F0B401600C68D4
S1130CA087B01C23A40707D5181C07B03CBC90468A
S1130CB09946A246AB46F0BD01270C68173B274274
S1130CC0F2D16C4B041C081C151C0E1C9A46984748
S1130CD0811C8F40684A0D30136A69461F432023E4
S1130CE017626A469846EB5CC7B21370381C634BB4
S1130CF09847381C624B984743460021E85C614B97
S1130D0098472B78012B00D198E0002B03D132684F
S1130D1008331343336000230027A385E36023854E
S1130D2023616361A361E361636223622E33E75449
S1130D300133E7540133E7542D3B237220682771B4
S1130D40D047061C504B51499847514BB600F450BC
S1130D50236801AE9946802333707F3BB3702B78B0
S1130D607770F770002B56D000276B6A686A02937D
S1130D70AB6AF9B20393EB6A04932B6B0593454B6F
S1130D809B46002811D0431C04D03070000CC0B224
S1130D90311CD8470137042F0BD008216A46BB0009
S1130DA05218D058F9B20028EDD148463A4B98472A
S1130DB0E9E72B786A4663712B7CA371AB7CE37102
S1130DC0002353802B78012B3ED0002B25D000200C
S1130DD000226968AB680B43E9680B431343021CA8
S1130DE0297C0A43697C002903D12C498978890725
S1130DF001D580210B43A97C002902D080218902DE
S1130E000A43494609680B4349460B604B681A4339
S1130E104A60002348E7B770A6E74B465969EB7E62
S1130E20AC7E1B0423430B4349466A69288B4B6100
S1130E302B7F002BCDD040231843CAE732680B33F5
S1130E40134333602B7860E72068D0470D30144B90
S1130E50C0B298476B46011C9A1C6869114B9847AD
S1130E601723002800D01FE76B464A469B789372ED
S1130E702B78AAE78D0B000000040040A5150000A4
S1130E8019150000E5090000C10B0000C10E0000A7
S1130E907C000020A51600002D0A0000002000415F
S1130EA0C1150000BD090000931C9B00C3185960C4
S1130EB0012393402E211A1C435C1A434254704769
S1130EC0F8B5744B8000C4582F222E232668E35CA7
S1130ED0A75CB57B1F40737B1D40EB0723D563796B
S1130EE0012B00D190E0002B1DD1237A002B1AD0C6
S1130EF0616A20680B78DAB24B1C6362A379012B18
S1130F0000D1B2E093B2DB05DB0D0383A38D013B7B
S1130F109BB2A385A38D002B05D101333373237AB0
S1130F20012B00D1A7E004232B4216D0328A1342AE
S1130F302AD0237A012B0BD030231E22E2542D3BDE
S1130F402372023333733B0702D5201CA3699847ED
S1130F50338B0423328A1343338202222A4212D06F
S1130F606379002B0DD107213173B27301322272E0
S1130F700022A38523853033E254FB0600D56FE0BD
S1130F806379012B2ED0F8BD237ADBB2012B4FD02D
S1130F902368216A1B8BDB05DB0DDAB20A70226A37
S1130FA0511C2162A179012904D11B0A5370236ABF
S1130FB001332362238D013B9BB22385238D9BB296
S1130FC0002BCAD13022A35404333373227A022A69
S1130FD058D0237A002BC0D1BB07BED5201C23696F
S1130FE09847BAE7227A012ACDD1E279002ACAD1F8
S1130FF002213173013121722D3162543B42C2D03E
S1131000E368201C9847BEE7227A002A00D06CE7E8
S1131010214A12883283628D013A92B26285628DCE
S1131020002A00D133736379012B00D15DE75AE7BD
S11310302268128B628D013A92B26285628D92B2FD
S1131040002A00D089E7042131733021625403322D
S113105022723B4200D180E7201CE36898477CE77A
S1131060E369201C984763798BE74B7802311B02B4
S11310701343616247E7E379002B00D053E702335F
S1131080737350E73B4200D167E7201C63699847BC
S113109063E7C0467C0000209400002010B50728B8
S11310A023D8174B80001B589F468020000210BD98
S11310B0144B1869FBE7144B186A144B8005800F16
S11310C0C340181CF3E70F4BD868F0E702200D4C1F
S11310D023681840EBD010220B49CB681A42FCD08D
S11310E023685B0703D40A48E1E70020DFE7094BE4
S11310F000209847A3681B041B0C5843D7E7C0463D
S1131100501F0000440000200008004000127A0034
S1131110006CDC02C1150000F0B55F4656464D4632
S11311204446F0B42E4E83B0B38A45789C46037887
S1131130477B5A425A419146027983789046027B12
S11311409B46C3780192847B8268264802614A46A2
S11311509200914604229246624651468A4394463E
S11311604A4661460A430120944642460240D20060
S1131170904608229146624649468A43944642462E
S113118061460A4394461022904662464146034013
S11311908A431B01594613432022014049019343CA
S11311A00B434021019A8B43024092011343802256
S11311B00740FF0193433B43793A0B4F15400440EA
S11311C020032D023B40094C2B431C400443B482B2
S11311D003B03CBC90469946A246AB46F0BDC0461F
S11311E00008004044000020FFF8FFFFFFEFFFFF6E
S11311F010B5072839D81E4B80001B589F46002085
S113120010BD02231B4A002091690B439361F7E749
S11312100223184A0020918A0B439382F0E70223A9
S1131220144A0020116A0B431362E9E702231020D9
S1131230114C2268134323602268104B13400D4A5B
S11312409384D3680B491842FBD0A3680020CB6277
S113125063688B6223689BB28B84D1E70223054ABF
S11312600020118A0B431382CAE71720C8E7C0463F
S1131270701F000000080040440000207FFF0000B1
S1131280F0B54746C2221E2180B4314BD2009A6089
S1131290304A0024536888B08B435360022304AD62
S11312A02D4E2B70E0B2291C0134B0471C2CF9D10F
S11312B0802212020023AA6001222B70AB70EB7013
S11312C02A712B730532AB736B73281C234B6A7022
S11312D098470520224CA04702211D48C3681C4A98
S11312E01942FBD08023918A06200B43402193822C
S11312F0136A00258B4340310B431A490B40136298
S1131300A047194B98470123984601AC211C02932E
S1131310164F043301202370657025726572B84737
S1131320134E0120B047134B211C1D725D729D7238
S1131330DD724346002063600533237065702572B7
S11313406572B8470020B04708B004BC9046F0BDB1
S11313500008004000400041A515000019110000DC
S1131360F1110000FFFCFFFF791300009D13000042
S11313704D140000000400400823064A91690B4301
S1131380936101230121044A137013781942FCD19B
S11313907047C04600040040000C004070B50D7852
S11313A04B782D02061C041C0543002B02D080231D
S11313B0DB021D434B7A002B02D080231B031D4309
S11313C0486801280FD9431E034031D1022805D0B3
S11313D00222013352009042FBD81B0233431C1CEF
S11313E080235B031D430B7A002B02D080239B03D5
S11313F01D43124A53785BB2002BFBDB104B98471A
S1131400104B0E491E704A780C4B52B2002AFADB7C
S11314101A1C9C60537809495BB2002BFADB8023C9
S11314204A685B0213401D434D60074B984770BDEB
S1131430802304029B0234431D43D4E7000C004084
S1131440E9080000080C00402509000010B5041C40
S11314500B4A53785BB2002BFBDB0A4B98470A4BD1
S113146007491C704B78064A5BB2002BFADB8021DB
S1131470536849020B435360044B984710BDC04660
S1131480000C0040E9080000040C0040250900009D
S1131490F8B5071C194A53785BB2002BFBDB184BD9
S11314A09847184B154A1F705378144C5BB2002BA5
S11314B0FADB6068144BC004C00E9847061C114B3D
S11314C01F706568114BED02ED0F1F7063785BB2FE
S11314D0002BFBDB094B99680D4B090A8CB298472A
S11314E0002D03D0611CCE40301CF8BD012CFBD96B
S11314F0301C211C074B9847061CF5E7000C0040E4
S1131500E9080000040C00409D100000080C004095
S113151025090000811C000010B5041C064B9847E7
S11315208021064B064A1C705388C9010B43538023
S1131530044B984710BDC046E9080000020C004067
S1131540000C00402509000010B5041C0F4B9847FF
S113155080200F4B0F4A1C7054880F4B5188240570
S11315600B40538051880D4B240F0B405380C00116
S1131570538808490342FBD14888074B22020340A1
S113158013434B80064B984710BDC046E908000042
S1131590020C0040000C0040FFF0FFFFFFBFFFFF04
S11315A02509000010B50C78034B24020443984726
S11315B0024BA4B25C8010BD49150000000C004031
S11315C010B5041C064B9847064B1C70064B5C88F0
S11315D0064B2405240F9847201C054B984710BD43
S11315E0E9080000020C0040000C0040250900003E
S11315F091140000D37870B5002B31D11478802C6D
S113160047D0802324065B021C43537802251E1C0A
S1131610AE4307D19378002B37D180239B021C4320
S113162041605378013B012B35D9A0250B04ED050E
S11316301B0C2B43D025234383622D060B0C2B4319
S113164023438362D378002B09D1630303D59378B2
S1131650012B23D041615378013B012B13D970BD79
S1131660A0240B04E4051B0C2343D024416024066E
S113167083620B0C23438362D378002BEFD153781E
S1131680013B012BEBD88160E9E7C023DB021C435B
S1131690C6E70024B9E7024B1C40C6E78161DAE7DC
S11316A0FFFFFBFF08B50A1C031CC1090020002929
S11316B004D1064958098C46C00160441F210B40DF
S11316C01E399940024B984708BDC046004400416A
S11316D0F51500007047C04608B5054B9847054B03
S11316E09847054B9847054B9847054B984708BDC5
S11316F08112000055090000D5160000D51600001F
S1131700D5160000931C9B001950022A09D0032A05
S11317100CD0012393401A1C037E1A430276002046
S113172070471023027E13430376F8E72023027EDA
S113173013430376F3E7C04670B50126154B8000CA
S1131740C5582B682C7E9B7B1C406B7E1C4026421C
S11317501AD10226264211D11026264208D120266B
S1131760264204D06B69281C98472B689E7370BD71
S11317702B69281C98472B689E73F0E7EB68281C9C
S113178098472B689E73E7E7AB68281C98472B683B
S11317909E73DEE79800002008B50020014B9847AF
S11317A008BDC0463917000008B50120014B984711
S11317B008BDC0463917000008B50220014B984700
S11317C008BDC0463917000008B50320014B9847EF
S11317D008BDC0463917000008B50420014B9847DE
S11317E008BDC0463917000008B50520014B9847CD
S11317F008BDC0463917000008B50620014B9847BC
S113180008BDC0463917000008B50720014B9847AA
S113181008BDC0463917000070B588B06A460A4B47
S1131820694670CB70C270CB70C230CB30C200231B
S11318309A008A58824205D00133082BF8D100203F
S113184008B070BDD8B2FBE7901F0000F0B5444665
S11318504D465F465646A14BF0B498468DB004AD54
S113186091462B1C4246061C0F1C13CA13C313CAF1
S113187013C303CA03C300239A00AA58974200D192
S1131880B2E00133082BF7D1002300249A464146E5
S1131890934B2031082202A89B46984741461022C8
S11318A02831281CD84700238E4AB360F360336183
S11318B0736133767376A3009E504B4637609B78F2
S11318C0082B0CD033713B8801220520DB070BD594
S11318D00DB03CBC90469946A246AB46F0BD52467C
S11318E01720D207F4D4EDE7FB7B1730DB06EFD4E7
S11318F002213B880B40EBD14946097C002900D0EA
S1131900D9E04B461B7F002B00D0C5E0764A61002E
S1131910136A695A0B4313624B469B78082B00D118
S1131920D5E04B466A461B786946137008226B461D
S11319309B181C5D6D4B201C9847201C6C4B9847D2
S11319404B464A4698881B89034390799278104302
S113195018434B465B78002B02D080231B011843AD
S11319607F223168CB7B9343FCD14B463880587B34
S1131970431E98414B469B7B8000002B01D00123E2
S113198018437F223168CB7B9343FCD1FF333B71F7
S1131990002805D07F223168CB7B9343FCD178713A
S11319A04B46987ADB7A002B01D0102318434B4620
S11319B01B7B002B01D0202318437F223168CB7B73
S11319C09343FCD17F21B8713268D37B8B43FCD124
S11319D033797F21042B0BD07F21082B44D07F2126
S11319E0002B29D0172073E7DAB292461C1C4EE76D
S11319F0D37B8B43FCD14A462833D35C7F223B7490
S1131A003168CB7B9343FCD14A462933D35C7F2294
S1131A103B753168CB7B9343FCD14A462A33D35C74
S1131A207F223B763168CB7B9343FCD14A462B33F0
S1131A30D35C00207B764BE7D37B8B43FCD14B46B6
S1131A407F221B8D3B823168CB7B9343FCD14B4679
S1131A507F225B8D3B833168CB7B9343FCD14B4628
S1131A609B8D00207B8333E7D37B8B43FCD14B4698
S1131A707F229B6A3B613168CB7B9343FCD14B460D
S1131A807F22DB6ABB613168CB7B9343FCD14B463D
S1131A901B6B0020FB611BE70123002201A98B7053
S1131AA04B704B46CA704A461B6A526AD8B2114BF5
S1131AB00A7098472AE701A9CB704B461B7E8A70AF
S1131AC00B704B46187D0B4B4A70984719E7611C05
S1131AD04900136A695A0B43136222E7901F0000FE
S1131AE0F11D00009800002000040040A51500002E
S1131AF019150000A5160000FEE7C046184819494C
S1131B0010B588420DD0184B99420AD2CA43D31853
S1131B1000229B0801339B0084588C5004329A4263
S1131B20FAD11249124B99420BD2CA430020D3185E
S1131B3000229B0801339B008C18043220609A42D7
S1131B40FAD1FF210B4B0C4A8B43936080230B4A41
S1131B5051680B4353600A4B98470A4B9847FEE77A
S1131B60E81F000000000020040000200400002002
S1131B70080200200000000000ED00E000400041E9
S1131B80A51D0000891B0000F8B55F4656464D466A
S1131B9044462A4BF0B49847294B9847294B984719
S1131BA00122294B1A70BFF35F8F62B6274B984707
S1131BB0274B9847274B9847274B9847274B00209C
S1131BC09847274B00261B7A264DD840264B274C96
S1131BD01860274B274F9946274B984614234B44AC
S1131BE09B4690231B039A462A68537E5BB2002BC4
S1131BF0FBDB51461369281C3B400B4313614946E8
S1131C000A22C0472378002BFCD02A682670537E12
S1131C105BB2002BFBDBA921136909043B400B4396
S1131C201361281C59460A22C0472378002BFCD094
S1131C308022124B52022670DA61D5E7D9160000D1
S1131C40210800009908000000000020390100006C
S1131C501101000081070000ED070000911400004D
S1131C6000040040E8010020EC000020580000209F
S1131C7020010020FFFF00FF2507000080440041F1
S1131C80002243088B4274D303098B425FD3030AB7
S1131C908B4244D3030B8B4228D3030C8B420DD3CA
S1131CA0FF22090212BA030C8B4202D31212090258
S1131CB065D0030B8B4219D300E0090AC30B8B4296
S1131CC001D3CB03C01A5241830B8B4201D38B0344
S1131CD0C01A5241430B8B4201D34B03C01A5241E9
S1131CE0030B8B4201D30B03C01A5241C30A8B422C
S1131CF001D3CB02C01A5241830A8B4201D38B0217
S1131D00C01A5241430A8B4201D34B02C01A5241BA
S1131D10030A8B4201D30B02C01A5241CDD2C3092C
S1131D208B4201D3CB01C01A524183098B4201D3A8
S1131D308B01C01A524143098B4201D34B01C01A93
S1131D40524103098B4201D30B01C01A5241C3080B
S1131D508B4201D3CB00C01A524183088B4201D37A
S1131D608B00C01A524143088B4201D34B00C01A66
S1131D705241411A00D20146524110467047FFE7D2
S1131D8001B5002000F00CF802BDC0460029F7D0D0
S1131D9003B5FFF775FF0EBC4243891A1847C046C6
S1131DA07047C0460E4B70B500251E1C0D4CE41A3E
S1131DB0A410A54204D0AB00F35898470135F8E7C6
S1131DC000F002F9084B00251E1C084CE41AA4106C
S1131DD0A54204D0AB00F35898470135F8E770BD2D
S1131DE0D41F0000D41F0000D41F0000D81F00001F
S1131DF0002310B5934203D0CC5CC4540133F9E7FB
S1131E0010BD0000E6040000740300007403000029
S1131E1074030000740300007403000074030000E2
S1131E2074030000740300007403000074030000D2
S1131E3074030000740300007403000074030000C2
S1131E4074030000D804000074030000740300004D
S1131E5074030000740300007403000074030000A2
S1131E607403000074030000740300007403000092
S1131E707403000074030000740300007403000082
S1131E8074030000EA0400007403000074030000FB
S1131E907403000074030000740300007403000062
S1131EA07403000074030000740300007403000052
S1131EB07403000074030000740300007403000042
S1131EC074030000D40400007E030000AC0400008E
S1131ED0C6040000B4040000020000000300000077
S1131EE02800000029000000040000000500000094
S1131EF00600000007000000200000002100000090
S1131F00220000002300000024000000250000003F
S1131F10260000002700000008000000090000005F
S1131F200A0000000B0000000D0E0F101112131414
S1131F3000080042000C004200100042001400425D
S1131F4000180042001C00420708090A0B0C00009C
S1131F50C6100000EA100000EA100000AA100000F9
S1131F60AA100000B0100000B6100000CC10000051
S1131F705C1200006A1200006A120000FE110000E8
S1131F8002120000101200001E1200002C120000A9
S1131F90002000420024004200280042002C00429D
S1131FA0003000420034004200380042003C00424D
S1131FB0131314141515161600010002000400086A
S1131FC00010002000400080F8B5C046F8BC08BCF2
S1131FD09E467047CD000000F8B5C046F8BC08BC6A
S10B1FE09E467047A5000000B5
S1071FE801000000F0
S9031AFDE5
