S00E0000545245424C452E7372656358
S1130000602400200D3C0000A13C0000A13C000045
S113001000000000000000000000000000000000DC
S1130020000000000000000000000000A13C0000EF
S11300300000000000000000A13C0000A13C000002
S1130040A13C0000A13C0000A13C0000A13C000038
S1130050A13C0000A13C0000A13C000029050000D7
S11300603D0500005105000065050000790500000C
S11300708D05000045350000593500006D35000040
S11300808135000095350000A9350000BD3500001C
S1130090D135000051170000A13C0000A13C000034
S11300A0A13C000010B5064C2378002B07D1054B6A
S11300B0002B02D0044800E000BF0123237010BDD0
S11300C00C00002000000000C448000008B5084BE4
S11300D0002B03D00748084900E000BF0748036825
S11300E0002B00D108BD064B002BFBD09847F9E745
S11300F000000000C448000010000020C4480000B4
S11301000000000080B582B000AF78607B680022F8
S11301101A707B6801225A707B6804229A707B688B
S11301200C22DA707B6800221A717B6800225A71F3
S1130130BD4602B080BDC04680B582B000AF3B1C56
S1130140181C094B98473B1C00221A703B1C0422C4
S11301509A703B1C0922DA703B1C181C034B98470D
S1130160BD4602B080BDC046050100002507000061
S113017080B582B000AF021CFB1D1A70064BFA1D3D
S11301801278111C1F220A40012191400A1C1A6096
S1130190BD4602B080BDC04600E100E080B584B039
S11301A000AF78607B681B68FB60FB681B8A9BB2AE
S11301B01A1C80231B0213405A1E9341DBB2181CE5
S11301C0BD4604B080BDC04680B582B000AF786043
S11301D07B6801221A707B6800225A607B680022C7
S11301E09A607B68C0229203DA607B6800221A74EA
S11301F07B6800225A747B6801229A747B682022EF
S1130200002199547B681433181C00210C220A4BDA
S113021098477B68094A5A617B6800225A627B6866
S113022000229A627B680022DA627B6800221A63E9
S1130230BD4602B080BDC046B7460000A08601009E
S113024080B584B000AF78607B681B68FB607B6816
S11302501B68181C0A4B9847031C181C094B984729
S1130260C0467B68181C084B9847031EF9D1FB68ED
S11302701B6802221A43FB681A60BD4604B080BDA5
S1130280D5040000710100009D01000080B582B01A
S113029000AF78600A1CFB1C1A707B682F229B5CE1
S11302A0D9B2FB1C1B7801229A40131CDBB20A1C36
S11302B01343DBB2D9B27B682F229954BD4602B0F6
S11302C080BDC04680B58EB000AF3B1D181C144BDA
S11302D098473B1D00221A703B1D01221A773B1DD3
S11302E000225A613B1D80225202DA603B1D0D4AF6
S11302F05A623B1D0C4A9A623B1D0C4ADA623B1D52
S11303000B4A1A630B4A0C493B1D101C1A1C0B4B5D
S11303109847084B181C0A4B9847BD460EB080BD41
S1130320C901000002002C0002002D0002002E0072
S113033002002F0020020020001800423D2500008A
S11303404102000080B586B000AFF860B9607A6001
S11303501A1CBB1C1A80FB68BA1C12889A85FB689D
S1130360BA1C12881A85FB687A681A62FB68BA6834
S11303705A62FB68302205219954FB6802221A72E2
S1130380FB681B687B617B6902225A73BD4606B019
S113039080BDC04680B582B000AF064B1B681B8B86
S11303A09AB2FB1D1A70FB1D1B78181CBD4602B0C7
S11303B080BDC0462002002098B500AF114B1A78CA
S11303C0114B1A70114B01221A70114B40229A5C86
S11303D00F4B41215B5C9A4206D00E4B9847031C9D
S11303E01A1C0D4B1A7002E00B4B80221A700B4939
S11303F0094A044B081C111C1A1C0123084CA04771
S1130400BD4698BD78020020090000206400002049
S11304108C000020BD0B00003804002020020020C6
S11304204503000080B500AF064A074B101C191C99
S11304300022064B9847034B181C0021044B984795
S1130440BD4680BD20020020B9030000A1050000C4
S11304508D02000080B582B000AF021CFB1D1A7033
S1130460BD4602B080BDC04680B584B000AF021C5A
S11304703960FB1D1A70134B1B7801225340DBB209
S1130480002B15D00023FB600CE00F4BFA689200A0
S11304900E49D1500E4BFA6892000021D150FB68EE
S11304A00133FB60FB68052BEFD9064B01221A7060
S11304B0FB1D1A78044B92003968D150BD4604B034
S11304C080BDC046280000202C00002055040000F8
S11304D06800002090B585B000AF78600823FA1852
S11304E00E4B111C1A1C0623081C111C1A1C0C4B45
S11304F098470F23FC187B68181C0A4B9847031C69
S113050023700F23FB181B780822BA18D35CDBB2C4
S11305105BB2181CBD4605B090BDC046C84600007D
S1130520A54600001522000080B500AF024B1B68F1
S113053000209847BD4680BD2C00002080B500AF48
S1130540024B5B6801209847BD4680BD2C0000200B
S113055080B500AF024B9B6802209847BD4680BD22
S11305602C00002080B500AF024BDB6803209847C5
S1130570BD4680BD2C00002080B500AF024B1B6936
S113058004209847BD4680BD2C00002080B500AFF4
S1130590024B5B6905209847BD4680BD2C000020B6
S11305A080B584B000AFF860B960FB1D1A70FB1D04
S11305B01B78FA6802339B00D318BA685A60FB6848
S11305C02E229B5CD9B2FB1D1B7801229A40131C7E
S11305D0DBB20A1C1343DBB2D9B2FB682E22995456
S11305E0BD4604B080BDC04690B587B000AF021CC4
S11305F0FB1D1A70FB1D1A781B4B9200D3587B61AC
S11306007B691B683B617B695A6A0F23FB1812786C
S11306101A70164B1B685A1C144B1A600F23FB18D4
S11306201B789AB23B691A830E23FC18104B984727
S1130630031C23707B691B6A0E22BA1812781A7085
S11306403B6907229A733B6902221A737B69302241
S1130650002199547B69DB687A69101C9847C0466D
S1130660BD4607B090BDC046680000208000002051
S11306709503000080B582B000AF021C3960FB1DF9
S11306801A70FB1D1B78012B0AD0022B0FD0002BF4
S113069014D10E4B0D4A91693A680A439A610FE0EE
S11306A00A4B0A4AD1693A680A43DA6108E0074BFF
S11306B0064A116A3A680A431A6201E0172300E005
S11306C00023181CBD4602B080BDC0460004004093
S11306D080B582B000AF084B7B607B68DB79DBB20E
S11306E0DBB25BB2002B01DA012300E00023181C0B
S11306F0BD4602B080BDC0460010004080B582B047
S113070000AF074B7B607B681B78DBB21A1C80232D
S113071013405A1E9341DBB2181CBD4602B080BD83
S11307200010004080B586B000AF7860544B3B6148
S113073000201021534B9847534B9847031E01D078
S1130740102398E07B68DB78002B01D1172392E01B
S11307507B68DA787B681B799A4205D37B68DA7800
S11307607B685B799A4201D2172384E03B691B784A
S1130770DBB202229343DAB23B691A70C046434BA0
S11307809847031EFBD17B685B7801225340DBB2A0
S1130790002B01D000236EE07B689A780C23FB18B1
S11307A01A700C23FB180120191C394B984701209F
S11307B0384B98477B681B78002B02D00120364BBE
S11307C0984700237B617B68DB78013B1A1C7B69BB
S11307D013437B617B681B79002B10D03B691B782A
S11307E0DBB204221343DAB23B691A707B681B79CB
S11307F0013B1B011A1C7B6913437B6107E03B69C6
S11308001B78DBB204229343DAB23B691A70C04608
S11308101E4B9847031EFBD17B69DAB23B695A70C1
S11308207B685B79002B0AD0C046184B9847031E9F
S1130830FBD17B685B79013BDAB23B699A707B68D8
S11308401B78002B09D03B691B78DBB28022524213
S11308501343DAB23B691A7007E03B691B78DBB2D9
S113086002221343DAB23B691A70C046074B984719
S1130870031EFBD10023181CBD4606B080BDC04634
S11308800010004075060000FD060000D1060000BF
S113089051310000953100007532000080B582B0FE
S11308A000AF064B7B607B68A5221A72C046044BDE
S11308B09847031EFBD1BD4602B080BD0010004026
S11308C0D106000080B584B000AF021CFB1D1A7075
S11308D00F23FB18FA1D1278D2091A700E23FB1885
S11308E0FA1D127852091A700D4BBB600F23FB18C6
S11308F01B78002B0FD10F23FB181B789B001022B1
S11309009446BC446344083B1A680E23FB181B78C6
S1130910DB01D31800E00023181CBD4604B080BDE1
S11309200044004180B500AF014B9847BD4680BDEF
S11309302D1E000080B500AF014B9847BD4680BD19
S11309407D1E000080B582B000AF021CFB1D1A7032
S1130950FB1D1B78181C034B9847031C181CBD4631
S113096002B080BDC508000080B584B000AF021C91
S1130970FB1D1A70BB1D0A1C1A70FB1D1B78181C6A
S11309800C4B9847031CFB60FB1D1B781F22134074
S113099001229A40131CBB60BB1D1B78002B03D0A3
S11309A0FB68BA689A6102E0FB68BA685A61BD469E
S11309B004B080BD4509000080B584B000AF021CBE
S11309C0FB1D1A70BB1D0A1C1A70764B42229B5CDD
S11309D03E2B00D9E2E00F23FB18FA1D12781A709F
S11309E0D4E00F23FB181A786F4B5200D15A0F230F
S11309F0FB181A786D48131C9B009B189B00C318A6
S1130A009B789BB2994212D90F23FB181A780F23B3
S1130A10FB181978644B4900CB5AD8B26349131CAC
S1130A209B009B189B00CB18021C9A7024E00F2398
S1130A30FB181A785C4B5200D15A0F23FB181A7812
S1130A405A48131C9B009B189B00C318DB789BB26D
S1130A50994211D20F23FB181A780F23FB18197827
S1130A60514B4900CB5AD8B25049131C9B009B18D8
S1130A709B00CB18021CDA700F23FB181A784B4921
S1130A80131C9B009B189B005B5C01225340DBB250
S1130A90002B38D00F23FB181A78434B5200D35A3B
S1130AA0181C0F23FB181A784049131C9B009B1831
S1130AB09B00CB189B78323B984260DA0F23FB18DB
S1130AC01A783A49131C9B009B189B0001225A5424
S1130AD0374B1A780F23FB181B78D318DBB2DBB221
S1130AE01A1C80235B421343DBB2DAB20C23FB18DB
S1130AF01A700C23FB187F225A700C23FB18181C45
S1130B002C4B98473BE00F23FB181A78264B5200D6
S1130B10D35A181C0F23FB181A782449131C9B0062
S1130B209B189B00CB189B780A3B984227DD0F2328
S1130B30FB181A781D49131C9B009B189B0000226C
S1130B405A541B4B1A780F23FB181B78D318DBB2AB
S1130B50DBB21A1C80235B421343DBB2DAB20C23F0
S1130B60FB181A700C23FB1801225A700C23FB1873
S1130B70181C104B9847142001210F4B98470F2342
S1130B80FB181A780F23FB1801321A700F23FA1876
S1130B90BB1D12781B789A4200D222E7BD4604B0EE
S1130BA080BDC0468C0000207C020020A8020020EA
S1130BB07A020020050C00006909000080B582B0AB
S1130BC000AF0F4B41229B5C191CFB1D0C4A525C6D
S1130BD01A700B4B41229B5C0133D9B2084B412262
S1130BE09954074B41229B5C3F221340D9B2044BDA
S1130BF041229954FB1D1B78181CBD4602B080BDD0
S1130C008C00002080B582B000AF786014200021F1
S1130C102F4B98472F4B98472F4B40229B5C013317
S1130C203F2213402C4A4121525C934249D02A4B23
S1130C3040229B5C1A1C7B681978274B9954264BDD
S1130C4040229B5C0133D9B2234B40229954224B5E
S1130C5040229B5C3F221340D9B21F4B402299543F
S1130C601D4B40229B5C1A1C7B6859781A4B995483
S1130C70194B40229B5C0133D9B2174B4022995443
S1130C80154B40229B5C3F221340D9B2124B4022A9
S1130C909954114B40229A5C0F4B41215B5CD31A4F
S1130CA0D9B20D4B422299540B4B42229B5C3F22FA
S1130CB01340D9B2084B42229954084B9847002359
S1130CC002E0064B98471C23181CBD4602B080BDA9
S1130CD069090000250900008C0000203509000086
S1130CE080B582B000AF021CFB1D1A70BB1D0A1C2C
S1130CF01A70BD4602B080BD80B582B000AF786086
S1130D007B6800221A70BD4602B080BD80B582B0F7
S1130D1000AF021C3960FB1D1A70FB1D1B78012BF0
S1130D200AD0022B0FD0002B14D10E4B0D4A91691F
S1130D303A680A439A610FE00A4B0A4AD1693A6851
S1130D400A43DA6108E0074B064A116A3A680A4323
S1130D501A6201E0172300E00023181CBD4602B00C
S1130D6080BDC0460004004080B582B000AF78600A
S1130D707B6880221A707B6800225A707B6801228B
S1130D809A707B680022DA70BD4602B080BDC0460E
S1130D9080B582B000AF021CFB1D1A70FB1D1B78CE
S1130DA0002B02D0012B07D00DE0084B074A126C30
S1130DB002210A431A6406E0044B044A126C04211B
S1130DC00A431A64C046BD4602B080BD0008004014
S1130DD080B584B000AF78607B681B68FB60FB68FB
S1130DE05B7EDBB2DBB25BB2002B01DA012300E0F5
S1130DF00023181CBD4604B080BDC04680B582B037
S1130E0000AF78607B6800221A707B6800225A70F9
S1130E107B6800225A807B6800221A717B6800225A
S1130E201A767B6800221A627B680022DA617B688A
S1130E3000229A607B6800221A737B68C0225201E8
S1130E40DA817B6800221A747B6800225A747B68FA
S1130E5000229A747B680022DA747B6800221A7577
S1130E607B682A22002199547B6800225A757B688A
S1130E7000229A757B682422002199547B68002201
S1130E80DA847B6800221A857B680022DA757B6825
S1130E902B22002199547B682C2200219954BD46B1
S1130EA002B080BD80B598B000AF78600C23FA180A
S1130EB0154B111C1A1C5023081C111C1A1C134B13
S1130EC09847134BFB657B68132B1AD80C23FB182C
S1130ED07A689200D358FB650823FB18181C0D4B45
S1130EE098470823FB1800229A700823FB18012254
S1130EF01A70FB6DDAB20823FB18101C191C064B80
S1130F009847BD4618B080BDD0460000A5460000F5
S1130F10FFFF0000690D000085340000F0B589B0C2
S1130F2000AF786039601F23FB1800221A70102369
S1130F30BB611723FB1800221A70CC4B1A68F023EC
S1130F401B0213401A0B1323FB181A707B681B68CF
S1130F50FB600823FB18181CC54B98473B681A789C
S1130F600823FB181A700823FB181720191CC14BFF
S1130F7098471720C04B98473B682C229B5C002B5A
S1130F8040D01623FB183A682B21525C1A703B6838
S1130F90197B1523FB181622BA1812788A181A70AE
S1130FA03B682C22995C0B23FB181522BA18127883
S1130FB08A181A7018E01623FB181B780F221340A6
S1130FC03A68127B9B18181CAC4B98471523FB18E6
S1130FD01A781523FB1801321A701623FB181A7895
S1130FE01623FB1801321A701523FA180B23FB1869
S1130FF012781B789A42DED33B68DB89181C9F4B1E
S1131000984709E03B681B7B181C9C4B98473B683E
S1131010DB89181C994B98473B685B7D9B00DAB2CF
S1131020FB681A703B689B7DDB01DAB23B685B7836
S1131030DBB21343DBB2DAB2FB685A703B681B794C
S1131040342B5AD89A008E4BD3181B689F461F2303
S1131050FB183A68527C1A701723FB183A68127C02
S11310601A701023BB614AE01F23FB1801221A7077
S11310701723FB1802221A701023BB613FE01F23C1
S1131080FB1802221A701723FB1804221A7010236B
S1131090BB6134E01323FB181B78022B04D81F23F5
S11310A0FB1803221A7003E01F23FB1801221A7095
S11310B01723FB1806221A701023BB611FE01323A9
S11310C0FB181B78022B04D81F23FB1804221A7068
S11310D003E01F23FB1800221A701723FB180822B1
S11310E01A701023BB610AE03023BB6107E02023A0
S11310F0BB6104E00023BB6101E01723A3E11F23CC
S1131100FB181B781B01DBB270221340DAB21723E1
S1131110FB181B781343DAB2FB689A703B68DB7DDB
S11311203F2B01D917238EE13B68DA7DFB68DA7027
S1131130C0467B68181C534B9847031EF9D13B6883
S11311405A88BB699BB213439AB23B6824215B5C07
S11311509BB2DB009BB213439AB23B681B7D9BB2EC
S11311609B009BB213439AB23B689B7C9BB2DB18F7
S11311709BB213439AB23B68DB7C9BB213439AB293
S1131180FB689A803B681B7E002B00D1BAE0BB69E8
S1131190102B00D18FE002D8002B4DD0B2E0202BD1
S11311A023D0302B00D0ADE03B68DB7C002B11D08A
S11311B03B68DB697F2B0BDC3B68DB69803307DB37
S11311C03B681B6A7F2B03DC3B681B6A803301DAB4
S11311D0172338E13B68DB69FF2B03DC3B681B6AA0
S11311E0FF2B01DD17232EE18CE03B68DB7C002B19
S11311F015D03B68DB69244A93420EDC3B68DB690B
S1131200224A934209DB3B681B6A1F4A934204DC6F
S11312103B681B6A1D4A934201DA172313E13B68BA
S1131220DB691B4A934204DC3B681B6A184A9342FD
S113123001DD172307E165E03B68DB7C002B2DD043
S11312403B68DB69134A93420EDC3B68DB69124A54
S1131250934209DB3B681B6A0E4A934204DC3B68F9
S11312601B6A0D4A934219DA1723ECE01820004157
S1131270F90C00005131000095310000A50E00006A
S113128020470000D10D0000FF01000000FEFFFF19
S1131290FF030000FF07000000F8FFFF3B68DB6965
S11312A06B4A934204DC3B681B6A694A934201DD42
S11312B01723C8E026E03B68DB7C002B15D03B6895
S11312C0DB69644A93420EDC3B68DB69624A934201
S11312D009DB3B681B6A5F4A934204DC3B681B6A78
S11312E05D4A934201DA1723ADE03B68DB695B4A50
S11312F0934204DC3B681B6A584A934201DD17237E
S1131300A1E0C046C0467B68181C554B9847031E95
S1131310F9D13B681A7EFB681A72C0467B68181CB8
S11313204F4B9847031EF9D13B68DB699AB2FB68BF
S11313309A83C0467B68181C494B9847031EF9D111
S11313403B681B6A9AB2FB681A841423FB183A6838
S11313502C21525C1A701423FB181B78002B06D026
S11313601423FB181A781423FB18013A1A70142357
S1131370FB181B780F2B04D83B682B229B5C0F2B8C
S113138001D917235FE0C0467B68181C344B98478B
S1131390031EF9D13B689B683A682B21525C120505
S11313A013431422BA181278120413433A68D289E8
S11313B013433A68127B1A43FB681A613B682A227A
S11313C09A5CFB681A75FB680F229A753B682422A5
S11313D09B5C002B1DD03B68DB8C1D4A934201D9DA
S11313E0172330E03B68DA8CFB689A843B681B8DDA
S11313F01BB21C4A934205DC3B681B8D1BB21A4A84
S1131400934201DA17231EE03B681B8D9AB2FB68F6
S1131410DA84164B1B68DB089BB21B029AB2E023EA
S1131420DB0013409AB2124B5C681B686101DD0E4D
S11314300D43E60EABB2FF210B409BB213439AB2AD
S1131440FB681A850023181CBD4609B0F0BDC046D0
S1131450FF0F0000FF7F00000080FFFFFFFF000080
S1131460D10D0000FF07000000F8FFFF246080009A
S11314702060800080B586B000AFF860B9607A6003
S1131480FB68BA681A6080235B020220191C324B85
S11314909847BB681B78DBB21A1C0123134001D0A8
S11314A0052355E0BB681B78DBB21A1C02231340EA
S11314B001D01C234CE07B685A78FB681A71FB68E6
S11314C01B79002B02D10120244B98471723FB18CA
S11314D000221A700EE01723FB181A78FB680232F8
S11314E092000021D1501723FB181A781723FB18F8
S11314F001321A701723FB181B78022BEBD9FB68F7
S113150000229A76FB680022DA76FB6800221A83AE
S1131510FB6800221A77124BFA681A607B682A2249
S11315209B5C002B0AD17B681B7D01225340DBB2FC
S1131530002B03D0FB6801225A7702E0FB680022EB
S11315405A77FA687B68101C191C064B9847031CD1
S1131550181CBD4606B080BD0D0D0000910D0000A5
S1131560D00000201D0F000080B584B000AF78606B
S11315707B681B68FB60FB685B7EDBB2DBB25BB243
S1131580002B01DA012300E00023181CBD4604B03F
S113159080BDC04680B584B000AF78607B681B68AE
S11315A0FB60C0467B68181C0A4B9847031EF9D1A0
S11315B0FB681B7BDBB202221343DAB2FB681A73AB
S11315C0C0467B68181C034B9847031EF9D1BD46DF
S11315D004B080BD6915000080B584B000AF7860A8
S11315E00A1CFB1C1A707B681B68FB60FB68FA1CF6
S11315F01278DA75BD4604B080BDC04680B584B0AB
S113160000AF78600A1CFB1C1A707B681B68FB60C7
S1131610FB68FA1C12789A75BD4604B080BDC046BA
S113162080B584B000AF021CFB1D1A70FB1D1A7834
S1131630434B9200D358FB60FB681B681B7EDBB2F4
S1131640BB60BB680122134045D0FB68DB7E1A1CDB
S1131650012313403FD0FB689B7E1A1C01231340D7
S113166039D0FB681B6801221A76C046FB68181C37
S1131670344B9847031EF9D1FB685B69991CFA68DF
S11316805161FA681268528B92B21A80FB681B8B04
S11316909BB2013B9BB2FA68191C1183002B08D042
S11316A0FB685B7F002B16D0FB68181C264B984701
S11316B011E0FB681B7FDBB2052B0CD1FB68002219
S11316C01A77FB68181C0121204B9847FB689B681C
S11316D0FA68101C9847BB680422134014D0FB68B6
S11316E01B6804221A76FB68DB7E1A1C0223134053
S11316F00AD0FB689B7E1A1C0223134004D0FB68AB
S1131700DB68FA68101C9847BB680222134014D0A7
S1131710FB681B6802221A76FB68DB7E1A1C042312
S113172013400AD0FB689B7E1A1C0423134004D088
S1131730FB681B69FA68101C9847BD4604B080BD5D
S1131740D00000206915000095150000FD1500006B
S113175080B500AF0020024B9847BD4680BDC0460F
S11317602116000080B584B000AFF860B960FB1D9D
S11317701A70FB1D1A78FB6802329200B968D150C6
S1131780FB689B7ED9B2FB1D1B7801229A40131C77
S1131790DBB20A1C1343DBB2DAB2FB689A76BD46AD
S11317A004B080BD80B584B000AFF860B960BB1DE3
S11317B01A80FB681B8B9BB2002B04D1FB681B7F38
S11317C0DBB2052B01D1052317E0FB6805221A774C
S11317D0FB68BA1D12881A83FB68BA685A61FB68F1
S11317E0181C0121074B9847FB685B7F002B03D033
S11317F0FB68181C044B98470023181CBD4604B012
S113180080BDC046D91500009515000080B582B092
S113181000AF021CFB1D1A70064BFA1D1278111C36
S11318201F220A40012191400A1C1A60BD4602B0E1
S113183080BDC04600E100E080B584B000AF7860B0
S11318407B681B68FB60FB685B7EDBB2DBB25BB270
S1131850002B01DA012300E00023181CBD4604B06C
S113186080BDC04680B584B000AF78607B681B68DB
S1131870FB60C0467B68181C0D4B9847031EF9D1CA
S113188015200C4B9847FB681B78DBB202221343EC
S1131890DAB2FB681A70C0467B68181C044B984780
S11318A0031EF9D10023181CBD4604B080BDC046F8
S11318B0391800000D18000080B584B000AF7860BE
S11318C00A1CFB1C1A707B681B68FB60FB68FA1C13
S11318D01278DA75BD4604B080BDC04680B582B0CA
S11318E000AF78600A1CFB1C1A707B68DB7ED9B2DF
S11318F0FB1C1B7801229A40131CDBB20A1C134305
S1131900DBB2DAB27B68DA76FB1C1B78012B04D1DC
S11319107B68181C0421074B9847FB1C1B78022B7F
S113192004D17B68181C0221024B9847BD4602B0C3
S113193080BDC046B918000080B582B000AF7860A1
S1131940024B01221A70BD4602B080BD6500002022
S113195080B500AF0E4B181C0E4B98470C4B8022E1
S113196052005A800A4B02225A70094B0A221A73F7
S1131970074B30221A71084A0849054B101C1A1CDF
S1131980074B9847044B181C064B9847BD4680BD2F
S1131990D4000020FD0D00003C0400200040004263
S11319A0751400006518000080B500AF064A074BA7
S11319B0101C191C0022064B9847034B181C0021CD
S11319C0044B9847BD4680BD3C04002039190000F3
S11319D065170000DD18000080B584B000AF021C5C
S11319E0FB1D1A700F23FB18FA1D1278D2091A7006
S11319F00E23FB18FA1D127852091A700D4BBB60A6
S1131A000F23FB181B78002B0FD10F23FB181B7817
S1131A109B0010229446BC446344083B1A680E237E
S1131A20FB181B78DB01D31800E00023181CBD460B
S1131A3004B080BD0044004180B582B000AF021CF8
S1131A40FB1D1A70064BFA1D1278111C1F220A4046
S1131A50012191400A1C1A60BD4602B080BDC046F7
S1131A6000E100E080B582B000AF021CFB1D1A70DB
S1131A70FB1D1B78181C034B9847031C181CBD4600
S1131A8002B080BDD919000080B584B000AF021C3B
S1131A90FB1D1A70FB1D1B78181C094B9847031C6F
S1131AA0FB60FB1D1B781F22134001229A40131C6C
S1131AB0BB60FB68BA68DA61BD4604B080BDC0464D
S1131AC0651A000080B584B000AF78607B681B683D
S1131AD0FB60FB68DB7BDBB21A1C802313405A1EBD
S1131AE09341DBB2181CBD4604B080BD80B582B002
S1131AF000AF78607B6800221A707B6800229A70BD
S1131B007B6800229A807B6800229A717B6800229D
S1131B101A817B6800225A707B6800229A727B6863
S1131B200022DA727B6800221A737B6800229A739F
S1131B307B6800225A737B6800221A747B68002237
S1131B405A617B6800229A617B6800221A777B685D
S1131B5000221A627B6800225A627B6800221A857E
S1131B607B6800225A857B6800229A85BD4602B0B4
S1131B7080BDC04680B584B000AF78607B681B68C8
S1131B80FB60C0467B68181C074B9847031EF9D1BD
S1131B90FB681B889BB2022213439AB2FB681A802B
S1131BA0BD4604B080BDC046C51A000080B582B0F1
S1131BB000AF7860044A7B68D3181B78DBB25BB251
S1131BC0181CBD4602B080BD0000002080B582B064
S1131BD000AF78600A1CFB1C1A707B681B68181C19
S1131BE0224B9847031C181C214B9847031C181CB4
S1131BF0204B9847FB1C1B78022B0BD17B685B7E28
S1131C0010221343DAB27B685A767B681B68102271
S1131C105A7327E0FB1C1B78032B0BD17B685B7E7C
S1131C2020221343DAB27B685A767B681B68202231
S1131C305A7317E07B685B7ED9B2FB1C1B780122C8
S1131C409A40131CDBB20A1C1343DBB2DAB27B6882
S1131C505A767B681B68FA1C1278012191400A1C91
S1131C60D2B25A73BD4602B080BDC0465D37000093
S1131C70AD1B0000391A000080B58EB000AF3B1DCB
S1131C80181C304B98473B1D00229A703B1D0122C3
S1131C901A703B1D00229A803B1D32225A853B1D3F
S1131CA036229A85284A29493B1D101C1A1C284BA8
S1131CB09847284A28493B1D101C1A1C244B984756
S1131CC0264A27493B1D101C1A1C214B9847254ABC
S1131CD025493B1D101C1A1C1D4B9847234A2449B7
S1131CE03B1D101C1A1C1A4B9847224A22493B1DC3
S1131CF0101C1A1C164B9847204A21493B1D101CE6
S1131D001A1C134B9847104B181C1E4B9847114B29
S1131D10181C1C4B9847114B181C1A4B9847114B15
S1131D20181C184B9847114B181C164B9847114B0D
S1131D30181C144B9847114B181C124B9847BD465E
S1131D400EB080BDED1A00002001002000200042EA
S1131D50AD3700003C01002000240042580100205F
S1131D600028004274010020002C00429001002051
S1131D7000300042AC01002000340042C8010020C1
S1131D8000380042751B000080B500AF064A074BBF
S1131D90101C191C0022064B9847034B181C0021E9
S1131DA0044B9847BD4680BD04010020B91D0000C6
S1131DB0D1340000CD1B000080B582B000AF786044
S1131DC01620024B9847BD4602B080BD891A000018
S1131DD080B58EB000AF3B1D181C0F4B98473B1DC0
S1131DE004229A703B1D01221A703B1DA022D200CE
S1131DF09A803B1D29227C219954084A08493B1D9D
S1131E00101C1A1C074B9847044B181C064B984788
S1131E10BD460EB080BDC046ED1A0000040100208E
S1131E20003C0042AD370000751B000080B582B055
S1131E3000AF0F4B1B68002B12D1EFF310837B60B4
S1131E407B68002B09D172B6BFF35F8F094B002268
S1131E501A70094B01221A7002E0074B00221A7013
S1131E60034B1B685A1C024B1A60BD4602B080BD6E
S1131E7044000020080000204800002080B500AF86
S1131E800A4B1B685A1E094B1A60084B1B68002B2F
S1131E900AD1074B1B78DBB2002B05D0054B01227E
S1131EA01A70BFF35F8F62B6BD4680BD4400002048
S1131EB0480000200800002080B582B000AF7860A0
S1131EC07B6880221A707B6800225A707B6801222A
S1131ED09A707B680022DA70BD4602B080BDC046AD
S1131EE080B584B000AF021C3960FB1D1A700C234E
S1131EF0FB18181C0F4B98470C23FB1880221A70F0
S1131F003B681A780C23FB185A703B685A780C23E8
S1131F10FB189A703B689A780C23FB18DA70FB1D47
S1131F201A780C23FB18101C191C034B9847BD4648
S1131F3004B080BDB91E00008534000080B582B0B5
S1131F4000AF78607B6800221A70BD4602B080BD85
S1131F5080B586B000AFF860B9607A601623FB18CC
S1131F6000221A80BB683B61BB685A08FB689A422E
S1131F7001D2402326E0BB685B083B610AE03A6972
S1131F80FB68D31A3B611623FB181A881623FB1827
S1131F9001321A803A69FB689A42F0D21623FB1880
S1131FA01622BA181288013A1A801623FB181B88C5
S1131FB0FF2B01D9402305E07B681622BA1812884A
S1131FC01A800023181CBD4606B080BD80B584B0BD
S1131FD000AF021CFB1D1A70BB1D0A1C1A701A4BA1
S1131FE01B7801225340DBB2002B03D1BB1D1B78AD
S1131FF0002B1BD00C23FB18181C144B98470C23E4
S1132000FB18FA1D12781A700C23FB180C20191CEB
S11320100F4B98470C200F4B98470B4BFA1D127827
S11320205A70094B01221A70002308E0064B5B78B2
S1132030FA1D12789A4201D1002300E01D23181CD6
S1132040BD4604B080BDC0464C0000203D1F0000CA
S1132050513100009531000080B582B000AF786046
S11320600A1CFB1C1A707B684D4A93423FD04C4AB1
S1132070934206D84B4A93420FD04B4A934221D005
S113208089E04A4A934200D15BE0494A934200D135
S11320906CE0484A93423FD07DE0FB1C1B78012B47
S11320A00AD002DC002B05D075E0022B06D0032BEE
S11320B006D070E0404B6FE0404B6DE0404B6BE06E
S11320C0404B69E0FB1C1B78012B0AD002DC002B7F
S11320D005D060E0022B06D0032B06D05BE003237F
S11320E05AE0394B58E0394B56E0394B54E0FB1C6D
S11320F01B78012B0AD002DC002B05D04BE0022B0D
S113210006D0032B06D046E0324B45E0324B43E089
S1132110324B41E0324B3FE0FB1C1B78012B0AD0D1
S113212002DC002B05D036E0022B06D0032B06D0B0
S113213031E02C4B30E02C4B2EE02C4B2CE02C4B84
S11321402AE0FB1C1B78012B0AD002DC002B05D0F3
S113215021E0022B06D0032B06D01CE0254B1BE00C
S1132160254B19E0254B17E0254B15E0FB1C1B788C
S1132170012B0AD002DC002B05D00CE0022B06D088
S1132180032B06D007E01F4B06E01F4B04E01F4B58
S113219002E01F4B00E00023181CBD4602B080BDC6
S11321A00010004200080042000C004200180042E7
S11321B0001C004200140042030004000300050058
S11321C003000600030007000300010003001E00D3
S11321D003001F00030008000300090003000A00B5
S11321E003000B00030010000300110003001200A1
S11321F00300130003000C0003000D0003000E0095
S113220003000F000300160003001700030018006A
S11322100300190090B58BB000AF78600C23FB1855
S11322200E4A13CA13C313CA13C300237B620DE0FF
S11322307B680C22BA18796A89008A58934202D1C1
S11322407B6ADBB206E07B6A01337B627B6A052B27
S1132250EED90023181CBD460BB090BDF447000016
S113226080B582B000AF78607B6880221A707B688A
S113227000225A707B6801229A707B680022DA700F
S1132280BD4602B080BDC04680B582B000AF786064
S11322907B6800221A70BD4602B080BD80B582B052
S11322A000AF021C3960FB1D1A70FB1D1B78012B4B
S11322B00AD0022B0FD0002B14D10E4B0D4A91697A
S11322C03A680A439A610FE00A4B0A4AD1693A68AC
S11322D00A43DA6108E0074B064A116A3A680A437E
S11322E01A6201E0172300E00023181CBD4602B067
S11322F080BDC0460004004080B500AF054B9B780C
S1132300DBB21A1C022313405A1E9341DBB2181C81
S1132310BD4680BD0020004190B593B000AF786009
S113232039607B681B687B637B681B683B631C2389
S1132330FB18181C7A4B98471C23FB1800225A7070
S11323403B681B78002B03D11C23FB1800229A70D6
S11323503B685A6A0C23FB181A603B689A6A0C2380
S1132360FB185A603B68DA6A0C23FB189A603B68D6
S11323701A6B0C23FB18DA604723FB1800221A702F
S11323802CE04723FB181A780C23FB189200D3582F
S11323903B643B6C002B09D13A6B4723FB181B7839
S11323A0101C191C5F4B9847031C3B643B6C0133A6
S11323B00DD03B6CDAB21C23FB181A703B6C1B0C5F
S11323C0DAB21C23FB18101C191C574B98474723DF
S11323D0FB181A784723FB1801321A704723FB189D
S11323E01B78032BCDD93B681A787B685A713B68FC
S11323F01A7C7B689A713B689A7C7B68DA710A2341
S1132400FB1800221A800023FB630023BB633B6894
S11324101B78012B2BD17B681B68181C434B9847F6
S1132420031CFB62FB6A0D33BB62BB6ADBB2181C84
S11324303F4B9847031C7B623B6859692323FC1874
S11324407A6A0A23FB18081C111C1A1C394B98477A
S1132450031C23702323FB181B78002B01D01723A4
S11324605AE00A23FB181B88DAB27B6B9A723B682A
S11324701B78002B19D13B685B69FB633B681B8BA2
S1132480BB637B6B5B693A68927E111C3A68D27EAF
S113249012040A431A437B6B5A613B681B7F002B6F
S11324A003D0BB6B40221343BB633B685B68FA6B8E
S11324B01343FB633B689B68FA6B1343FB633B6802
S11324C0DB68FA6B1343FB633B681B7C1A1CBB6B16
S11324D01343BB633B685B7C002B03D1164B9847CB
S11324E0031E03D0FB6B80221343FB633B689B7C7E
S11324F0002B04D0BB6B802292021343BB637B6B23
S11325001A68FB6B1A437B6B1A607B6B5A68BB6B54
S11325101A437B6B5A600023181CBD4613B090BD50
S113252061220000592000008534000015220000BB
S1132530BD320000511F0000F922000090B58BB09D
S113254000AFF860B9607A60FB68BA681A60FB682B
S11325501B683B623B6A1B680222134001D01C23A8
S1132560A5E03B6A1B680122134001D005239EE0CD
S1132570FB681B68181C504B9847031CFB61FB69E4
S11325800233BB61FB690D337B61BB6901229A4055
S1132590131C0220191C494B98471023FB18181CC4
S11325A0474B98477B6820229A5C1023FB181A70CB
S11325B07B69DAB21023FB18101C191C414B984795
S11325C07B69DBB2181C404B98477B6820229B5CDC
S11325D0181C00213D4B98477B681B78012B05D1C3
S11325E03B6A1B680C221A433B6A1A607B681B789F
S11325F0002B05D13B6A1B6808221A433B6A1A6008
S11326002723FB1800221A700FE02723FB181B78DE
S1132610FA6802339B00D31800225A602723FB1860
S11326201A782723FB1801321A702723FB181B780A
S1132630042BEAD9FB6800225A62FB6800221A6262
S1132640FB6800229A85FB6800221A85FB682E220B
S113265000219954FB682F2200219954FB683022F1
S113266000219954FB6803221A72FB6800221A7134
S1132670FB681B681322BC18181C0F4B9847031CDB
S113268023701323FB181A78114B101C191C114BBF
S113269098471323FB181A780F4B9200F968D1500E
S11326A0FA687B68101C191C0C4B9847031C181CF7
S11326B0BD460BB090BDC046152200009D2200000F
S11326C0892200005131000095310000CD1F000027
S11326D0E9050000690400006800002019230000D7
S11326E080B582B000AF78607B6801225A607B6855
S11326F000225A707B6806221A707B6800221A72C4
S11327007B6800225A72BD4602B080BD80B582B09B
S113271000AF78607B6803221A707B6800225A70CD
S11327207B6801229A70BD4602B080BD80B582B03C
S113273000AF78607B6800221A707B6800225A80A0
S11327407B6800229A807B6800229A717B68002251
S1132750DA717B6801225A707B6807221A727B68DF
S11327603F225A817B6801221A737B680122DA8135
S11327707B6806221A82BD4602B080BD80B582B055
S113278000AF021CFB1D1A70034AFB1D1B78137259
S1132790BD4602B080BDC0460004004080B582B092
S11327A000AF021CFB1D1A70BB1D0A1C1A70FB1D16
S11327B01B78012B08D0022B0BD0002B0ED10B4A17
S11327C0BB1D1B7853720BE0084ABB1D1B78937228
S11327D006E0064ABB1D1B78D37201E0172300E014
S11327E00023181CBD4602B080BDC0460004004052
S11327F080B582B000AF021CFB1D1A70084BFA1D95
S113280012780F210A40D2B20F210A4052005968AF
S11328101E2081430A435A60BD4602B080BDC046B3
S11328200040004180B500AF024B9B69181CBD46B7
S113283080BDC0460020004180B500AFC046034BB8
S1132840DB6810221340FAD0BD4680BD000800406A
S113285080B500AF0C4A0D4B1B689BB280218B43A3
S11328609BB293840A4B9847074A084B9B68D362F0
S1132870054A064B5B689362034A044B1B689BB290
S11328809384BD4680BDC04600080040500000202F
S11328903928000080B582B000AF021CFB1D1A70FD
S11328A0FB1D1B78072B35D89A001D4BD3181B68CA
S11328B09F461C4BDB682EE01B4B1B6A1B0A1A1C31
S11328C003231340DBB21A1C184BD34023E08023AC
S11328D01B0220E080231B021DE0124B1B691AE03F
S11328E0104B1B680222134001D1002313E0104B4C
S11328F098470C4B1B680422134009D000200D4B51
S11329009847021C074B9B681B041B0C534302E0B3
S1132910094B00E00023181CBD4602B080BDC04630
S11329200C480000500000200008004000127A000B
S113293039280000BD320000006CDC0280B584B090
S113294000AF78601A4B1B6AFB607B681B781A1C0B
S113295003231340DAB20D23FB1803210A40101C91
S11329601A7803218A43111C021C0A431A707B68DB
S11329709A780C23FB18D0011A787F210A40111C85
S1132980021C0A431A707B685A780C23FB18012135
S11329900A4090011A7840218A43111C021C0A4300
S11329A01A70034BFA681A62BD4604B080BDC04673
S11329B00008004080B584B000AF7860394B984778
S11329C0031CFB60FA68F0231B011340FB60FB68E7
S11329D01B0AFB60FB68022B0FD87B681B7A1B0267
S11329E01A1CF8235B011A407B685B89191CFF23BE
S11329F00B401A432C4B5A600BE07B681B7A9B02FA
S1132A001B041A0C7B685B899B059B0D1A43264BA0
S1132A105A607B689A797B68DB791343DBB21A1CB2
S1132A207B685B8813437A6892881A437B685B7877
S1132A30DB011A431C4B1A607B681B78042B2ED1D4
S1132A40FB68022B14D87B681B7B1B061A1CF8231B
S1132A505B051A407B68DB891B04191CFF231B04DC
S1132A600B4013437A68128A1A430F4B9A600FE0A3
S1132A707B681B7B9B061A1C7B68DB891B04191C67
S1132A800A4B0B4013437A68128A1A43064B9A6026
S1132A90054B1B687A6812781A43034B1A60BD46CB
S1132AA004B080BD25280000500000200000FF0372
S1132AB080B582B000AF021CFB1D1A70FB1D1B7891
S1132AC0072B30D89A001B4BD3181B689F461A4B10
S1132AD0194A126A02210A431A62002326E0164B9D
S1132AE0154A926902210A439A611EE0124A124B66
S1132AF01B8A9BB202210B439BB2138215E00E4A40
S1132B000D4B9B8A9BB202210B439BB293820CE038
S1132B100A4B1B6802221A43084B1A60084B984759
S1132B2003E0002302E0172300E00023181CBD4645
S1132B3002B080BD2C480000000800405000002076
S1132B405128000080B584B000AF021CFB1D1A7030
S1132B500023FB60FB1D1B78072B15D89A00124B32
S1132B60D3181B689F460823FB600FE00423FB6017
S1132B700CE00123FB6009E00223FB6006E0102364
S1132B80FB6003E001230AE0002308E0074BDB6855
S1132B90FA681A40FB68D31A5A425341DBB2181C34
S1132BA0BD4604B080BDC0464C480000000800404B
S1132BB080B582B000AF3B1C02221A7000237B60F8
S1132BC009E07B68DAB23B1C101C191C054B9847C2
S1132BD07B6801337B607B681B2BF2D9BD4602B056
S1132BE080BDC0465131000080B5A4B000AF7B4B1E
S1132BF0C222D2009A600020794B9847794B9847BB
S1132C007423FB18181C784B98477423FB18002274
S1132C101A707423FB1800225A70744B9847031CD3
S1132C208822BA1813608823FB181A68F0231B0142
S1132C3013408822BA1813608823FB181B681B0AE8
S1132C408822BA1813608823FB181B68022B15D935
S1132C50674B1B689B0E8C22BA1813608C23FB18DD
S1132C601B683F2B03D11F238C22BA1813608C23BB
S1132C70FB181B68DAB27423FB181A727423FB184E
S1132C803F225A817423FB1800225A807423FB18B4
S1132C900022DA717423FB1800229A717423FB1842
S1132CA000229A807423FB1807221A737423FB18DA
S1132CB03F22DA817423FB18181C4E4B984770236B
S1132CC0FB18181C4C4B98477023FB1800221A70F1
S1132CD07023FB1801229A707023FB1800225A708B
S1132CE07023FB18181C454B98470620444B984703
S1132CF0444B98475823FB18181C434B98475823B8
S1132D00FB1806221A705823FB1801225A60582314
S1132D10FB1800221A725823FB1800225A725823F7
S1132D20FB180120191C394B98470120384B984750
S1132D303423FB18181C344B98473423FB18062201
S1132D401A703423FB18FF225A603423FB18002224
S1132D501A723423FB1800225A723423FB180420FD
S1132D60191C2A4B98470420294B98470720244BC9
S1132D709847C0460720274B9847031C1A1C012379
S1132D805340DBB2002BF5D10020234B98470020A1
S1132D900021224B984701200021204B9847022014
S1132DA000211E4B98473B1C181C174B98473B1C93
S1132DB006221A703B1C01225A603B1C00221A7224
S1132DC03B1C00225A723B1C0020191C0F4B9847D5
S1132DD000200F4B9847BD4624B080BD000800403A
S1132DE0F1270000B12B00002D270000252800004A
S1132DF024608000B52900000D2700003D29000053
S1132E00B12A0000C12E0000E1260000F12E0000CE
S1132E1011300000452B00007D2700009D27000095
S1132E2080B582B000AF021C3960FB1D1A70FB1D17
S1132E301B78012B0AD0022B0FD0002B14D10E4B80
S1132E400D4A91693A680A439A610FE00A4B0A4AAB
S1132E50D1693A680A43DA6108E0074B064A116A05
S1132E603A680A431A6201E0172300E00023181CA1
S1132E70BD4602B080BDC0460004004080B500AF2E
S1132E80014B9847BD4680BD2D1E000080B500AFA4
S1132E90014B9847BD4680BD7D1E000080B500AF44
S1132EA0064B5B78DBB2DBB25BB2002B01DA0123A9
S1132EB000E00023181CBD4680BDC046000C004045
S1132EC080B500AF00200821074B9847074B01222B
S1132ED01A70C046054B1B78DBB21A1C0123134041
S1132EE0F8D1BD4680BDC046212E0000000C004034
S1132EF080B586B000AF021C3960FB1D1A70FB1D43
S1132F001B787B61FB1D1B783B613B681B781B02B4
S1132F101A1C7B6913437B613B685B78002B04D0EC
S1132F207B698022D20213437B613B685B7A002B6E
S1132F3004D07B698022120313437B613B685B6886
S1132F40012B2CD93B685A683B685B68013B1340F2
S1132F501AD10023FB600223BB6005E0FB68013348
S1132F60FB60BB685B00BB603B685A68BB689A4205
S1132F70F4D8FB681B023A6913433B617B698022E6
S1132F80520313437B610AE03B685B681B023A69A6
S1132F9013433B617B698022920213437B613B684C
S1132FA01B7A002B04D07B698022920313437B613C
S1132FB0C046124B9847031EFBD1114B9847114A48
S1132FC0FB1D1B781370C0460C4B9847031EFBD1A6
S1132FD00D4B3A699A60C046084B9847031EFBD1D3
S1132FE0094B094A51688022520211407A690A4306
S1132FF05A60064B9847BD4606B080BD9D2E000022
S11330007D2E0000080C0040000C00408D2E0000B6
S113301080B582B000AF021CFB1D1A70C0460D4B78
S11330209847031EFBD10C4B98470C4AFB1D1B7899
S11330301370C046074B9847031EFBD1084B084A40
S11330405268802149020A435A60064B9847BD469C
S113305002B080BD9D2E00007D2E0000040C0040B7
S1133060000C00408D2E000080B586B000AF021C1D
S1133070FB1D1A70C0462E4B9847031EFBD12D4BE7
S113308098472D4AFB1D1B781370C046284B984760
S1133090031EFBD1294B5B681B0A1A1C1F23134018
S11330A0DBB2181C264B9847031C7B61224AFB1D8C
S11330B01B781370214B5B681B0D1A1C01231340F2
S11330C0DAB21323FB181A701E4AFB1D1B78137007
S11330D0C046174B9847031EFBD1184B9B681B0A2D
S11330E01A1C00239A43131C9BB2FB60164B98478F
S11330F01323FB181B78002B09D1FB68012B06D97D
S1133100124B7869F9689847031C7B610AE0132322
S1133110FB181B78002B05D0FB6801331A1C7B6954
S1133120D3407B617B69181CBD4606B080BDC04698
S11331309D2E00007D2E0000040C0040000C004079
S113314095280000080C00408D2E00003545000035
S113315080B584B000AF021C3960FB1D1A70FB1DE2
S11331601B78FB603B681B781B021A1CFB6813432B
S1133170FB60FB1D1B78181C044B9847044BFA6832
S113318092B25A80BD4604B080BDC046D931000019
S1133190000C004080B582B000AF021CFB1D1A7009
S11331A0094B9847094AFB1D1B7813700849084BC3
S11331B05B889BB28022D20113439BB24B80054BA8
S11331C09847BD4602B080BD7D2E0000020C004031
S11331D0000C00408D2E000080B584B000AF021CAE
S11331E0FB1D1A701D4B98471D4AFB1D1B7813705D
S11331F01C4B5B889BB21B0A1A1C0F231340DBB2C7
S1133200FB60184B5A8818490A405A80154A154BD6
S11332105B889BB215490B409BB25380C046114B4F
S11332205B889BB21A1C8023DB011340F7D10D4B42
S1133230FA68D2B2111C0F220A40D2B2111C0F221A
S11332400A4010025A8808490A40111C021C0A4309
S11332505A80074B9847BD4604B080BD7D2E0000C0
S1133260020C0040000C0040FFF0FFFFFFBFFFFF17
S11332708D2E000080B582B000AF021CFB1D1A70B9
S1133280094B9847094AFB1D1B781370084A084BE1
S11332905B889BB207490B439BB25380064B98470C
S11332A0BD4602B080BDC0467D2E0000020C004029
S11332B0000C00400080FFFF8D2E000080B584B01C
S11332C000AF021CFB1D1A700E4B98470E4AFB1DE3
S11332D01B7813700D4B5B889BB21B0A1A1C0F23BF
S11332E01340DAB20F23FB181A70094B98470F23C7
S11332F0FB181B78181C074B9847031C181CBD4669
S113330004B080BD7D2E0000020C0040000C004083
S11333108D2E00006930000080B584B000AF021C1F
S1133320FB1D1A700F23FB18FA1D1278D2091A70AC
S11333300E23FB18FA1D127852091A700D4BBB604C
S11333400F23FB181B78002B0FD10F23FB181B78BE
S11333509B0010229446BC446344083B1A680E2325
S1133360FB181B78DB01D31800E00023181CBD46B2
S113337004B080BD0044004180B588B000AFF8605F
S1133380B9607A600023FB617B68DB7801225340DB
S1133390DBB2002B35D07B681B78802B0BD0FB690C
S11333A0802252021343FB617B681B781B061A1CA4
S11333B0FB691343FB617B685B78002B03D07B685C
S11333C05B78022B10D1FB69802292021343FB61CC
S11333D07B689B78002B04D0FB698022D2021343C4
S11333E0FB61FB68BA685A607B685B78012B03D089
S11333F07B685B78022B07D1FB69214A1340FB6190
S113340002E0FB68BA685A60BB681B041B0CBB6112
S1133410BB681B0C7B61BA69FB691343A022D2050C
S11334201A43FB689A627A69FB691343D022120635
S11334301A43FB689A627B68DB7801225340DBB253
S1133440002B1AD0FA698023DB0213400AD07B6870
S11334509B78012B03D1FB68BA689A6102E0FB6890
S1133460BA685A617B685B78012B03D07B685B7810
S1133470022B02D1FB68BA689A60BD4608B080BDD1
S1133480FFFFFBFF80B584B000AF021C3960FB1D59
S11334901A70FB1D1B78181C0B4B9847031CFB6010
S11334A0FB1D1B781F22134001229A40131CBB6092
S11334B0F968BA683B68081C111C1A1C034B98472E
S11334C0BD4604B080BDC046193300007933000006
S11334D080B584B000AFF860B960FB1D1A70FB1DA5
S11334E01A78FB6802329200B968D150FB1D1B7830
S11334F0022B07D1FB681B7E10221343DAB2FB6850
S11335001A761AE0FB1D1B78032B07D1FB681B7E80
S113351020221343DAB2FB681A760EE0FB681B7EA6
S1133520D9B2FB1D1B7801229A40131CDBB20A1C82
S11335301343DBB2DAB2FB681A760023181CBD46CB
S113354004B080BD80B500AF0020024B9847BD4653
S113355080BDC046E535000080B500AF0120024BB8
S11335609847BD4680BDC046E535000080B500AF34
S11335700220024B9847BD4680BDC046E535000099
S113358080B500AF0320024B9847BD4680BDC046BE
S1133590E535000080B500AF0420024B9847BD46D6
S11335A080BDC046E535000080B500AF0520024B64
S11335B09847BD4680BDC046E535000080B500AFE4
S11335C00620024B9847BD4680BDC046E535000045
S11335D080B500AF0720024B9847BD4680BDC0466A
S11335E0E535000080B584B000AF021CFB1D1A70E5
S11335F0FB1D1A78284B9200D358FB60FB681B68AC
S11336009B7BDBB2FA68127E1340DAB2FB68597E08
S11336100B23FB180A401A700B23FB181B7801229A
S1133620134008D0FB689B68FA68101C9847FB6835
S11336301B6801229A730B23FB181B780222134088
S113364008D0FB68DB68FA68101C9847FB681B68A5
S113365002229A730B23FB181B781022134008D004
S1133660FB681B69FA68101C9847FB681B681022EA
S11336709A730B23FB181B782022134008D0FB6895
S11336805B69FA68101C9847FB681B6820229A73D0
S1133690BD4604B080BDC0460002002080B582B0A3
S11336A000AF78607B6800221A70BD4602B080BD0E
S11336B080B582B000AF021C3960FB1D1A70FB1D7F
S11336C01B78012B0AD0022B0FD0002B14D10E4BE8
S11336D00D4A91693A680A439A610FE00A4B0A4A13
S11336E0D1693A680A43DA6108E0074B064A116A6D
S11336F03A680A431A6201E0172300E00023181C09
S1133700BD4602B080BDC0460004004080B582B012
S113371000AF78607B6880221A707B6800225A7040
S11337207B6801229A707B680022DA70BD4602B081
S113373080BDC04680B584B000AF78607B681B68EC
S1133740FB60FB68DB7BDBB21A1C802313405A1E30
S11337509341DBB2181CBD4604B080BD90B58DB05A
S113376000AF78600C23FB180F4A13CA13C313CAA3
S113377013C303CA03C30023FB620DE00C23FB182D
S1133780FA6A9200D2587B689A4202D1FB6ADBB291
S113379006E0FB6A0133FB62FB6A072BEED90023C8
S11337A0181CBD460DB090BD6C48000090B58FB09C
S11337B000AFF860B9607A603623FB1800221A80E3
S11337C03523FB1800221A703423FB1800221A70C8
S11337D03123FC18BB68181CC04B9847031C23708A
S11337E02823FA18BE4B111C1A1C0823081C111C90
S11337F01A1CBC4B98471823FA18BB4B111C1A1CF3
S11338001023081C111C1A1CB64B98473323FB18B1
S113381000221A700EE03323FB181A78FB68023278
S113382092000021D1503323FB181A783323FB185C
S113383001321A703323FB181B78032BEBD9FB6876
S113384000221A76FB6800225A763123FB181A7874
S1133850A64B9200F968D150FB68BA681A607B687D
S11338609B78082B07D13123FB181B7801221340C6
S113387001D01723C3E17B689A78FB681A71BB688F
S11338801B889BB21A1C0123134001D00523B6E107
S1133890BB68DB7BDBB21A1C1023134001D01C2352
S11338A0ADE1BB681B889BB21A1C0223134001D0F4
S11338B01C23A4E17B681B7C002B17D01423FB186A
S11338C0181C8B4B98477B689B69DAB21423FB184E
S11338D01A701423FB1801225A707B685B69DAB2F0
S11338E01423FB18101C191C824B98477B681B7F00
S11338F0002B17D01423FB18181C7D4B98477B68AA
S11339005B6ADAB21423FB181A701423FB18012221
S11339105A707B681B6ADAB21423FB18101C191C3A
S1133920744B98473123FB181A781823FB1852005C
S1133930D35A0220191C704B98477B689B78082B3C
S11339400BD13123FB181B785A1C1823FB18520087
S1133950D35A0220191C684B98471023FB18181CD3
S1133960664B98477B681A781023FB181A7031232A
S1133970FB181B782822BA18D25C1023FB18101CE1
S1133980191C5F4B98473123FB181B782822BA185F
S1133990D35C181C5B4B98477B689A787B689B794F
S11339A01343DBB29AB27B681B89134399B27B68D9
S11339B09A883623FB180A431A807B685B78002BAD
S11339C008D03623FB183622BA1812888021090140
S11339D00A431A80C046FB68181C4B4B9847031EC9
S11339E0F9D1BB683622BA1812881A807B685B7BCF
S11339F0002B03D03523FB1804221A707B689B7BB1
S1133A00002B07D03523FB183522BA181278012170
S1133A100A431A70C046FB68181C3B4B9847031EA8
S1133A20F9D1BB68FF221A713523FB181B78002BD0
S1133A300BD0C046FB68181C334B9847031EF9D1C2
S1133A40BB683522BA1812785A713423FB187A6885
S1133A50927A1A703223FB1800221A701CE0322367
S1133A60FB181B787A68D318DB7A002B0DD032232D
S1133A70FB181B7810229A40131CD9B23423FB186C
S1133A803422BA1812780A431A703223FB181A78AF
S1133A903223FB1801321A703223FB181B78012BD6
S1133AA0DDD9C046FB68181C174B9847031EF9D193
S1133AB0BB683422BA1812789A71C046FB68181C85
S1133AC0114B9847031EF9D1FB681B79042B1DD0B9
S1133AD0082B00D16FE0002B4AD08FE05D37000047
S1133AE08C480000A5460000944800000002002015
S1133AF00D37000085340000B13600009D3600000B
S1133B00513100009531000035370000C046FB6894
S1133B10181C3D4B9847031EF9D17B6828229A5CF8
S1133B20BB681A74C046FB68181C374B9847031EC1
S1133B30F9D17B6829229A5CBB681A75C046FB6878
S1133B40181C314B9847031EF9D17B682A229A5CD2
S1133B50BB681A76C046FB68181C2B4B9847031E9B
S1133B60F9D17B682B229A5CBB685A76002346E025
S1133B70C046FB68181C244B9847031EF9D17B6888
S1133B801A8DBB681A82C046FB68181C1E4B9847E6
S1133B90031EF9D17B685A8DBB681A83C046FB6843
S1133BA0181C194B9847031EF9D17B689A8DBB6882
S1133BB05A83002323E0C046FB68181C124B984725
S1133BC0031EF9D17B689A6ABB681A61C046FB6818
S1133BD0181C0D4B9847031EF9D17B68DA6ABB6841
S1133BE09A61C046FB68181C074B9847031EF9D11D
S1133BF07B681A6BBB68DA61002300E01723181C8A
S1133C00BD460FB090BDC0463537000080B582B0C8
S1133C1000AF194B7B60194B3B607A683B689A4252
S1133C200CD007E03B681A1D3A607A68111D796070
S1133C3012681A603A68124B9A42F3D3114B3B60F4
S1133C4004E03B681A1D3A6000221A603A680E4B81
S1133C509A42F6D30D4B7B600D4B7A68FF218A4361
S1133C609A600C4B5A6880210A435A600A4B984761
S1133C700A4B9847FEE7C046C448000000000020F5
S1133C800C0000200C0000205C0400200000000058
S1133C9000ED00E00040004159460000554000009E
S1133CA080B500AFFEE7C04680B582B000AF786053
S1133CB07B6801225A607B6800225A707B68062266
S1133CC01A707B6800221A727B6800225A72BD4601
S1133CD002B080BD80B582B000AF78607B680022FE
S1133CE01A707B6800225A807B6800229A807B6865
S1133CF000229A717B680022DA717B6801225A7073
S1133D007B6807221A727B683F225A817B680122F2
S1133D101A737B680122DA817B6806221A82BD4607
S1133D2002B080BD80B500AF0020054B9847021C4F
S1133D30044B1B7ADBB2DA40131C181CBD4680BD51
S1133D40693000000004004080B584B000AF021C5C
S1133D50FB1D1A700E23FB1800221A80FB1D1B7812
S1133D60012B0AD0022B0FD0002B14D1114B5B7AFC
S1133D70DAB20E23FB181A800FE00E4B9B7ADAB2EC
S1133D800E23FB181A8008E00A4BDB7ADAB20E2302
S1133D90FB181A8001E0002308E00020064B984736
S1133DA0021C0E23FB181B88DA40131C181CBD468A
S1133DB004B080BD000400406930000080B582B0CA
S1133DC000AF021CFB1D1A70084BFA1D12780F215C
S1133DD00A40D2B20F210A40520059681E20814382
S1133DE00A435A60BD4602B080BDC046004000414F
S1133DF080B584B000AF021CFB1D1A700F23FB18A2
S1133E00FA1D1278D2091A700E23FB18FA1D1278C3
S1133E1052091A700D4BBB600F23FB181B78002B43
S1133E200FD10F23FB181B789B0010229446BC442F
S1133E306344083B1A680E23FB181B78DB01D31874
S1133E4000E00023181CBD4604B080BD00440041BE
S1133E5080B500AF034A3823D35CDBB2181CBD46DF
S1133E6080BDC0460004004080B500AF034B012272
S1133E701A70BFF35F8F62B6BD4680BD0800002094
S1133E8080B584B000AF78607B681B68FB60FB681A
S1133E905B7EDBB2DBB25BB2002B01DA012300E014
S1133EA00023181CBD4604B080BDC04680B584B054
S1133EB000AF7860081C111CFB1C021C1A70BB1C90
S1133EC00A1C1A707B681B68FB60FB1C1B78002BA8
S1133ED004D0FB1C1A78FB1C013A1A70FB1C1B78DB
S1133EE00F2B03D8BB1C1B780F2B01D9172315E00C
S1133EF0C0467B68181C0B4B9847031EF9D1FB681E
S1133F001B69094A1340BA1C127812051343FA1CA0
S1133F10127812041A43FB681A610023181CBD4668
S1133F2004B080BD813E0000FFFF00FF80B584B077
S1133F3000AF78600A1CFB1C1A707B681B68FB606E
S1133F40C0467B68181C0C4B9847031EF9D1FB68CC
S1133F501B691F2293431A1CFB1C1B781A43FB6822
S1133F601A61C0467B68181C034B9847031EF9D19D
S1133F70BD4604B080BDC046813E000080B582B01D
S1133F8000AF021CFB1D1A70FB1D1B78181C034B91
S1133F909847031C181CBD4602B080BDF13D0000CB
S1133FA080B582B000AF78607B6800221A707B68AD
S1133FB001225A707B6800229A70BD4602B080BD0F
S1133FC080B584B000AF021CFB1D1A70FB1D1B786A
S1133FD0181C0B4B9847031CFB60FB1D1B781F220E
S1133FE0134001229A40131CBB60FB681B6ABA6829
S1133FF013405A1E9341DBB2181CBD4604B080BD69
S11340007D3F000080B584B000AF021CFB1D1A7018
S1134010BB1D0A1C1A70FB1D1B78181C0C4B9847FF
S1134020031CFB60FB1D1B781F22134001229A40D6
S1134030131CBB60BB1D1B78002B03D0FB68BA6844
S11340409A6102E0FB68BA685A61BD4604B080BD5B
S11340507D3F000090B583B000AFF14B98473B1C07
S1134060181CF04B98473B1C01221A703B1C002083
S1134070191CED4B984700200121EC4B98473B1C41
S11340801420191CE84B98473B1C1520191CE64BBF
S113409098473B1C1620191CE34B98473B1C0022F5
S11340A01A703B1C01225A703B1C0D20191CDE4B5C
S11340B098473B1C0E20191CDB4B98473B1C0F20D8
S11340C0191CD94B98470D20D94B9847031C1A1C2F
S11340D001235340DBB2002B03D0D64B15221A70B8
S11340E010E00E20D24B9847031C1A1C01235340A6
S11340F0DBB2002B03D0CF4B29221A7002E0CD4B48
S11341003D221A707C1DCC4B9847031C23707B1DE9
S11341101B78202B04D10E200121C44B984703E0C7
S11341200E200021C14B9847C44B9847C44B984775
S1134130C44B9847C44B9847C44B9847C44B9847C3
S1134140C44B9847C44B9847C44B9847C44B9847B3
S1134150C44B9847021CC44B1A600120C34B9847B8
S1134160021CC14B1A60B74B9847FB1D00221A7002
S113417080E0FB1D1A78BE49131C9B009B189B0012
S113418000225A54FB1D1A78B949131C9B009B1832
S11341909B00CB1800225A70FB1D1A78B449131CDB
S11341A09B009B189B00CB1864229A70FB1D1A7805
S11341B0AF49131C9B009B189B00CB186422DA7038
S11341C0FB1D1A78AA49131C9B009B189B00CB1853
S11341D000221A71FB1D1A78A549131C9B009B1819
S11341E09B00CB1800229A71FB1D1A78A049131C5E
S11341F09B009B189B00CB183C22DA71FB1D1A789C
S11342009B49131C9B009B189B00CB1808335A2214
S11342101A70FB1D1A789649131C9B009B189B006F
S1134220CB18083300225A80FB1D1A789049131CBE
S11342309B009B189B00CB18083300225A60FB1D7F
S11342401A788B49131C9B009B189B00CB181033C6
S113425000221A70FB1D1A788549131C9B009B18B9
S11342609B00CB18103300225A70FB1D1A78FB1DDB
S113427001321A70FB1D1B78132B00D879E77D4B94
S1134280181C0A2100227C4B9847031C1A1C7B4BE8
S11342901A70784A7A4B101C191C0A22794B9847D9
S11342A0794B80221A7014200121604B984777497A
S11342B0754A774B081C111C1A1C0123754CA04726
S11342C0734BF7221A70BB1D00221A70694B181C1D
S11342D00021714B9847674B181C0A210022664B3A
S11342E09847031C1A1C654B1A70624A6B4B101CCE
S11342F0191C0A22634B9847031C1A1C5F4B1A7043
S11343005C4B181C0021644B98475A4B181C0A211B
S11343100022594B9847031C1A1C584B1A70554AD3
S11343205E4B101C191C0A22564B9847031C1A1C7E
S1134330524B1A705A4B1B78DBB2002B04D0584BEB
S113434000221A70574B9847574B1B78DBB2002B4F
S113435064D0554B00221A70BB1D1B78002B27D04C
S1134360444B181C00214C4B9847424B181C0A2103
S11343700022414B9847031C1A1C404B1A703D4ABB
S1134380464B101C191C0A223E4B9847031C1A1C4E
S11343903A4B1A70454B1B78F12B04D00A20142198
S11343A0434B98472BE00A201421424B984726E0C0
S11343B0304B181C0A21384B98472E4B181C0A21E5
S11343C000222D4B9847031C1A1C2C4B1A70294AA7
S11343D02B4B101C191C0A222A4B9847031C1A1C2D
S11343E0264B1A70314B1B78F12B04D000200A2184
S11343F02F4B984703E000200A212E4B9847BB1D02
S11344001B785A1E9341DBB201225340DBB21A1CC3
S1134410BB1D1A701A7801210A401A708AE7C04637
S1134420E92B0000A13F0000E11E00000540000050
S1134430C13F00007A020020513E0000D11D00005F
S1134440891D0000693E0000DD44000039010000C0
S1134450791C0000C5020000250400005119000069
S1134460A9190000253D000074020020493D000008
S1134470A80200203C040020AD3E0000A40200205D
S113448090020020A517000038040020200200201C
S113449078020020450300002D3F00007C0200202C
S11344A0640000209D080000650000200900002031
S11344B0B9090000E10C000080B586B000AF3B1DD7
S11344C0181C044B98473B1D181C034B9847BD46CA
S11344D006B080BDD53C0000B529000090B585B07C
S11344E000AF0F4B98470F23FC1807200D4B98473C
S11344F0031C237002200C4B98473B1C181C0B4BCD
S113450098473B1C07221A703B1C01225A603B1C33
S11345100020191C064B9847BD4605B090BDC04607
S1134520B9440000B12A0000BD3D0000A93C0000D0
S1134530F12E0000002243088B4274D303098B42FE
S11345405FD3030A8B4244D3030B8B4228D3030C5F
S11345508B420DD3FF22090212BA030C8B4202D301
S11345601212090265D0030B8B4219D300E0090A29
S1134570C30B8B4201D3CB03C01A5241830B8B4232
S113458001D38B03C01A5241430B8B4201D34B031B
S1134590C01A5241030B8B4201D30B03C01A524180
S11345A0C30A8B4201D3CB02C01A5241830A8B4205
S11345B001D38B02C01A5241430A8B4201D34B02EE
S11345C0C01A5241030A8B4201D30B02C01A524152
S11345D0CDD2C3098B4201D3CB01C01A5241830906
S11345E08B4201D38B01C01A524143098B4201D340
S11345F04B01C01A524103098B4201D30B01C01A6B
S11346005241C3088B4201D3CB00C01A52418308E4
S11346108B4201D38B00C01A524143088B4201D311
S11346204B00C01A5241411A00D201465241104671
S11346307047FFE701B5002000F00CF802BDC0464A
S11346400029F7D003B5FFF775FF0EBC4243891A62
S11346501847C0467047C0460E4B70B500251E1C57
S11346600D4CE41AA410A54204D0AB00F3589847AB
S11346700135F8E700F016F9084B00251E1C084C1C
S1134680E41AA410A54204D0AB00F35898470135AE
S1134690F8E770BDB0480000B0480000B048000022
S11346A0B4480000002310B5934203D0CC5CC4543A
S11346B00133F9E710BD031C8218934202D019702C
S11346C00133FAE7704700000708090A0B0C0000E1
S11346D00200000003000000280000002900000080
S11346E004000000050000000600000007000000B0
S11346F02000000021000000220000002300000030
S1134700240000002500000026000000270000000F
S113471008000000090000000A0000000B0000006F
S1134720F4100000FA100000FA100000FA10000063
S1134730FA100000FA100000FA100000FA1000004D
S1134740FA100000FA100000FA100000FA1000003D
S1134750FA100000FA100000FA100000FA1000002D
S1134760BE100000FA100000FA100000FA10000059
S1134770FA100000FA100000FA100000FA1000000D
S1134780FA100000FA100000FA100000FA100000FD
S1134790FA100000FA100000FA100000FA100000ED
S11347A0EE100000FA100000FA100000FA100000E9
S11347B0FA100000FA100000FA100000FA100000CD
S11347C0FA100000FA100000FA100000FA100000BD
S11347D0FA100000FA100000FA100000FA100000AD
S11347E0E8100000681000007E1000009410000023
S11347F04E10000000080042000C0042001000426D
S11348000014004200180042001C0042B2280000BC
S11348101429000014290000D4280000CE28000028
S1134820DA280000B8280000E0280000EC2A000084
S1134830262B0000262B0000222B0000DE2A00007D
S1134840FE2A0000CE2A0000102B0000722B00006C
S1134850882B0000882B0000842B00006C2B0000A8
S1134860782B0000662B00007E2B00000020004205
S11348700024004200280042002C00420030004284
S11348800034004200380042003C00421313141468
S1134890151516160001000200040008001000207F
S11348A000400080F8B5C046F8BC08BC9E4670477E
S11348B0CD000000F8B5C046F8BC08BC9E46704761
S10748C0A50000004B
S10F48C40D0E0F101112131401F7000068
S9033C0DB3
