S01400004D69646942545F536C6176652E737265639D
S1130000A0240020453B0000D93B0000D93B000060
S113001000000000000000000000000000000000DC
S1130020000000000000000000000000D93B0000B8
S11300300000000000000000D93B0000D93B000094
S1130040D93B0000D93B0000D93B0000D93B00005C
S1130050D93B0000D93B0000D93B00008D160000BD
S1130060A1160000B5160000C9160000DD16000038
S1130070F1160000F5190000091A00001D1A00000D
S1130080311A0000451A0000591A00006D1A0000C8
S1130090811A0000D93B0000D93B0000D93B000085
S11300A0D93B000010B5064C2378002B07D1054B33
S11300B0002B02D0044800E000BF0123237010BDD0
S11300C00C000020000000004040000008B5084B70
S11300D0002B03D00748084900E000BF0748036825
S11300E0002B00D108BD064B002BFBD09847F9E745
S11300F000000000404000001000002040400000CC
S11301000000000080B584B000AF021CFB1D1A7013
S11301100F23FB18FA1D1278D2091A700E23FB184C
S1130120FA1D127852091A700D4BBB600F23FB188D
S11301301B78002B0FD10F23FB181B789B00102278
S11301409446BC446344083B1A680E23FB181B788E
S1130150DB01D31800E00023181CBD4604B080BDA9
S11301600044004180B582B000AF021CFB1D1A7030
S1130170FB1D1B78181C034B9847031C181CBD4619
S113018002B080BD0501000080B582B000AF786088
S11301907B6800221A707B6801225A707B680022F7
S11301A09A70BD4602B080BD80B584B000AF021C19
S11301B0FB1D1A70BB1D0A1C1A70FB1D1B78181C32
S11301C00C4B9847031CFB60FB1D1B781F2213403C
S11301D001229A40131CBB60BB1D1B78002B03D06B
S11301E0FB68BA689A6102E0FB68BA685A61BD4666
S11301F004B080BD6501000080B500AF034B01224F
S11302001A70BFF35F8F62B6BD4680BD0800002040
S113021080B500AF72B6BFF35F8F024B00221A7035
S1130220BD4680BD0800002080B584B000AF786072
S11302307B681B68FB60FB681B8A9BB21A1C8023CB
S11302401B0213405A1E9341DBB2181CBD4604B076
S113025080BDC04680B582B000AF7860C0467B6880
S1130260181C034B9847031EF9D1BD4602B080BD4C
S11302702902000080B582B000AF78600A1CFB1C24
S11302801A707B6821229B5CD9B2FB1C1B7801226B
S11302909A40131CDBB20A1C1343DBB2D9B27B684D
S11302A021229954BD4602B080BDC04680B500AF3E
S11302B0102000210D4B98470D4B0A221A60C046AE
S11302C00B4B1B68002BFBD110200121074B9847D7
S11302D007200121054B9847054B32221A60C0467E
S11302E0034B1B68002BFBD1BD4680BDA901000058
S11302F04803002080B584B000AF78607B685A69F9
S11303000F23FB1812781A70104B1B78002B1AD08D
S11303100F4B98470F4B104A9B5C01330D4A0F4912
S1130320525C93420DD00B4B0B4A9B5C5A1CD0B2CF
S1130330084A09495054191C064B0F22BA1812785E
S11303405A54074B9847BD4604B080BDD1030020E2
S113035011020000C000002002020000030200009D
S1130360F901000080B582B000AF7860BD4602B0EC
S113037080BDC04680B584B000AF78607B685A69A0
S11303800F23FB1812781A70124B9847124A8023D5
S11303909B00D35C0133104A1049525C934213D042
S11303A00D4A80239B00D35C5A1CD0B20A49802298
S11303B092008854191C084A80235B005218D318F1
S11303C00F22BA1812781A70054B9847BD4604B02C
S11303D080BDC04611020000C000002001020000E0
S11303E0F901000080B582B000AF7860BD4602B06C
S11303F080BDC04680B500AF184A194B101C191CAB
S11304000022184B9847154A174B101C191C01223F
S1130410144B9847114B181C0021144B98470F4B51
S1130420181C0121114B9847114A124B101C191C1E
S113043000220C4B98470E4A0F4B101C191C01222A
S1130440084B98470A4B181C0021084B9847084B47
S1130450181C0121054B9847BD4680BD740000203F
S113046065030000150D000075030000750200000F
S113047098000020E5030000F502000080B584B078
S113048000AF0C23FB18181C424B9847424B98476B
S11304900C23FB1801221A700C23FB180520191CCD
S11304A03E4B9847052001213D4B98470C23FB18F0
S11304B00620191C394B984706200121384B9847D0
S11304C00C23FB180720191C344B984707200121E3
S11304D0334B98470C23FB181020191C2F4B9847BB
S11304E0102001212E4B98470C23FB1800221A7070
S11304F00C23FB1801225A700C23FB180420191C2E
S1130500264B98470C23FB181720191C234B98479C
S1130510244B9847244B9847244B9847244B98479F
S1130520244B9847244B9847244B1B6802221A7388
S1130530234B1B6802221A73224B98471F4A224BF3
S1130540101C191C0122214B98471D4A204B101CDA
S1130550191C01221D4B984714201E4B98473B1D24
S11305601D4A1168196012791A71144A3B1D101C36
S1130570191C0522194B9847114A3B1D101C191CC4
S11305800522164B98471420124B9847BD4604B0D9
S113059080BDC0468901000079330000712100004C
S11305A0A90100002D15000089150000F9070000BD
S11305B079070000AD080000F50300007400002076
S11305C098000020F901000068000020590D000087
S11305D064000020CD140000303E0000692D0000AE
S11305E080B584B000AF78600A1CFB1C1A707B686D
S11305F01B68FB60FB689B7BDBB21A1C0223134065
S113060001D1052312E07B68DB7901225340DBB280
S1130610002B01D01C2309E07B68181C054B98476C
S1130620FB1C1B789AB2FB681A830023181CBD4676
S113063004B080BD5502000080B582B000AF021C3A
S1130640FB1D1A70064BFA1D1278111C1F220A405A
S1130650012191400A1C1A60BD4602B080BDC0460B
S113066000E100E080B584B000AF78607B681B686F
S1130670FB60FB681B8A9BB21A1C80231B0213407D
S11306805A1E9341DBB2181CBD4604B080BDC0465F
S113069080B582B000AF7860C0467B68181C034BFD
S11306A09847031EF9D1BD4602B080BD650600001F
S11306B080B582B000AF78607B688022D2051A6072
S11306C07B6800225A607B68FF221A817B680022C3
S11306D09A727B680022DA727B68962292011A6110
S11306E07B6801221A757B6801225A757B68002297
S11306F09A757B680022DA757B6800229A617B68B0
S113070088225203DA607B6800221A777B68002211
S11307105A777B6800221A627B6800225A627B68DF
S113072000229A627B680022DA62BD4602B080BD74
S113073080B584B000AF78607B681B68FB607B6821
S11307401B68181C094B9847031C181C084B984736
S11307507B68181C074B9847FB681B6802221A43E6
S1130760FB681A60BD4604B080BDC046391600005F
S1130770390600009106000080B58CB000AF3B1C28
S1130780181C154B98473B1C144A1A613B1C012248
S11307905A773B1CC4229203DA603B1C012252426A
S11307A01A623B1C012252425A623B1C0C4A9A6256
S11307B03B1C0C4ADA62C0460B4A0C493B1C101C19
S11307C01A1C0B4B9847031EF6D1074B181C094BF8
S11307D09847BD460CB080BDB1060000E07900002A
S11307E003002A0003002B00980000200018004298
S11307F0AD2A00003107000080B58CB000AF3B1C6F
S1130800181C154B98473B1CE12252021A613B1CF1
S113081001225A773B1C80225203DA603B1C0F4AA8
S11308201A623B1C0E4A5A623B1C0E4A9A623B1CDB
S11308300D4ADA62C0460D4A0D493B1C101C1A1CB5
S11308400C4B9847031EF6D1084B181C0A4B9847CB
S1130850BD460CB080BDC046B106000002003000A9
S1130860020031000300360003003700740000204A
S1130870001C0042AD2A00003107000080B500AF23
S1130880034B01221A70BFF35F8F62B6BD4680BD71
S11308900800002080B500AF72B6BFF35F8F024B33
S11308A000221A70BD4680BD0800002080B582B0C9
S11308B000AFBB1D00221A8014E0BB1D1A88BB1DAB
S11308C01B8815490020C8541349C85C1249802369
S11308D05B008A18D318021C1A70BB1D1A88BB1D32
S11308E001321A80BB1D1B88FE2BE6D90A4A8023DD
S11308F09B000021D154084B084A00219954064B0F
S1130900074A00219954044B064A00219954024B8A
S1130910181CBD4602B080BDC000002001020000CA
S1130920020200000302000080B582B000AF021C86
S1130930FB1D1A700E4B0F4A9B5C01330C4A0E4987
S1130940525C93420ED00A4B0A4A9B5C5A1CD0B2AA
S1130950074A08495054191C054BFA1D12785A5479
S1130960002300E01C23181CBD4602B080BDC04615
S1130970C0000020020200000302000080B584B021
S113098000AF78607B68181C124B9847031CBB604F
S11309900F23FB1800221A7012E00F4B98477B6854
S11309A01B78181C0D4B98470D4B98477B680133F7
S11309B07B600F23FB181A780F23FB1801321A707F
S11309C00F23FB181A78BB689A42E6D3BD4604B0DD
S11309D080BDC046053E00009508000029090000BE
S11309E07D08000080B582B000AFBB1D00221A80D4
S11309F01C4A80239B00D25C1A4B1B495B5C9A42C5
S1130A0024D0184A80239B00D25C164B16495B5CA9
S1130A109A420CD9134A80239B00D35C99B2114BA0
S1130A20114A9B5C9AB2BB1D8A1A1A800EE00D4AC9
S1130A3080239B00D35C9AB20A4B0B495B5C9BB24C
S1130A40D31A9AB2BB1D0132FF321A80074BBA1D6A
S1130A5012881A80BB1D1B88DBB2181CBD4602B06D
S1130A6080BDC046C000002001020000C802002072
S1130A7080B582B000AFBB1D00221A801A4B1B4AFE
S1130A809A5C194B1A495B5C9A4221D0164B174A5F
S1130A909A5C154B16495B5C9A420BD9124B134A6C
S1130AA09B5C99B2104B124A9B5C9AB2BB1D8A1A8A
S1130AB01A800DE00C4B0D4A9B5C9AB20A4B0C4910
S1130AC05B5C9BB2D31A9AB2BB1D0132FF321A800F
S1130AD0084BBA1D12881A80BB1D1B88DBB2181C78
S1130AE0BD4602B080BDC046C00000200202000026
S1130AF003020000C602002090B585B000AF0023B9
S1130B00FB602B4B9847031CBB60BA68FB689A4296
S1130B1001D9BB68FB60BB68002B1DD0254B264A5E
S1130B209B5C191CFB1D234A525C1A70BC1D234A92
S1130B30FB1D1B78101C191C214B9847031C2370A8
S1130B40BB1D1B78002B07D11A4B1B4A9B5C01333E
S1130B50D9B2184B184A99541A4B9847031CBB60D6
S1130B60BB68002B21D0134B174A9B5C181CFB1D40
S1130B7010498022520009188A1812781A70BC1D74
S1130B80124AFB1D1B78101C191C0D4B9847031CA3
S1130B902370BB1D1B78002B07D1064B0A4A9B5CB4
S1130BA00133D9B2034B084A9954BD4605B090BDF0
S1130BB0710A0000C000002003020000740000203D
S1130BC0E1050000E5090000010200009800002092
S1130BD090B585B000AF0023FB60174B9847031C0A
S1130BE0BB60BA68FB689A4201D9BB68FB60BB680A
S1130BF0002B1DD0114B124A9B5C191CFB1D0F4A84
S1130C00525C1A70BC1D0F4AFB1D1B78101C191C6A
S1130C100D4B9847031C2370BB1D1B78002B07D179
S1130C20064B074A9B5C0133D9B2044B044A9954DE
S1130C30BD4605B090BDC046710A0000C00000204A
S1130C400302000074000020E105000080B500AF3D
S1130C50014B9847BD4680BDBD20000080B500AF64
S1130C60014B9847BD4680BD0D21000080B584B07E
S1130C7000AF78607B681B68FB60FB681B8A9BB2D3
S1130C801A1C80231B0213405A1E9341DBB2181C0A
S1130C90BD4604B080BDC04680B582B000AF786068
S1130CA0C0467B68181C034B9847031EF9D1BD4608
S1130CB002B080BD6D0C000080B586B000AFF86056
S1130CC0B960BB1D1A80FB681B687B610F4B98479A
S1130CD0FB689B8B9BB2002B03D00D4B98470523DD
S1130CE010E0FB68BA1D12889A83094B9847FB6889
S1130CF0BA685A61FB682222052199547B6904224F
S1130D005A730023181CBD4606B080BD4D0C00006C
S1130D105D0C000080B584B000AFF860B960FB1DC5
S1130D201A70FB1D1A78FB6802329200B968D15020
S1130D30FB6820229B5CD9B2FB1D1B7801229A40E0
S1130D40131CDBB20A1C1343DBB2D9B2FB682022AA
S1130D509954BD4604B080BD80B584B000AFF8603E
S1130D60B960BB1D1A80BB1D1B88002B01D1172342
S1130D7012E0FB689B7901225340DBB2002B01D0C7
S1130D801C2309E0F968BA68BB1D1B88081C111CE8
S1130D901A1C034B9847031C181CBD4604B080BDA5
S1130DA0B90C000080B588B000AF021CFB1D1A709E
S1130DB0FB1D1A78834B9200D358BB61BB691B6837
S1130DC07B61BB69181C804B98477B699B7BDAB2BB
S1130DD01223FB181A807B695B7BDBB29AB2122365
S1130DE0FB181221791809880A401A80BB6920224D
S1130DF09B5CBA692121525C1340DAB21023FB18C0
S1130E001A801223FB181B880122134044D0BB69AB
S1130E10DB8B9BB2002B3CD0BB699B691B78DAB29D
S1130E201E23FB181A80BB699B695A1CBB699A6113
S1130E30BB695B79012B12D1BB699B691B78DBB25F
S1130E401B029AB21E23FB181B8813439AB21E235B
S1130E50FB181A80BB699B695A1CBB699A611E23E3
S1130E60FB181B88DB05DB0D9AB27B691A83BB690F
S1130E70DB8B9BB2013B9BB2BA69191CD183002B5B
S1130E8006D17B6901221A737B6902225A7303E03B
S1130E9002E07B6901221A731223FB181B880222C9
S1130EA0134011D07B6902221A73BB6923220021EB
S1130EB099541023FB181B880122134004D0BB69EA
S1130EC09B68BA69101C98471223FB181B880422DC
S1130ED0134000D173E0BB699B8B9BB2002B00D104
S1130EE06AE07B691B8A9BB2DAB20F23FB180721E5
S1130EF00A401A700F23FB181B78002B43D00F23D2
S1130F00FB181B78022213400CD0BB6922221A2141
S1130F1099547B691B8A9BB2022213439AB27B6960
S1130F201A8224E00F23FB181B78042213400CD0F0
S1130F30BB6922221E2199547B691B8A9BB204221D
S1130F4013439AB27B691A8211E00F23FB181B78B2
S1130F50012213400BD0BB692222132199547B69CF
S1130F601B8A9BB2012213439AB27B691A82102313
S1130F70FB181B880422134021D0BB691B69BA6982
S1130F80101C98471BE07B691B8B9AB20E23FB183D
S1130F901A70BB695B690E22BA1812781A70102392
S1130FA0FB181B880222134005D0BB69DB68BA69B1
S1130FB0101C984703E002E07B6904221A73BD46C3
S1130FC008B080BD68030020990C000090B583B080
S1130FD000AF294B9847294B181C294B9847294B9C
S1130FE0C8221A603CE0284B9847284A284B111C19
S1130FF01A1C0C23081C111C1A1C264B9847234B43
S1131000181C254B9847041C244A204B101C6421AF
S11310101A1C231C224CA047031C7B607B68002BFA
S113102012D032201F4B98477B680C331E4A101C89
S1131030191C1122174B98471B4B00225A741B4B47
S113104001221A70002313E00E4B1B68002B07D1FA
S1131050154B00221A70154B00221A701C2307E04E
S1131060084B1B68002BBED1104B00221A701C23A6
S1131070181CBD4603B090BDAD080000643E0000DE
S11310807D09000048030020F90A0000CC0200207A
S1131090743E0000A53D0000053E0000C001002094
S11310A0B73D0000CD140000300300208903002068
S11310B080B500AF224B9847224B1B78002B01D1FF
S11310C000233AE0204B00221A701F4A1F4B111CC8
S11310D01A1C1123081C111C1A1C1D4B98471A4A70
S11310E0184B101C191C1B4B9847174B181C1A4BF8
S11310F09847031C1A1C144BD218184B111C1A1CA9
S11311000323081C111C1A1C114B9847144B9847B5
S11311100D4B181C134B98470120134B9847084B51
S11311209847084B1B78002B04D1104BF3221A70FC
S1131130002302E00E4B98471C23181CBD4680BDBB
S1131140CD0F000030030020CC020020A43E00009C
S1131150A53D0000EB3D0000053E00009C3E000064
S1131160AD0800007D0900009D14000079040020F2
S1131170AD02000090B583B000AF404B181C404B4B
S11311809847404BFA2292001A601EE03E4B984763
S11311903E4A3F4B111C1A1C0923081C111C1A1C23
S11311A03C4B9847394B181C3B4B9847041C3B4A13
S11311B0364B101CFF211A1C231C394CA047031C5E
S11311C07B607B68002B00D003E02E4B1B68002B58
S11311D0DCD17B68002B40D1324B181C284B98473C
S11311E00520314B9847314B181C254B9847052057
S11311F02D4B9847254A2E4B111C1A1C1523081CED
S1131200111C1A1C234B9847204B181C224B98473F
S1131210031C1A1C1D4BD2181D4B111C1A1C09232C
S1131220081C111C1A1C1B4B9847184B181C1A4BF2
S11312309847031C1A1C154BD2181E4B111C1A1C60
S11312400323081C111C1A1C124B98470F4B181C23
S11312500B4B98471920144B9847174B181C084BF5
S11312609847084BC8221A6001E0074B9847054B82
S11312701B68002BF9D1BD4603B090BDEC3E0000C5
S11312807D09000048030020D10B0000CC0200209F
S1131290503E0000A53D0000053E0000C0010020B6
S11312A0B73D0000043F0000CD140000203F0000C3
S11312B0683F00009C3E0000803F000080B582B083
S11312C000AF021CFB1D1A70064BFA1D1278111C8C
S11312D01F220A40012191400A1C1A60BD4602B037
S11312E080BDC04600E100E080B584B000AF786006
S11312F07B681B68FB60FB68DB7BDBB21A1C80230A
S113130013405A1E9341DBB2181CBD4604B080BD85
S113131080B582B000AF78607B6800221A707B6869
S113132000229A707B6800229A807B6800229A715E
S11313307B6800221A817B6800225A707B68002235
S11313409A727B680022DA727B6800221A737B68C7
S113135000229A737B6800225A737B6800221A74F5
S11313607B6800225A617B6800229A617B680022B4
S11313701A777B6800221A627B6800225A627B68B3
S113138000221A857B6800225A857B6800229A8590
S1131390BD4602B080BDC04680B584B000AF786061
S11313A07B681B68FB60C0467B68181C074B98472A
S11313B0031EF9D1FB681B889BB2022213439AB225
S11313C0FB681A80BD4604B080BDC046E912000027
S11313D080B582B000AF7860044A7B68D3181B786C
S11313E0DBB25BB2181CBD4602B080BD0000002019
S11313F080B582B000AF78600A1CFB1C1A707B6851
S11314001B68181C224B9847031C181C214B984737
S1131410031C181C204B9847FB1C1B78022B0BD178
S11314207B685B7E10221343DAB27B685A767B6852
S11314301B6810225A7327E0FB1C1B78032B0BD16B
S11314407B685B7E20221343DAB27B685A767B6822
S11314501B6820225A7317E07B685B7ED9B2FB1CA1
S11314601B7801229A40131CDBB20A1C1343DBB223
S1131470DAB27B685A767B681B68FA1C1278012101
S113148091400A1CD2B25A73BD4602B080BDC04618
S11314900D1C0000D1130000BD12000080B582B005
S11314A000AF78607B6864225A43064B1A6001E0FF
S11314B0054B9847034B1B68002BF9D1BD4602B07E
S11314C080BDC04648030020F90A000080B582B000
S11314D000AF7860064B7A681A6001E0054B9847C4
S11314E0034B1B68002BF9D1BD4602B080BDC0463A
S11314F048030020F90A000080B582B000AF78608C
S1131500084B1B68002B04D0064B1B685A1E054B66
S11315101A60054B1B685A1C034B1A60BD4602B087
S113152080BDC046480300204403002080B58EB02F
S113153000AF3B1D181C0F4B98473B1D04229A70AB
S11315403B1D01221A703B1DE022D2009A803B1DF4
S113155029228A219954084A08493B1D101C1A1C47
S1131560074B9847044B181C064B9847BD460EB0D2
S113157080BDC046111300004C030020003000421F
S11315805D1C00009913000080B500AF064A074BAC
S1131590101C191C0022064B9847034B181C0021F1
S11315A0044B9847BD4680BD4C030020F91400004D
S11315B081190000F113000080B582B000AF021C55
S11315C0FB1D1A70BD4602B080BDC04680B584B014
S11315D000AF021C3960FB1D1A70134B1B780122EB
S11315E05340DBB2002B15D00023FB600CE00F4B03
S11315F0FA6892000E49D1500E4BFA68920000210D
S1131600D150FB680133FB60FB68052BEFD9064B17
S113161001221A70FB1D1A78044B92003968D150CC
S1131620BD4604B080BDC046280000202C00002028
S1131630B91500006803002090B585B000AF78604C
S11316400823FA180E4B111C1A1C0623081C111C23
S11316501A1C0C4B98470F23FC187B68181C0A4B68
S11316609847031C23700F23FB181B780822BA1811
S1131670D35CDBB25BB2181CBD4605B090BDC0465E
S1131680883F0000A53D00007527000080B500AF2D
S1131690024B1B6800209847BD4680BD2C000020EB
S11316A080B500AF024B5B6801209847BD4680BD02
S11316B02C00002080B500AF024B9B6802209847A5
S11316C0BD4680BD2C00002080B500AF024BDB6816
S11316D003209847BD4680BD2C00002080B500AF94
S11316E0024B1B6904209847BD4680BD2C00002096
S11316F080B500AF024B5B6905209847BD4680BDAD
S11317002C00002080B584B000AF021CFB1D1A70B1
S11317100F23FB18FA1D1278D2091A700E23FB1836
S1131720FA1D127852091A700D4BBB600F23FB1877
S11317301B78002B0FD10F23FB181B789B00102262
S11317409446BC446344083B1A680E23FB181B7878
S1131750DB01D31800E00023181CBD4604B080BD93
S11317600044004180B582B000AF021CFB1D1A701A
S1131770FB1D1B78181C034B9847031C181CBD4603
S113178002B080BD0517000080B584B000AF021C14
S1131790FB1D1A70FB1D1B78181C0B4B9847031C70
S11317A0FB60FB1D1B781F22134001229A40131C6F
S11317B0BB60FB681B6ABA6813405A1E9341DBB2D4
S11317C0181CBD4604B080BD6517000080B584B008
S11317D000AF021CFB1D1A70BB1D0A1C1A70FB1DF6
S11317E01B78181C0C4B9847031CFB60FB1D1B78D3
S11317F01F22134001229A40131CBB60BB1D1B789F
S1131800002B03D0FB68BA689A6102E0FB68BA68EF
S11318105A61BD4604B080BD6517000080B500AFB5
S1131820494BF0221A70494B9847494B9847494B0A
S11318309847494B9847494B01221A7007200121C8
S1131840474B984706200121454B98470520012125
S1131850434B9847434B984716E007200021404BE1
S11318609847062000213E4B9847052000213C4B19
S113187098473D4B9847031C1A1C3C4B1A703B4B32
S11318801B78002B00D109E00420394B9847031C36
S11318901A1C01235340DBB2002BDED11720344B3A
S11318A09847031C1A1C01235340DBB2002B33D08E
S11318B0304B9847304B1B78002B16D00620002164
S11318C0274B984705200121254B984707200121E4
S11318D0234B98470520294B984706200121204B8C
S11318E098473220254B98472CE0062001211C4BB9
S11318F09847052000211A4B984707200121184BCF
S1131900984705201D4B984705200121144B984703
S113191032201A4B98479DE706200121104B984727
S1131920052001210E4B9847072000210C4B9847B6
S11319300520124B984707200121094B9847322074
S11319400E4B984786E7C046790400207D040000CA
S1131950AD080000AD02000075110000F80300207E
S1131960CD170000F90A0000B11000008103002027
S113197089170000CD0F000089030020CD1400005A
S113198080B584B000AFF860B960FB1D1A70FB1D10
S11319901A78FB6802329200B968D150FB1D1B789B
S11319A0022B07D1FB681B7E10221343DAB2FB68BB
S11319B01A761AE0FB1D1B78032B07D1FB681B7EEC
S11319C020221343DAB2FB681A760EE0FB681B7E12
S11319D0D9B2FB1D1B7801229A40131CDBB20A1CEE
S11319E01343DBB2DAB2FB681A760023181CBD4637
S11319F004B080BD80B500AF0020024B9847BD46BF
S1131A0080BDC046951A000080B500AF0120024B8E
S1131A109847BD4680BDC046951A000080B500AF0A
S1131A200220024B9847BD4680BDC046951A00006F
S1131A3080B500AF0320024B9847BD4680BDC04629
S1131A40951A000080B500AF0420024B9847BD46AC
S1131A5080BDC046951A000080B500AF0520024B3A
S1131A609847BD4680BDC046951A000080B500AFBA
S1131A700620024B9847BD4680BDC046951A00001B
S1131A8080B500AF0720024B9847BD4680BDC046D5
S1131A90951A000080B584B000AF021CFB1D1A70BB
S1131AA0FB1D1A78284B9200D358FB60FB681B6817
S1131AB09B7BDBB2FA68127E1340DAB2FB68597E74
S1131AC00B23FB180A401A700B23FB181B78012206
S1131AD0134008D0FB689B68FA68101C9847FB68A1
S1131AE01B6801229A730B23FB181B7802221340F4
S1131AF008D0FB68DB68FA68101C9847FB681B6811
S1131B0002229A730B23FB181B781022134008D06F
S1131B10FB681B69FA68101C9847FB681B68102255
S1131B209A730B23FB181B782022134008D0FB6800
S1131B305B69FA68101C9847FB681B6820229A733B
S1131B40BD4604B080BDC0467C04002080B582B090
S1131B5000AF78607B6800221A70BD4602B080BD79
S1131B6080B582B000AF021C3960FB1D1A70FB1DEA
S1131B701B78012B0AD0022B0FD0002B14D10E4B53
S1131B800D4A91693A680A439A610FE00A4B0A4A7E
S1131B90D1693A680A43DA6108E0074B064A116AD8
S1131BA03A680A431A6201E0172300E00023181C74
S1131BB0BD4602B080BDC0460004004080B582B07E
S1131BC000AF78607B6880221A707B6800225A70AC
S1131BD07B6801229A707B680022DA70BD4602B0ED
S1131BE080BDC04680B584B000AF78607B681B6858
S1131BF0FB60FB68DB7BDBB21A1C802313405A1E9C
S1131C009341DBB2181CBD4604B080BD90B58DB0C5
S1131C1000AF78600C23FB180F4A13CA13C313CA0E
S1131C2013C303CA03C30023FB620DE00C23FB1898
S1131C30FA6A9200D2587B689A4202D1FB6ADBB2FC
S1131C4006E0FB6A0133FB62FB6A072BEED9002333
S1131C50181CBD460DB090BD903F000090B58FB0EC
S1131C6000AFF860B9607A603623FB1800221A804E
S1131C703523FB1800221A703423FB1800221A7033
S1131C803123FC18BB68181CC04B9847031C2370F5
S1131C902823FA18BE4B111C1A1C0823081C111CFB
S1131CA01A1CBC4B98471823FA18BB4B111C1A1C5E
S1131CB01023081C111C1A1CB64B98473323FB181D
S1131CC000221A700EE03323FB181A78FB680232E4
S1131CD092000021D1503323FB181A783323FB18C8
S1131CE001321A703323FB181B78032BEBD9FB68E2
S1131CF000221A76FB6800225A763123FB181A78E0
S1131D00A64B9200F968D150FB68BA681A607B68E8
S1131D109B78082B07D13123FB181B780122134031
S1131D2001D01723C3E17B689A78FB681A71BB68FA
S1131D301B889BB21A1C0123134001D00523B6E172
S1131D40BB68DB7BDBB21A1C1023134001D01C23BD
S1131D50ADE1BB681B889BB21A1C0223134001D05F
S1131D601C23A4E17B681B7C002B17D01423FB18D5
S1131D70181C8B4B98477B689B69DAB21423FB18B9
S1131D801A701423FB1801225A707B685B69DAB25B
S1131D901423FB18101C191C824B98477B681B7F6B
S1131DA0002B17D01423FB18181C7D4B98477B6815
S1131DB05B6ADAB21423FB181A701423FB1801228D
S1131DC05A707B681B6ADAB21423FB18101C191CA6
S1131DD0744B98473123FB181A781823FB185200C8
S1131DE0D35A0220191C704B98477B689B78082BA8
S1131DF00BD13123FB181B785A1C1823FB185200F3
S1131E00D35A0220191C684B98471023FB18181C3E
S1131E10664B98477B681A781023FB181A70312395
S1131E20FB181B782822BA18D25C1023FB18101C4C
S1131E30191C5F4B98473123FB181B782822BA18CA
S1131E40D35C181C5B4B98477B689A787B689B79BA
S1131E501343DBB29AB27B681B89134399B27B6844
S1131E609A883623FB180A431A807B685B78002B18
S1131E7008D03623FB183622BA18128880210901AB
S1131E800A431A80C046FB68181C4B4B9847031E34
S1131E90F9D1BB683622BA1812881A807B685B7B3A
S1131EA0002B03D03523FB1804221A707B689B7B1C
S1131EB0002B07D03523FB183522BA1812780121DC
S1131EC00A431A70C046FB68181C3B4B9847031E14
S1131ED0F9D1BB68FF221A713523FB181B78002B3C
S1131EE00BD0C046FB68181C334B9847031EF9D12E
S1131EF0BB683522BA1812785A713423FB187A68F1
S1131F00927A1A703223FB1800221A701CE03223D2
S1131F10FB181B787A68D318DB7A002B0DD0322398
S1131F20FB181B7810229A40131CD9B23423FB18D7
S1131F303422BA1812780A431A703223FB181A781A
S1131F403223FB1801321A703223FB181B78012B41
S1131F50DDD9C046FB68181C174B9847031EF9D1FE
S1131F60BB683422BA1812789A71C046FB68181CF0
S1131F70114B9847031EF9D1FB681B79042B1DD024
S1131F80082B00D16FE0002B4AD08FE00D1C00001D
S1131F90B03F0000A53D0000B83F00007C040020D5
S1131FA0BD1B0000F93A0000611B00004D1B00003E
S1131FB00D38000051380000E51B0000C046FB68E6
S1131FC0181C3D4B9847031EF9D17B6828229A5C64
S1131FD0BB681A74C046FB68181C374B9847031E2D
S1131FE0F9D17B6829229A5CBB681A75C046FB68E4
S1131FF0181C314B9847031EF9D17B682A229A5C3E
S1132000BB681A76C046FB68181C2B4B9847031E06
S1132010F9D17B682B229A5CBB685A76002346E090
S1132020C046FB68181C244B9847031EF9D17B68F3
S11320301A8DBB681A82C046FB68181C1E4B984751
S1132040031EF9D17B685A8DBB681A83C046FB68AE
S1132050181C194B9847031EF9D17B689A8DBB68ED
S11320605A83002323E0C046FB68181C124B984790
S1132070031EF9D17B689A6ABB681A61C046FB6883
S1132080181C0D4B9847031EF9D17B68DA6ABB68AC
S11320909A61C046FB68181C074B9847031EF9D188
S11320A07B681A6BBB68DA61002300E01723181CF5
S11320B0BD460FB090BDC046E51B000080B582B0A0
S11320C000AF0F4B1B68002B12D1EFF310837B6022
S11320D07B68002B09D172B6BFF35F8F094B0022D6
S11320E01A70094B01221A7002E0074B00221A7081
S11320F0034B1B685A1C024B1A60BD4602B080BDDC
S113210044000020080000204800002080B500AFF3
S11321100A4B1B685A1E094B1A60084B1B68002B9C
S11321200AD1074B1B78DBB2002B05D0054B0122EB
S11321301A70BFF35F8F62B6BD4680BD44000020B5
S1132140480000200800002080B582B000AF78600D
S11321507B6880221A707B6800225A707B68012297
S11321609A707B680022DA70BD4602B080BDC0461A
S113217080B584B000AF021C3960FB1D1A700C23BB
S1132180FB18181C0F4B98470C23FB1880221A705D
S11321903B681A780C23FB185A703B685A780C2356
S11321A0FB189A703B689A780C23FB18DA70FB1DB5
S11321B01A780C23FB18101C191C034B9847BD46B6
S11321C004B080BD49210000F93A000080B582B016
S11321D000AF78607B6800221A70BD4602B080BDF3
S11321E0F0B58DB000AFB860F9603A607B60002351
S11321F000243B627C6200230024BB61FC613F231A
S1132200FB6253E0FB6A203B002B04DB01229A4073
S1132210131C7B610BE0FB6A2022D31A0122DA40F3
S1132220131C0021FA6A91400A1C13437B610122AA
S1132230FB6A9A40131C3B61BB69FC69DB1864416F
S1132240BB61FC61BB683A691A40151CFB687A697A
S11322501A40161C2B1C334307D0BB6901221343BD
S1132260BB61FB6900221343FB617A68FB699A42F4
S113227019D87A68FB699A4203D13A68BB699A42D1
S113228011D8B969FA693B687C68C91AA2410B1C68
S1132290141CBB61FC613A6A3B6913433B627A6A72
S11322A07B6913437B62FB6A013BFB62FB6A002B85
S11322B0A8DA3B6A7C6A181C211CBD460DB0F0BD2F
S11322C080B586B000AFF860B9607A601623FB1859
S11322D000221A80BB683B61BB685A08FB689A42BB
S11322E001D2402326E0BB685B083B610AE03A69FF
S11322F0FB68D31A3B611623FB181A881623FB18B4
S113230001321A803A69FB689A42F0D21623FB180C
S11323101622BA181288013A1A801623FB181B8851
S1132320FF2B01D9402305E07B681622BA181288D6
S11323301A800023181CBD4606B080BDF0B59DB0C0
S113234000AFF863B9637A633322BA1813700023B9
S11323500024BB65FC65002300243B657C650023E9
S11323600024BB66FC6600233B6658233022944657
S1132370BC4463441A78FB6B5A43BB6B9A4201D941
S11323804023C9E03323FB181B78002B3FD158238B
S113239030229446BC4463441B78DBB23B61002387
S11323A07B61FB6BBB600023FB605D4C3869796922
S11323B0BA68FB68A047031C0C1C1B00FB640023C9
S11323C0BB64BB6B3B6000237B60BB6CFC6C181C68
S11323D0211C3A687B68534CA047031C0C1CBB654A
S11323E0FC6500210122BB6DFC6DC91AA2410B1CC6
S11323F0141C3B657C653B6D1B0C7A6D16041E43F7
S11324003B6D1D043300BB660023FB667EE0332373
S1132410FB181B78012B00D078E037233022944638
S1132420BC44634400221A7051E0BB6BBB620023BE
S1132430FB62B86AF96A031C5B0F0A1CD2001343DF
S1132440FB64031CDB00BB64FB6B3B6200237B620D
S1132450582330229446BC4463441B78DBB2BB61EE
S11324600023FB612E4C386A796ABA69FB69A0477C
S1132470031C0C1C3B647C64B96CFA6C3B6C7C6C78
S1132480081C111C1A1C231C264CA047031C0C1CE2
S11324903B66372330229446BC4463441B783A6E2F
S11324A0D31A3B663B6EDB083B663B6E1E4A934287
S11324B000D814E0372330229446BC4463441A788D
S11324C0372330218C46BC44634401321A703723CD
S11324D030229446BC4463441B78072BA5D9372388
S11324E030229446BC4463441B78082B01D140231A
S11324F012E0372330229446BC4463441B785B03C8
S11325001A1C3B6E1343BB660023FB66BB6EFC6E5A
S11325109AB27B6B1A800023181CBD461DB0F0BD17
S1132520053D0000E1210000FF1F000080B584B0DC
S113253000AF021CFB1D1A70BB1D0A1C1A701A4B3B
S11325401B7801225340DBB2002B03D1BB1D1B7847
S1132550002B1BD00C23FB18181C144B98470C237E
S1132560FB18FA1D12781A700C23FB180C20191C86
S11325700F4B98470C200F4B98470B4BFA1D1278C2
S11325805A70094B01221A70002308E0064B5B784D
S1132590FA1D12789A4201D1002300E01D23181C71
S11325A0BD4604B080BDC0464C000020CD210000D3
S11325B00D3800005138000080B582B000AF78605B
S11325C00A1CFB1C1A707B684D4A93423FD04C4A4C
S11325D0934206D84B4A93420FD04B4A934221D0A0
S11325E089E04A4A934200D15BE0494A934200D1D0
S11325F06CE0484A93423FD07DE0FB1C1B78012BE2
S11326000AD002DC002B05D075E0022B06D0032B88
S113261006D070E0404B6FE0404B6DE0404B6BE008
S1132620404B69E0FB1C1B78012B0AD002DC002B19
S113263005D060E0022B06D0032B06D05BE0032319
S11326405AE0394B58E0394B56E0394B54E0FB1C07
S11326501B78012B0AD002DC002B05D04BE0022BA7
S113266006D0032B06D046E0324B45E0324B43E024
S1132670324B41E0324B3FE0FB1C1B78012B0AD06C
S113268002DC002B05D036E0022B06D0032B06D04B
S113269031E02C4B30E02C4B2EE02C4B2CE02C4B1F
S11326A02AE0FB1C1B78012B0AD002DC002B05D08E
S11326B021E0022B06D0032B06D01CE0254B1BE0A7
S11326C0254B19E0254B17E0254B15E0FB1C1B7827
S11326D0012B0AD002DC002B05D00CE0022B06D023
S11326E0032B06D007E01F4B06E01F4B04E01F4BF3
S11326F002E01F4B00E00023181CBD4602B080BD61
S11327000010004200080042000C00420018004281
S1132710001C0042001400420300040003000500F2
S113272003000600030007000300010003001E006D
S113273003001F00030008000300090003000A004F
S113274003000B000300100003001100030012003B
S11327500300130003000C0003000D0003000E002F
S113276003000F0003001600030017000300180005
S11327700300190090B58BB000AF78600C23FB18F0
S11327800E4A13CA13C313CA13C300237B620DE09A
S11327907B680C22BA18796A89008A58934202D15C
S11327A07B6ADBB206E07B6A01337B627B6A052BC2
S11327B0EED90023181CBD460BB090BDC83F0000E5
S11327C080B582B000AF78607B6800221A70BD4685
S11327D002B080BD80B582B000AF021C3960FB1D21
S11327E01A70FB1D1B78012B0AD0022B0FD0002B73
S11327F014D10E4B0D4A91693A680A439A610FE06D
S11328000A4B0A4AD1693A680A43DA6108E0074B7D
S1132810064A116A3A680A431A6201E0172300E083
S11328200023181CBD4602B080BDC0460004004011
S113283080B582B000AF78607B6880221A707B68B4
S113284000225A707B6801229A707B680022DA7039
S1132850BD4602B080BDC04680B500AF054B9B7835
S1132860DBB21A1C022313405A1E9341DBB2181C1C
S1132870BD4680BD0020004180B584B000AF7860C3
S11328807B681B68FB60FB681B8A9BB21A1C802355
S11328901B0213405A1E9341DBB2181CBD4604B000
S11328A080BDC04680B582B000AF7860C0467B680A
S11328B0181C034B9847031EF9D1BD4602B080BDD6
S11328C079280000F0B58DB002AF786039607B687C
S11328D01B68BB617B681B68181C6E4B9847031C04
S11328E07B617B690D333B6100237B6200233B6288
S11328F00C23FB1800221A800F23FB1800221A70E5
S11329000E23FB1810221A703B681A683B68DB68B8
S113291013433A68927D520713437B621F23FB18CB
S113292000221A703B685B68002B1FD0802252057E
S113293093424ED13B68DB7D01225340DBB2002B36
S113294013D03B681D693B69DBB2181C524B984796
S1132950021C1F23FC180C23FB18281C111C1A1C16
S11329604E4B9847031C237033E032E03B68DB7D19
S1132970002B14D03B6818693B6899691F23FC1825
S11329800C23FA180F23FB181D780E23FB181B7851
S113299000932B1C424DA847031C237018E03B688E
S11329A01E693B69DBB2181C3B4B9847011C1F2373
S11329B0FC180C23FA180F23FB181D780E23FB18A0
S11329C01B780093301C2B1C354DA847031C237027
S11329D0C0461F23FB181B78002B03D01F23FB18B2
S11329E01B7852E07B68181C2E4B98470C23FB186D
S11329F01A88BB695A813B685B687A6A13437B62B5
S1132A003B68DB7D01225340DBB2002B03D07B6AA1
S1132A10042213437B623B689A7A3B68DB7A134354
S1132A20DBB21A1C3B681B7D5B0413433A68527D7E
S1132A30120413433B623B681B89FF2B0AD07B6A59
S1132A408022520413437B623B681B891A1C3B6A35
S1132A5013433B623B681B7F002B03D1124B984707
S1132A60031E03D07B6A802213437B627B68181C9D
S1132A700C4B9847BB693A6A5A607B68181C094B2F
S1132A809847BB697A6A1A600023181CBD460BB0CC
S1132A90F0BDC0467527000031390000C122000096
S1132AA03D230000A52800005928000090B593B0EC
S1132AB000AFF860B9607A603B23FB1800221A70FB
S1132AC0FB68BA681A60FB681B687B63FB681B6859
S1132AD0181C7F4B9847031C3B633B6B0233FB6220
S1132AE03B6B0D33BB627B6B1B680122134001D02F
S1132AF00523E8E07B6B1B680222134001D01C23F2
S1132B00E1E0FB6A01229A40131C0220191C714B5C
S1132B1098472423FB18181C6F4B98477B685A7FEF
S1132B202423FB181A70BB6ADAB22423FB18101C86
S1132B30191C6A4B9847BB6ADBB2181C684B984750
S1132B407B685B7F181C0021664B98477B68DA7AA8
S1132B50FB685A717B681A7DFB689A717B685A7DA1
S1132B60FB68DA713B23FC18FA687B68101C191C9B
S1132B705D4B9847031C23703B23FB181B78002BE9
S1132B8003D03B23FB181B789DE02023FB18181C63
S1132B90564B98472023FB1800225A702023FB1819
S1132BA000229A707B681A6A1023FB181A607B68EB
S1132BB05A6A1023FB185A607B689A6A1023FB1820
S1132BC09A607B68DA6A1023FB18DA604723FB18E3
S1132BD000221A702CE04723FB181A781023FB18E4
S1132BE09200D3583B643B6C002B09D1BA6847234D
S1132BF0FB181B78101C191C3D4B9847031C3B64A5
S1132C003B6C01330DD03B6CDAB22023FB181A70F5
S1132C103B6C1B0CDAB22023FB18101C191C354B1F
S1132C2098474723FB181A784723FB1801321A7078
S1132C304723FB181B78032BCDD90023FB6308E043
S1132C40FB68FA6B023292000021D150FB6B013316
S1132C50FB63FB6B022BF3D9FB6800229A61FB68D0
S1132C6000225A61FB680022DA83FB6800229A83FF
S1132C70FB68202200219954FB68212200219954E9
S1132C80FB68222200219954FB68232200219954D5
S1132C90FB681B682722BC18181C0D4B9847031CA3
S1132CA023702723FB181A78134B101C191C134B81
S1132CB098472723FB181A78114B9200F968D150D2
S1132CC03B23FB181B78181CBD4613B090BDC046AF
S1132CD075270000D5270000C12700000D3800002B
S1132CE0513800002D250000C528000031280000BF
S1132CF0B9250000F93A0000A50D0000CD1500002B
S1132D006803002080B584B000AF78600A1CBB1C47
S1132D101A807B681B68FB607B68DB790122534067
S1132D20DBB2002B01D01C2317E07B68DB8B9BB24A
S1132D30002B01D0052310E07B68181C094B984731
S1132D40FB68BA1C12881A83C046FB689B7BDBB203
S1132D501A1C02231340F8D00023181CBD4604B0EB
S1132D6080BDC046A528000080B58AB000AFF860D9
S1132D70B960BB1D1A80BB1D1B88002B01D1172312
S1132D807BE0FB68DB7901225340DBB2002B01D0EE
S1132D901C2372E0FB681B687B61FB68181C394BC1
S1132DA098472623FB1800221A8046E000233B6242
S1132DB010E07B699B7BDBB21A1C0123134000D01B
S1132DC00CE03B6A304A934201D1122355E03B6A3E
S1132DD001333B623B6A2C4A9342EAD92623FB180F
S1132DE01B882622BA18591C11801A1CBB689B1810
S1132DF01A781E23FB181A80FB685B79012B14D107
S1132E002623FB181B882622BA18591C11801A1C69
S1132E10BB689B181B781B029AB21E23FB181B88E5
S1132E2013439AB21E23FB181A80FA681E23FB1858
S1132E301B88101C191C154B9847BB1D1B88BA1DF9
S1132E40591E1180002BB1D10023BB6110E07B69B6
S1132E509B7BDBB21A1C0223134000D00CE0BB693D
S1132E60094A934201D1122307E0BB690133BB61D4
S1132E70BB69054A9342EAD90023181CBD460AB02F
S1132E8080BDC046A5280000FFFF0000052D0000FE
S1132E9080B582B000AF78607B6801225A607B689D
S1132EA000225A707B6806221A707B6800221A720C
S1132EB07B6800225A72BD4602B080BD80B582B0E4
S1132EC000AF78607B6800221A707B680E225A700B
S1132ED07B6801229A707B68054A5A607B680022ED
S1132EE01A727B6801225A72BD4602B080BDC04688
S1132EF0001BB70080B582B000AF78607B68032206
S1132F001A707B6800225A707B6801229A70BD4651
S1132F1002B080BD80B582B000AF021CFB1D1A70E8
S1132F20034AFB1D1B781372BD4602B080BDC04628
S1132F300004004080B582B000AF021CFB1D1A7073
S1132F40BB1D0A1C1A70FB1D1B78012B08D0022B19
S1132F500BD0002B0ED10B4ABB1D1B7853720BE018
S1132F60084ABB1D1B78937206E0064ABB1D1B78FA
S1132F70D37201E0172300E00023181CBD4602B001
S1132F8080BDC0460004004080B582B000AF021C82
S1132F90FB1D1A70084BFA1D12780F210A40D2B299
S1132FA00F210A40520059681E2081430A435A6087
S1132FB0BD4602B080BDC0460040004180B500AFB0
S1132FC0C046034BDB6810221340FAD0BD4680BDD7
S1132FD00008004080B500AF0C4A0D4B1B689BB243
S1132FE080218B439BB293840A4B9847074A084B32
S1132FF09B68D362054A064B5B689362034A044BA1
S11330001B689BB29384BD4680BDC0460008004047
S113301050000020BD2F000080B582B000AF021C1C
S1133020FB1D1A70FB1D1B78072B35D89A001D4B0E
S1133030D3181B689F461C4BDB682EE01B4B1B6A96
S11330401B0A1A1C03231340DBB21A1C184BD3406F
S113305023E080231B0220E080231B021DE0124B8F
S11330601B691AE0104B1B680222134001D1002394
S113307013E0104B98470C4B1B680422134009D0F3
S113308000200D4B9847021C074B9B681B041B0C2C
S1133090534302E0094B00E00023181CBD4602B074
S11330A080BDC046E03F0000500000200008004002
S11330B000127A00BD2F000031390000006CDC02E0
S11330C080B584B000AF78601A4B1B6AFB607B68E4
S11330D01B781A1C03231340DAB20D23FB180321B7
S11330E00A40101C1A7803218A43111C021C0A434B
S11330F01A707B689A780C23FB18D0011A787F2108
S11331000A40111C021C0A431A707B685A780C236B
S1133110FB1801210A4090011A7840218A43111CAE
S1133120021C0A431A70034BFA681A62BD4604B0C3
S113313080BDC0460008004080B584B000AF786010
S1133140534A0C23FB18128A1A807B685B781A1C7A
S11331500F231340DAB20C23FB1810015A780F2105
S11331600A40111C021C0A435A707B681B78002B0E
S113317006D10C23FB181A7804210A431A7005E0BF
S11331800C23FB181A7804218A431A707B689A78F6
S11331900C23FB1801210A40D0005A7808218A43E5
S11331A0111C021C0A435A707B689B78012253400D
S11331B0DBB2002B46D07B685B68364A934206D864
S11331C00C23FB185A7807218A435A703AE07B682B
S11331D05B68314A934209D80C23FB185A780721BB
S11331E08A43111C01220A435A702BE07B685B68F6
S11331F02A4A934209D80C23FB185A7807218A4398
S1133200111C02220A435A701CE07B685B68244A42
S1133210934209D80C23FB185A7807218A43111CBE
S113322003220A435A700DE07B685B681D4A93428F
S113323008D80C23FB185A7807218A43111C04224E
S11332400A435A707B685A7A0C23FB18D0011A7807
S11332507F210A40111C021C0A431A707B681A7AE7
S11332600C23FB1801210A4090011A7840218A435B
S1133270111C021C0A431A707B685A680A4BDA60F4
S1133280034A0C23FB181B881382BD4604B080BD7F
S11332900008004080841E0000093D0000127A00EE
S11332A00024F40080C3C9015000002080B582B01E
S11332B000AF021CFB1D1A70FB1D1B78072B30D8B6
S11332C09A001B4BD3181B689F461A4B194A126A63
S11332D002210A431A62002326E0164B154A92691A
S11332E002210A439A611EE0124A124B1B8A9BB2C6
S11332F002210B439BB2138215E00E4A0D4B9B8AAD
S11333009BB202210B439BB293820CE00A4B1B68D5
S113331002221A43084B1A60084B984703E0002323
S113332002E0172300E00023181CBD4602B080BD54
S1133330004000000008004050000020D52F00008D
S113334080B582B000AF3B1C02221A7000237B6060
S113335009E07B68DAB23B1C101C191C054B98472A
S11333607B6801337B607B681B2BF2D9BD4602B0BE
S113337080BDC0460D38000080B5A0B000AF484BFA
S1133380C222D2009A600020464B9847464B984789
S11333907423FB18181C454B98477423FB18002210
S11333A01A707423FB180F225A707423FB1801221D
S11333B09A707423FB183E4A5A607423FB18012246
S11333C05A727423FB1800221A727423FB18181CF7
S11333D0384B98470020384B98477023FB18181C2B
S11333E0364B98477023FB1800221A707023FB1881
S11333F001229A707023FB1800225A707023FB1864
S1133400181C2F4B984706202B4B98472D4B984759
S11334105823FB18181C2C4B98475823FB180022E0
S11334201A705823FB1801225A605823FB180022F3
S11334301A725823FB1800225A725823FB180120D1
S1133440191C224B98470120214B98470020214BFF
S1133450984700200021204B9847012000211E4B53
S11334609847022000211C4B98473B1D181C164B03
S113347098473B1D06221A703B1D01225A603B1DD2
S113348000221A723B1D00225A723B1D0020191C97
S11334900E4B984700200E4B9847BD4620B080BD88
S11334A000080040892F000041330000BD2E0000B9
S11334B0001BB70039310000AD320000F52E0000CA
S11334C0C13000007D350000912E0000AD350000B4
S11334D0CD360000152F0000352F000080B582B0D6
S11334E000AF021C3960FB1D1A70FB1D1B78012BF9
S11334F00AD0022B0FD0002B14D10E4B0D4A916928
S11335003A680A439A610FE00A4B0A4AD1693A6859
S11335100A43DA6108E0074B064A116A3A680A432B
S11335201A6201E0172300E00023181CBD4602B014
S113353080BDC0460004004080B500AF014B9847F1
S1133540BD4680BDBD20000080B500AF014B98474B
S1133550BD4680BD0D21000080B500AF064B5B78F1
S1133560DBB2DBB25BB2002B01DA012300E0002303
S1133570181CBD4680BDC046000C004080B500AF9D
S113358000200821074B9847074B01221A70C046B8
S1133590054B1B78DBB21A1C01231340F8D1BD463E
S11335A080BDC046DD340000000C004080B586B00C
S11335B000AF021C3960FB1D1A70FB1D1B787B6178
S11335C0FB1D1B783B613B681B781B021A1C7B6943
S11335D013437B613B685B78002B04D07B698022BA
S11335E0D20213437B613B685B7A002B04D07B6976
S11335F08022120313437B613B685B68012B2CD947
S11336003B685A683B685B68013B13401AD100234E
S1133610FB600223BB6005E0FB680133FB60BB6811
S11336205B00BB603B685A68BB689A42F4D8FB688D
S11336301B023A6913433B617B69802252031343A3
S11336407B610AE03B685B681B023A6913433B6198
S11336507B698022920213437B613B681B7A002BB7
S113366004D07B698022920313437B61C046124BD2
S11336709847031EFBD1114B9847114AFB1D1B7839
S11336801370C0460C4B9847031EFBD10D4B3A698F
S11336909A60C046084B9847031EFBD1094B094A60
S11336A051688022520211407A690A435A60064BDB
S11336B09847BD4606B080BD593500003935000035
S11336C0080C0040000C00404935000080B582B071
S11336D000AF021CFB1D1A70C0460D4B9847031E19
S11336E0FBD10C4B98470C4AFB1D1B781370C0464A
S11336F0074B9847031EFBD1084B084A52688021A8
S113370049020A435A60064B9847BD4602B080BD41
S11337105935000039350000040C0040000C00400D
S11337204935000080B586B000AF021CFB1D1A703D
S1133730C0462E4B9847031EFBD12D4B98472D4A6C
S1133740FB1D1B781370C046284B9847031EFBD102
S1133750294B5B681B0A1A1C1F231340DBB2181C7D
S1133760264B9847031C7B61224AFB1D1B78137070
S1133770214B5B681B0D1A1C01231340DAB213237F
S1133780FB181A701E4AFB1D1B781370C046174B9A
S11337909847031EFBD1184B9B681B0A1A1C002375
S11337A09A43131C9BB2FB60164B98471323FB18D8
S11337B01B78002B09D1FB68012B06D9124B7869C1
S11337C0F9689847031C7B610AE01323FB181B78F4
S11337D0002B05D0FB6801331A1C7B69D3407B6145
S11337E07B69181CBD4606B080BDC0465935000033
S11337F039350000040C0040000C00401930000072
S1133800080C004049350000E13B000080B584B05D
S113381000AF021C3960FB1D1A70FB1D1B78FB6096
S11338203B681B781B021A1CFB681343FB60FB1DDF
S11338301B78181C044B9847044BFA6892B25A80C0
S1133840BD4604B080BDC04695380000000C004061
S113385080B582B000AF021CFB1D1A70094B98475B
S1133860094AFB1D1B7813700849084B5B889BB2FF
S11338708022D20113439BB24B80054B9847BD462F
S113388002B080BD39350000020C0040000C00403D
S11338904935000080B584B000AF021CFB1D1A70CE
S11338A01D4B98471D4AFB1D1B7813701C4B5B88EE
S11338B09BB21B0A1A1C0F231340DBB2FB60184B8C
S11338C05A8818490A405A80154A154B5B889BB29E
S11338D015490B409BB25380C046114B5B889BB289
S11338E01A1C8023DB011340F7D10D4BFA68D2B2C6
S11338F0111C0F220A40D2B2111C0F220A401002DE
S11339005A8808490A40111C021C0A435A80074B72
S11339109847BD4604B080BD39350000020C004014
S1133920000C0040FFF0FFFFFFBFFFFF4935000020
S113393080B584B000AF021CFB1D1A700E4B984773
S11339400E4AFB1D1B7813700D4B5B889BB21B0A40
S11339501A1C0F231340DAB20F23FB181A70094BF9
S113396098470F23FB181B78181C074B9847031C18
S1133970181CBD4604B080BD39350000020C00405F
S1133980000C0040493500002537000080B584B0A4
S113399000AF021CFB1D1A700F23FB18FA1D1278CE
S11339A0D2091A700E23FB18FA1D127852091A70E4
S11339B00D4BBB600F23FB181B78002B0FD10F237B
S11339C0FB181B789B0010229446BC446344083BBC
S11339D01A680E23FB181B78DB01D31800E00023C0
S11339E0181CBD4604B080BD0044004180B588B0B9
S11339F000AFF860B9607A600023FB617B68DB7814
S1133A0001225340DBB2002B35D07B681B78802B1E
S1133A100BD0FB69802252021343FB617B681B7845
S1133A201B061A1CFB691343FB617B685B78002B44
S1133A3003D07B685B78022B10D1FB698022920251
S1133A401343FB617B689B78002B04D0FB698022C5
S1133A50D2021343FB61FB68BA685A607B685B78E7
S1133A60012B03D07B685B78022B07D1FB69214AC9
S1133A701340FB6102E0FB68BA685A60BB681B0430
S1133A801B0CBB61BB681B0C7B61BA69FB691343EC
S1133A90A022D2051A43FB689A627A69FB69134330
S1133AA0D02212061A43FB689A627B68DB780122F3
S1133AB05340DBB2002B1AD0FA698023DB02134097
S1133AC00AD07B689B78012B03D1FB68BA689A61A2
S1133AD002E0FB68BA685A617B685B78012B03D00B
S1133AE07B685B78022B02D1FB68BA689A60BD469A
S1133AF008B080BDFFFFFBFF80B584B000AF021C9F
S1133B003960FB1D1A70FB1D1B78181C0B4B984762
S1133B10031CFB60FB1D1B781F22134001229A40EB
S1133B20131CBB60F968BA683B68081C111C1A1C9A
S1133B30034B9847BD4604B080BDC0468D39000094
S1133B40ED39000080B582B000AF194B7B60194B92
S1133B503B607A683B689A420CD007E03B681A1DC8
S1133B603A607A68111D796012681A603A68124BDB
S1133B709A42F3D3114B3B6004E03B681A1D3A6050
S1133B8000221A603A680E4B9A42F6D30D4B7B60C2
S1133B900D4B7A68FF218A439A600C4B5A68802146
S1133BA00A435A600A4B98470A4B9847FEE7C046B7
S1133BB040400000000000200C0000200C00002009
S1133BC09C0400200000000000ED00E000400041E3
S1133BD0593D00001D18000080B500AFFEE7C04647
S1133BE0002243088B4274D303098B425FD3030A38
S1133BF08B4244D3030B8B4228D3030C8B420DD34B
S1133C00FF22090212BA030C8B4202D312120902D8
S1133C1065D0030B8B4219D300E0090AC30B8B4216
S1133C2001D3CB03C01A5241830B8B4201D38B03C4
S1133C30C01A5241430B8B4201D34B03C01A524169
S1133C40030B8B4201D30B03C01A5241C30A8B42AC
S1133C5001D3CB02C01A5241830A8B4201D38B0297
S1133C60C01A5241430A8B4201D34B02C01A52413B
S1133C70030A8B4201D30B02C01A5241CDD2C309AD
S1133C808B4201D3CB01C01A524183098B4201D329
S1133C908B01C01A524143098B4201D34B01C01A14
S1133CA0524103098B4201D30B01C01A5241C3088C
S1133CB08B4201D3CB00C01A524183088B4201D3FB
S1133CC08B00C01A524143088B4201D34B00C01AE7
S1133CD05241411A00D20146524110467047FFE753
S1133CE001B5002000F00CF802BDC0460029F7D051
S1133CF003B5FFF775FF0EBC4243891A1847C04647
S1133D007047C046F0B54F46464605042D0C2C1CA2
S1133D10C0B41704160C3F0C9946030C7C4375433E
S1133D205F4373437D19260CAD199C46AF4203D9FA
S1133D3080235B029846C4444B46514343432404C6
S1133D402E0C240C2D0466442C1959188919201C96
S1133D500CBC90469946F0BD0E4B70B500251E1C58
S1133D600D4CE41AA410A54204D0AB00F3589847B4
S1133D700135F8E700F054F9084B00251E1C084CE7
S1133D80E41AA410A54204D0AB00F35898470135B7
S1133D90F8E770BD2C4000002C4000002C400000CF
S1133DA030400000002310B5934203D0CC5CC454CF
S1133DB00133F9E710BDF7B5041C002B13D01D1C0B
S1133DC00F1C0E1C01920090009BBC1B1C19B542D9
S1133DD008D8201C01992A1C00F01BF8002802D0E6
S1133DE0013EF1E70024201CFEBD021C10B513782F
S1133DF0002B01D00132FAE7CC5CD4540133002CFF
S1133E00FAD110BD0023C25C0133002AFBD1581E35
S1133E10704730B50024944208D0035D651C0C5DE6
S1133E20A34201D0181B02E02C1CF4E7002030BD93
S1133E3061740D0A0000000061740D0A696E7175E9
S1133E406972792035206E616D650D0A00000000ED
S1133E504149534C56763031000000004E414D45E7
S1133E600000000073657420627420706169720D33
S1133E700A00000053455420425420504149520046
S1133E8061740D0A61740D0A000000004F4B0D0AA5
S1133E90000000000D0A7061697220000D0A000024
S1133EA04F4B000061740D0A7365742062742070B6
S1133EB0616972200000000061740D0A43414C4C9A
S1133EC0200000002031313031205246434F4D4D07
S1133ED00D0A0000434F4E4E4543542030205246B5
S1133EE0434F4D4D20310D0A000000006F6B0D0A49
S1133EF07365740D0A0000003341494D4153763017
S1133F00310000000D0A73657420627420726F6CB6
S1133F10652030204620313030300D0A000000008A
S1133F200D0A73657420636F6E74726F6C20636422
S1133F3020323020322038300D0A00000D0A73651B
S1133F407420636F6E74726F6C206175746F63613B
S1133F506C6C203131303120353030302072666362
S1133F606F6D6D0D0A00000061740D0A61740D0A15
S1133F70736574206274206E616D6520000000001A
S1133F800D0A7365740D0A000708090A0B0C00007A
S1133F90002000420024004200280042002C00427D
S1133FA0003000420034004200380042003C00422D
S1133FB0131314141515161600010002000400084A
S1133FC0001000200040008000080042000C004265
S1133FD0001000420014004200180042001C00427D
S1133FE0363000009830000098300000583000004F
S1133FF0523000005E3000003C30000064300000AD
S1134000E832000022330000223300001E33000097
S1134010DA320000FA320000CA3200000C33000029
S1134020F8B5C046F8BC08BC9E467047CD000000F9
S1134030F8B5C046F8BC08BC9E467047A500000011
S10F40400D0E0F101112131401000000EB
S9033B457C
